{
	"data": {
		"bytecode": {
			"linkReferences": {},
			"object": "610140604052348015610010575f5ffd5b50604051611f42380380611f428339818101604052810190610032919061043b565b5f73ffffffffffffffffffffffffffffffffffffffff168573ffffffffffffffffffffffffffffffffffffffff16036100a0576040517f08c379a00000000000000000000000000000000000000000000000000000000081526004016100979061050c565b60405180910390fd5b5f73ffffffffffffffffffffffffffffffffffffffff168473ffffffffffffffffffffffffffffffffffffffff160361010e576040517f08c379a000000000000000000000000000000000000000000000000000000000815260040161010590610574565b60405180910390fd5b3373ffffffffffffffffffffffffffffffffffffffff168573ffffffffffffffffffffffffffffffffffffffff160361017c576040517f08c379a0000000000000000000000000000000000000000000000000000000008152600401610173906105dc565b60405180910390fd5b3373ffffffffffffffffffffffffffffffffffffffff168473ffffffffffffffffffffffffffffffffffffffff16141580156101e457508473ffffffffffffffffffffffffffffffffffffffff168473ffffffffffffffffffffffffffffffffffffffff1614155b610223576040517f08c379a000000000000000000000000000000000000000000000000000000000815260040161021a90610644565b60405180910390fd5b5f8311610265576040517f08c379a000000000000000000000000000000000000000000000000000000000815260040161025c906106ac565b60405180910390fd5b600a8111156102a9576040517f08c379a00000000000000000000000000000000000000000000000000000000081526004016102a090610714565b60405180910390fd5b3373ffffffffffffffffffffffffffffffffffffffff1660808173ffffffffffffffffffffffffffffffffffffffff16815250508473ffffffffffffffffffffffffffffffffffffffff1660a08173ffffffffffffffffffffffffffffffffffffffff16815250508373ffffffffffffffffffffffffffffffffffffffff1660c08173ffffffffffffffffffffffffffffffffffffffff16815250508260e08181525050620151808261035c919061075f565b4261036791906107a0565b61010081815250508061012081815250505f5f5f6101000a81548160ff0219169083600481111561039b5761039a6107d3565b5b02179055505050505050610800565b5f5ffd5b5f73ffffffffffffffffffffffffffffffffffffffff82169050919050565b5f6103d7826103ae565b9050919050565b6103e7816103cd565b81146103f1575f5ffd5b50565b5f81519050610402816103de565b92915050565b5f819050919050565b61041a81610408565b8114610424575f5ffd5b50565b5f8151905061043581610411565b92915050565b5f5f5f5f5f60a08688031215610454576104536103aa565b5b5f610461888289016103f4565b9550506020610472888289016103f4565b945050604061048388828901610427565b935050606061049488828901610427565b92505060806104a588828901610427565b9150509295509295909350565b5f82825260208201905092915050565b7f496e76616c69642073656c6c65720000000000000000000000000000000000005f82015250565b5f6104f6600e836104b2565b9150610501826104c2565b602082019050919050565b5f6020820190508181035f830152610523816104ea565b9050919050565b7f496e76616c6964206172626974657200000000000000000000000000000000005f82015250565b5f61055e600f836104b2565b91506105698261052a565b602082019050919050565b5f6020820190508181035f83015261058b81610552565b9050919050565b7f42757965722063616e6e6f742062652073656c6c6572000000000000000000005f82015250565b5f6105c66016836104b2565b91506105d182610592565b602082019050919050565b5f6020820190508181035f8301526105f3816105ba565b9050919050565b7f4172626974657220636f6e666c696374000000000000000000000000000000005f82015250565b5f61062e6010836104b2565b9150610639826105fa565b602082019050919050565b5f6020820190508181035f83015261065b81610622565b9050919050565b7f5072696365206d757374206265203e20300000000000000000000000000000005f82015250565b5f6106966011836104b2565b91506106a182610662565b602082019050919050565b5f6020820190508181035f8301526106c38161068a565b9050919050565b7f4d617820617262697465722066656520697320313025000000000000000000005f82015250565b5f6106fe6016836104b2565b9150610709826106ca565b602082019050919050565b5f6020820190508181035f83015261072b816106f2565b9050919050565b7f4e487b71000000000000000000000000000000000000000000000000000000005f52601160045260245ffd5b5f61076982610408565b915061077483610408565b925082820261078281610408565b9150828204841483151761079957610798610732565b5b5092915050565b5f6107aa82610408565b91506107b583610408565b92508282019050808211156107cd576107cc610732565b5b92915050565b7f4e487b71000000000000000000000000000000000000000000000000000000005f52602160045260245ffd5b60805160a05160c05160e051610100516101205161164c6108f65f395f8181610650015261097e01525f8181610390015281816103b601528181610d390152818161110401526111c901525f8181610c0a01528181610ffc0152818161102301526111a801525f818161086c01528181610aa201528181611187015261121001525f81816103400152818161058d0152818161075101528181610a27015261116601525f81816103e60152818161051e015281816106fa0152818161084801528181610a0101528181610c2e01528181610dc001528181610e2f01528181610ef2015281816110ab0152611145015261164c5ff3fe6080604052600436106100f2575f3560e01c80636daa2d4411610089578063b5545a3c11610058578063b5545a3c146102c4578063b60d4288146102da578063f5660660146102e4578063fe25e00a14610314576100f2565b80636daa2d44146102325780637150d8ae1461024857806389e1e82a14610272578063a035b1fe1461029a576100f2565b806329dcb0cf116100c557806329dcb0cf1461019e5780632a2d64ff146101c85780635e10177b146101f257806363c0437e14610208576100f2565b806308551a53146100f65780630c3f6acf1461012057806312065fe01461014a5780631865c57d14610174575b5f5ffd5b348015610101575f5ffd5b5061010a61033e565b6040516101179190611271565b60405180910390f35b34801561012b575f5ffd5b50610134610362565b60405161014191906112fd565b60405180910390f35b348015610155575f5ffd5b5061015e610373565b60405161016b919061132e565b60405180910390f35b34801561017f575f5ffd5b5061018861037a565b60405161019591906112fd565b60405180910390f35b3480156101a9575f5ffd5b506101b261038e565b6040516101bf919061132e565b60405180910390f35b3480156101d3575f5ffd5b506101dc6103b2565b6040516101e9919061135f565b60405180910390f35b3480156101fd575f5ffd5b506102066103e4565b005b348015610213575f5ffd5b5061021c61064e565b604051610229919061132e565b60405180910390f35b34801561023d575f5ffd5b50610246610672565b005b348015610253575f5ffd5b5061025c610846565b6040516102699190611271565b60405180910390f35b34801561027d575f5ffd5b50610298600480360381019061029391906113b1565b61086a565b005b3480156102a5575f5ffd5b506102ae610c08565b6040516102bb919061132e565b60405180910390f35b3480156102cf575f5ffd5b506102d8610c2c565b005b6102e2610ef0565b005b3480156102ef575f5ffd5b506102f861113c565b60405161030b97969594939291906113dc565b60405180910390f35b34801561031f575f5ffd5b5061032861120e565b6040516103359190611271565b60405180910390f35b7f000000000000000000000000000000000000000000000000000000000000000081565b5f5f9054906101000a900460ff1681565b5f47905090565b5f5f5f9054906101000a900460ff16905090565b7f000000000000000000000000000000000000000000000000000000000000000081565b5f427f00000000000000000000000000000000000000000000000000000000000000006103df9190611476565b905090565b7f000000000000000000000000000000000000000000000000000000000000000073ffffffffffffffffffffffffffffffffffffffff163373ffffffffffffffffffffffffffffffffffffffff1614610469576040517fc11393b100000000000000000000000000000000000000000000000000000000815260040160405180910390fd5b600180600481111561047e5761047d61128a565b5b5f5f9054906101000a900460ff16600481111561049e5761049d61128a565b5b146104ef57805f5f9054906101000a900460ff166040517f33ae943b0000000000000000000000000000000000000000000000000000000081526004016104e69291906114b6565b60405180910390fd5b60025f5f6101000a81548160ff021916908360048111156105135761051261128a565b5b02179055505f4790507f000000000000000000000000000000000000000000000000000000000000000073ffffffffffffffffffffffffffffffffffffffff167f28720c586a6e736146008f9bf260b09f29b8dcc37314fed637613ea3aec614f882604051610582919061132e565b60405180910390a25f7f000000000000000000000000000000000000000000000000000000000000000073ffffffffffffffffffffffffffffffffffffffff16826040516105cf9061150a565b5f6040518083038185875af1925050503d805f8114610609576040519150601f19603f3d011682016040523d82523d5f602084013e61060e565b606091505b5050905080610649576040517f3eed8b9c00000000000000000000000000000000000000000000000000000000815260040160405180910390fd5b505050565b7f000000000000000000000000000000000000000000000000000000000000000081565b60018060048111156106875761068661128a565b5b5f5f9054906101000a900460ff1660048111156106a7576106a661128a565b5b146106f857805f5f9054906101000a900460ff166040517f33ae943b0000000000000000000000000000000000000000000000000000000081526004016106ef9291906114b6565b60405180910390fd5b7f000000000000000000000000000000000000000000000000000000000000000073ffffffffffffffffffffffffffffffffffffffff163373ffffffffffffffffffffffffffffffffffffffff16141580156107a057507f000000000000000000000000000000000000000000000000000000000000000073ffffffffffffffffffffffffffffffffffffffff163373ffffffffffffffffffffffffffffffffffffffff1614155b156107d7576040517fc11393b100000000000000000000000000000000000000000000000000000000815260040160405180910390fd5b60045f5f6101000a81548160ff021916908360048111156107fb576107fa61128a565b5b02179055503373ffffffffffffffffffffffffffffffffffffffff167f0b3cd97b16a08a5c77357c276d248827ad32dfd56060f7c55d6255537ba3d96260405160405180910390a250565b7f000000000000000000000000000000000000000000000000000000000000000081565b7f000000000000000000000000000000000000000000000000000000000000000073ffffffffffffffffffffffffffffffffffffffff163373ffffffffffffffffffffffffffffffffffffffff16146108ef576040517f297a055500000000000000000000000000000000000000000000000000000000815260040160405180910390fd5b60048060048111156109045761090361128a565b5b5f5f9054906101000a900460ff1660048111156109245761092361128a565b5b1461097557805f5f9054906101000a900460ff166040517f33ae943b00000000000000000000000000000000000000000000000000000000815260040161096c9291906114b6565b60405180910390fd5b5f4790505f60647f0000000000000000000000000000000000000000000000000000000000000000836109a8919061151e565b6109b2919061158c565b90505f81836109c191906115bc565b9050846109cf5760036109d2565b60025b5f5f6101000a81548160ff021916908360048111156109f4576109f361128a565b5b02179055505f85610a25577f0000000000000000000000000000000000000000000000000000000000000000610a47565b7f00000000000000000000000000000000000000000000000000000000000000005b90508073ffffffffffffffffffffffffffffffffffffffff167ff396531fad1d4dc2cd92386cdea800c92a507f8fe1bdb80313eb32a57481b1dc83604051610a8f919061132e565b60405180910390a25f831115610b60575f7f000000000000000000000000000000000000000000000000000000000000000073ffffffffffffffffffffffffffffffffffffffff1684604051610ae49061150a565b5f6040518083038185875af1925050503d805f8114610b1e576040519150601f19603f3d011682016040523d82523d5f602084013e610b23565b606091505b5050905080610b5e576040517f3eed8b9c00000000000000000000000000000000000000000000000000000000815260040160405180910390fd5b505b5f8173ffffffffffffffffffffffffffffffffffffffff1683604051610b859061150a565b5f6040518083038185875af1925050503d805f8114610bbf576040519150601f19603f3d011682016040523d82523d5f602084013e610bc4565b606091505b5050905080610bff576040517f3eed8b9c00000000000000000000000000000000000000000000000000000000815260040160405180910390fd5b50505050505050565b7f000000000000000000000000000000000000000000000000000000000000000081565b7f000000000000000000000000000000000000000000000000000000000000000073ffffffffffffffffffffffffffffffffffffffff163373ffffffffffffffffffffffffffffffffffffffff1614610cb1576040517fc11393b100000000000000000000000000000000000000000000000000000000815260040160405180910390fd5b6001806004811115610cc657610cc561128a565b5b5f5f9054906101000a900460ff166004811115610ce657610ce561128a565b5b14610d3757805f5f9054906101000a900460ff166040517f33ae943b000000000000000000000000000000000000000000000000000000008152600401610d2e9291906114b6565b60405180910390fd5b7f0000000000000000000000000000000000000000000000000000000000000000421015610d91576040517f7c9dfbee00000000000000000000000000000000000000000000000000000000815260040160405180910390fd5b60035f5f6101000a81548160ff02191690836004811115610db557610db461128a565b5b02179055505f4790507f000000000000000000000000000000000000000000000000000000000000000073ffffffffffffffffffffffffffffffffffffffff167fa171b6942063c6f2800ce40a780edce37baa2b618571b11eedd1e69e626e7d7682604051610e24919061132e565b60405180910390a25f7f000000000000000000000000000000000000000000000000000000000000000073ffffffffffffffffffffffffffffffffffffffff1682604051610e719061150a565b5f6040518083038185875af1925050503d805f8114610eab576040519150601f19603f3d011682016040523d82523d5f602084013e610eb0565b606091505b5050905080610eeb576040517f3eed8b9c00000000000000000000000000000000000000000000000000000000815260040160405180910390fd5b505050565b7f000000000000000000000000000000000000000000000000000000000000000073ffffffffffffffffffffffffffffffffffffffff163373ffffffffffffffffffffffffffffffffffffffff1614610f75576040517fc11393b100000000000000000000000000000000000000000000000000000000815260040160405180910390fd5b5f806004811115610f8957610f8861128a565b5b5f5f9054906101000a900460ff166004811115610fa957610fa861128a565b5b14610ffa57805f5f9054906101000a900460ff166040517f33ae943b000000000000000000000000000000000000000000000000000000008152600401610ff19291906114b6565b60405180910390fd5b7f00000000000000000000000000000000000000000000000000000000000000003414611080577f0000000000000000000000000000000000000000000000000000000000000000346040517fea5ea2e40000000000000000000000000000000000000000000000000000000081526004016110779291906115ef565b60405180910390fd5b60015f5f6101000a81548160ff021916908360048111156110a4576110a361128a565b5b02179055507f000000000000000000000000000000000000000000000000000000000000000073ffffffffffffffffffffffffffffffffffffffff167fcd909ec339185c4598a4096e174308fbdf136d117f230960f873a2f2e81f63af347f00000000000000000000000000000000000000000000000000000000000000006040516111319291906115ef565b60405180910390a250565b5f5f5f5f5f5f5f7f00000000000000000000000000000000000000000000000000000000000000007f00000000000000000000000000000000000000000000000000000000000000007f00000000000000000000000000000000000000000000000000000000000000007f00000000000000000000000000000000000000000000000000000000000000007f00000000000000000000000000000000000000000000000000000000000000005f5f9054906101000a900460ff1647965096509650965096509650965090919293949596565b7f000000000000000000000000000000000000000000000000000000000000000081565b5f73ffffffffffffffffffffffffffffffffffffffff82169050919050565b5f61125b82611232565b9050919050565b61126b81611251565b82525050565b5f6020820190506112845f830184611262565b92915050565b7f4e487b71000000000000000000000000000000000000000000000000000000005f52602160045260245ffd5b600581106112c8576112c761128a565b5b50565b5f8190506112d8826112b7565b919050565b5f6112e7826112cb565b9050919050565b6112f7816112dd565b82525050565b5f6020820190506113105f8301846112ee565b92915050565b5f819050919050565b61132881611316565b82525050565b5f6020820190506113415f83018461131f565b92915050565b5f819050919050565b61135981611347565b82525050565b5f6020820190506113725f830184611350565b92915050565b5f5ffd5b5f8115159050919050565b6113908161137c565b811461139a575f5ffd5b50565b5f813590506113ab81611387565b92915050565b5f602082840312156113c6576113c5611378565b5b5f6113d38482850161139d565b91505092915050565b5f60e0820190506113ef5f83018a611262565b6113fc6020830189611262565b6114096040830188611262565b611416606083018761131f565b611423608083018661131f565b61143060a08301856112ee565b61143d60c083018461131f565b98975050505050505050565b7f4e487b71000000000000000000000000000000000000000000000000000000005f52601160045260245ffd5b5f61148082611347565b915061148b83611347565b925082820390508181125f8412168282135f8512151617156114b0576114af611449565b5b92915050565b5f6040820190506114c95f8301856112ee565b6114d660208301846112ee565b9392505050565b5f81905092915050565b50565b5f6114f55f836114dd565b9150611500826114e7565b5f82019050919050565b5f611514826114ea565b9150819050919050565b5f61152882611316565b915061153383611316565b925082820261154181611316565b9150828204841483151761155857611557611449565b5b5092915050565b7f4e487b71000000000000000000000000000000000000000000000000000000005f52601260045260245ffd5b5f61159682611316565b91506115a183611316565b9250826115b1576115b061155f565b5b828204905092915050565b5f6115c682611316565b91506115d183611316565b92508282039050818111156115e9576115e8611449565b5b92915050565b5f6040820190506116025f83018561131f565b61160f602083018461131f565b939250505056fea2646970667358221220d5d5a72d8262df90c34d612da6a5ebac92d3f6afe4623aa999c18e6e6e4928d764736f6c63430008220033",
			"opcodes": "PUSH2 0x140 PUSH1 0x40 MSTORE CALLVALUE DUP1 ISZERO PUSH2 0x10 JUMPI PUSH0 PUSH0 REVERT JUMPDEST POP PUSH1 0x40 MLOAD PUSH2 0x1F42 CODESIZE SUB DUP1 PUSH2 0x1F42 DUP4 CODECOPY DUP2 DUP2 ADD PUSH1 0x40 MSTORE DUP2 ADD SWAP1 PUSH2 0x32 SWAP2 SWAP1 PUSH2 0x43B JUMP JUMPDEST PUSH0 PUSH20 0xFFFFFFFFFFFFFFFFFFFFFFFFFFFFFFFFFFFFFFFF AND DUP6 PUSH20 0xFFFFFFFFFFFFFFFFFFFFFFFFFFFFFFFFFFFFFFFF AND SUB PUSH2 0xA0 JUMPI PUSH1 0x40 MLOAD PUSH32 0x8C379A000000000000000000000000000000000000000000000000000000000 DUP2 MSTORE PUSH1 0x4 ADD PUSH2 0x97 SWAP1 PUSH2 0x50C JUMP JUMPDEST PUSH1 0x40 MLOAD DUP1 SWAP2 SUB SWAP1 REVERT JUMPDEST PUSH0 PUSH20 0xFFFFFFFFFFFFFFFFFFFFFFFFFFFFFFFFFFFFFFFF AND DUP5 PUSH20 0xFFFFFFFFFFFFFFFFFFFFFFFFFFFFFFFFFFFFFFFF AND SUB PUSH2 0x10E JUMPI PUSH1 0x40 MLOAD PUSH32 0x8C379A000000000000000000000000000000000000000000000000000000000 DUP2 MSTORE PUSH1 0x4 ADD PUSH2 0x105 SWAP1 PUSH2 0x574 JUMP JUMPDEST PUSH1 0x40 MLOAD DUP1 SWAP2 SUB SWAP1 REVERT JUMPDEST CALLER PUSH20 0xFFFFFFFFFFFFFFFFFFFFFFFFFFFFFFFFFFFFFFFF AND DUP6 PUSH20 0xFFFFFFFFFFFFFFFFFFFFFFFFFFFFFFFFFFFFFFFF AND SUB PUSH2 0x17C JUMPI PUSH1 0x40 MLOAD PUSH32 0x8C379A000000000000000000000000000000000000000000000000000000000 DUP2 MSTORE PUSH1 0x4 ADD PUSH2 0x173 SWAP1 PUSH2 0x5DC JUMP JUMPDEST PUSH1 0x40 MLOAD DUP1 SWAP2 SUB SWAP1 REVERT JUMPDEST CALLER PUSH20 0xFFFFFFFFFFFFFFFFFFFFFFFFFFFFFFFFFFFFFFFF AND DUP5 PUSH20 0xFFFFFFFFFFFFFFFFFFFFFFFFFFFFFFFFFFFFFFFF AND EQ ISZERO DUP1 ISZERO PUSH2 0x1E4 JUMPI POP DUP5 PUSH20 0xFFFFFFFFFFFFFFFFFFFFFFFFFFFFFFFFFFFFFFFF AND DUP5 PUSH20 0xFFFFFFFFFFFFFFFFFFFFFFFFFFFFFFFFFFFFFFFF AND EQ ISZERO JUMPDEST PUSH2 0x223 JUMPI PUSH1 0x40 MLOAD PUSH32 0x8C379A000000000000000000000000000000000000000000000000000000000 DUP2 MSTORE PUSH1 0x4 ADD PUSH2 0x21A SWAP1 PUSH2 0x644 JUMP JUMPDEST PUSH1 0x40 MLOAD DUP1 SWAP2 SUB SWAP1 REVERT JUMPDEST PUSH0 DUP4 GT PUSH2 0x265 JUMPI PUSH1 0x40 MLOAD PUSH32 0x8C379A000000000000000000000000000000000000000000000000000000000 DUP2 MSTORE PUSH1 0x4 ADD PUSH2 0x25C SWAP1 PUSH2 0x6AC JUMP JUMPDEST PUSH1 0x40 MLOAD DUP1 SWAP2 SUB SWAP1 REVERT JUMPDEST PUSH1 0xA DUP2 GT ISZERO PUSH2 0x2A9 JUMPI PUSH1 0x40 MLOAD PUSH32 0x8C379A000000000000000000000000000000000000000000000000000000000 DUP2 MSTORE PUSH1 0x4 ADD PUSH2 0x2A0 SWAP1 PUSH2 0x714 JUMP JUMPDEST PUSH1 0x40 MLOAD DUP1 SWAP2 SUB SWAP1 REVERT JUMPDEST CALLER PUSH20 0xFFFFFFFFFFFFFFFFFFFFFFFFFFFFFFFFFFFFFFFF AND PUSH1 0x80 DUP2 PUSH20 0xFFFFFFFFFFFFFFFFFFFFFFFFFFFFFFFFFFFFFFFF AND DUP2 MSTORE POP POP DUP5 PUSH20 0xFFFFFFFFFFFFFFFFFFFFFFFFFFFFFFFFFFFFFFFF AND PUSH1 0xA0 DUP2 PUSH20 0xFFFFFFFFFFFFFFFFFFFFFFFFFFFFFFFFFFFFFFFF AND DUP2 MSTORE POP POP DUP4 PUSH20 0xFFFFFFFFFFFFFFFFFFFFFFFFFFFFFFFFFFFFFFFF AND PUSH1 0xC0 DUP2 PUSH20 0xFFFFFFFFFFFFFFFFFFFFFFFFFFFFFFFFFFFFFFFF AND DUP2 MSTORE POP POP DUP3 PUSH1 0xE0 DUP2 DUP2 MSTORE POP POP PUSH3 0x15180 DUP3 PUSH2 0x35C SWAP2 SWAP1 PUSH2 0x75F JUMP JUMPDEST TIMESTAMP PUSH2 0x367 SWAP2 SWAP1 PUSH2 0x7A0 JUMP JUMPDEST PUSH2 0x100 DUP2 DUP2 MSTORE POP POP DUP1 PUSH2 0x120 DUP2 DUP2 MSTORE POP POP PUSH0 PUSH0 PUSH0 PUSH2 0x100 EXP DUP2 SLOAD DUP2 PUSH1 0xFF MUL NOT AND SWAP1 DUP4 PUSH1 0x4 DUP2 GT ISZERO PUSH2 0x39B JUMPI PUSH2 0x39A PUSH2 0x7D3 JUMP JUMPDEST JUMPDEST MUL OR SWAP1 SSTORE POP POP POP POP POP POP PUSH2 0x800 JUMP JUMPDEST PUSH0 PUSH0 REVERT JUMPDEST PUSH0 PUSH20 0xFFFFFFFFFFFFFFFFFFFFFFFFFFFFFFFFFFFFFFFF DUP3 AND SWAP1 POP SWAP2 SWAP1 POP JUMP JUMPDEST PUSH0 PUSH2 0x3D7 DUP3 PUSH2 0x3AE JUMP JUMPDEST SWAP1 POP SWAP2 SWAP1 POP JUMP JUMPDEST PUSH2 0x3E7 DUP2 PUSH2 0x3CD JUMP JUMPDEST DUP2 EQ PUSH2 0x3F1 JUMPI PUSH0 PUSH0 REVERT JUMPDEST POP JUMP JUMPDEST PUSH0 DUP2 MLOAD SWAP1 POP PUSH2 0x402 DUP2 PUSH2 0x3DE JUMP JUMPDEST SWAP3 SWAP2 POP POP JUMP JUMPDEST PUSH0 DUP2 SWAP1 POP SWAP2 SWAP1 POP JUMP JUMPDEST PUSH2 0x41A DUP2 PUSH2 0x408 JUMP JUMPDEST DUP2 EQ PUSH2 0x424 JUMPI PUSH0 PUSH0 REVERT JUMPDEST POP JUMP JUMPDEST PUSH0 DUP2 MLOAD SWAP1 POP PUSH2 0x435 DUP2 PUSH2 0x411 JUMP JUMPDEST SWAP3 SWAP2 POP POP JUMP JUMPDEST PUSH0 PUSH0 PUSH0 PUSH0 PUSH0 PUSH1 0xA0 DUP7 DUP9 SUB SLT ISZERO PUSH2 0x454 JUMPI PUSH2 0x453 PUSH2 0x3AA JUMP JUMPDEST JUMPDEST PUSH0 PUSH2 0x461 DUP9 DUP3 DUP10 ADD PUSH2 0x3F4 JUMP JUMPDEST SWAP6 POP POP PUSH1 0x20 PUSH2 0x472 DUP9 DUP3 DUP10 ADD PUSH2 0x3F4 JUMP JUMPDEST SWAP5 POP POP PUSH1 0x40 PUSH2 0x483 DUP9 DUP3 DUP10 ADD PUSH2 0x427 JUMP JUMPDEST SWAP4 POP POP PUSH1 0x60 PUSH2 0x494 DUP9 DUP3 DUP10 ADD PUSH2 0x427 JUMP JUMPDEST SWAP3 POP POP PUSH1 0x80 PUSH2 0x4A5 DUP9 DUP3 DUP10 ADD PUSH2 0x427 JUMP JUMPDEST SWAP2 POP POP SWAP3 SWAP6 POP SWAP3 SWAP6 SWAP1 SWAP4 POP JUMP JUMPDEST PUSH0 DUP3 DUP3 MSTORE PUSH1 0x20 DUP3 ADD SWAP1 POP SWAP3 SWAP2 POP POP JUMP JUMPDEST PUSH32 0x496E76616C69642073656C6C6572000000000000000000000000000000000000 PUSH0 DUP3 ADD MSTORE POP JUMP JUMPDEST PUSH0 PUSH2 0x4F6 PUSH1 0xE DUP4 PUSH2 0x4B2 JUMP JUMPDEST SWAP2 POP PUSH2 0x501 DUP3 PUSH2 0x4C2 JUMP JUMPDEST PUSH1 0x20 DUP3 ADD SWAP1 POP SWAP2 SWAP1 POP JUMP JUMPDEST PUSH0 PUSH1 0x20 DUP3 ADD SWAP1 POP DUP2 DUP2 SUB PUSH0 DUP4 ADD MSTORE PUSH2 0x523 DUP2 PUSH2 0x4EA JUMP JUMPDEST SWAP1 POP SWAP2 SWAP1 POP JUMP JUMPDEST PUSH32 0x496E76616C696420617262697465720000000000000000000000000000000000 PUSH0 DUP3 ADD MSTORE POP JUMP JUMPDEST PUSH0 PUSH2 0x55E PUSH1 0xF DUP4 PUSH2 0x4B2 JUMP JUMPDEST SWAP2 POP PUSH2 0x569 DUP3 PUSH2 0x52A JUMP JUMPDEST PUSH1 0x20 DUP3 ADD SWAP1 POP SWAP2 SWAP1 POP JUMP JUMPDEST PUSH0 PUSH1 0x20 DUP3 ADD SWAP1 POP DUP2 DUP2 SUB PUSH0 DUP4 ADD MSTORE PUSH2 0x58B DUP2 PUSH2 0x552 JUMP JUMPDEST SWAP1 POP SWAP2 SWAP1 POP JUMP JUMPDEST PUSH32 0x42757965722063616E6E6F742062652073656C6C657200000000000000000000 PUSH0 DUP3 ADD MSTORE POP JUMP JUMPDEST PUSH0 PUSH2 0x5C6 PUSH1 0x16 DUP4 PUSH2 0x4B2 JUMP JUMPDEST SWAP2 POP PUSH2 0x5D1 DUP3 PUSH2 0x592 JUMP JUMPDEST PUSH1 0x20 DUP3 ADD SWAP1 POP SWAP2 SWAP1 POP JUMP JUMPDEST PUSH0 PUSH1 0x20 DUP3 ADD SWAP1 POP DUP2 DUP2 SUB PUSH0 DUP4 ADD MSTORE PUSH2 0x5F3 DUP2 PUSH2 0x5BA JUMP JUMPDEST SWAP1 POP SWAP2 SWAP1 POP JUMP JUMPDEST PUSH32 0x4172626974657220636F6E666C69637400000000000000000000000000000000 PUSH0 DUP3 ADD MSTORE POP JUMP JUMPDEST PUSH0 PUSH2 0x62E PUSH1 0x10 DUP4 PUSH2 0x4B2 JUMP JUMPDEST SWAP2 POP PUSH2 0x639 DUP3 PUSH2 0x5FA JUMP JUMPDEST PUSH1 0x20 DUP3 ADD SWAP1 POP SWAP2 SWAP1 POP JUMP JUMPDEST PUSH0 PUSH1 0x20 DUP3 ADD SWAP1 POP DUP2 DUP2 SUB PUSH0 DUP4 ADD MSTORE PUSH2 0x65B DUP2 PUSH2 0x622 JUMP JUMPDEST SWAP1 POP SWAP2 SWAP1 POP JUMP JUMPDEST PUSH32 0x5072696365206D757374206265203E2030000000000000000000000000000000 PUSH0 DUP3 ADD MSTORE POP JUMP JUMPDEST PUSH0 PUSH2 0x696 PUSH1 0x11 DUP4 PUSH2 0x4B2 JUMP JUMPDEST SWAP2 POP PUSH2 0x6A1 DUP3 PUSH2 0x662 JUMP JUMPDEST PUSH1 0x20 DUP3 ADD SWAP1 POP SWAP2 SWAP1 POP JUMP JUMPDEST PUSH0 PUSH1 0x20 DUP3 ADD SWAP1 POP DUP2 DUP2 SUB PUSH0 DUP4 ADD MSTORE PUSH2 0x6C3 DUP2 PUSH2 0x68A JUMP JUMPDEST SWAP1 POP SWAP2 SWAP1 POP JUMP JUMPDEST PUSH32 0x4D61782061726269746572206665652069732031302500000000000000000000 PUSH0 DUP3 ADD MSTORE POP JUMP JUMPDEST PUSH0 PUSH2 0x6FE PUSH1 0x16 DUP4 PUSH2 0x4B2 JUMP JUMPDEST SWAP2 POP PUSH2 0x709 DUP3 PUSH2 0x6CA JUMP JUMPDEST PUSH1 0x20 DUP3 ADD SWAP1 POP SWAP2 SWAP1 POP JUMP JUMPDEST PUSH0 PUSH1 0x20 DUP3 ADD SWAP1 POP DUP2 DUP2 SUB PUSH0 DUP4 ADD MSTORE PUSH2 0x72B DUP2 PUSH2 0x6F2 JUMP JUMPDEST SWAP1 POP SWAP2 SWAP1 POP JUMP JUMPDEST PUSH32 0x4E487B7100000000000000000000000000000000000000000000000000000000 PUSH0 MSTORE PUSH1 0x11 PUSH1 0x4 MSTORE PUSH1 0x24 PUSH0 REVERT JUMPDEST PUSH0 PUSH2 0x769 DUP3 PUSH2 0x408 JUMP JUMPDEST SWAP2 POP PUSH2 0x774 DUP4 PUSH2 0x408 JUMP JUMPDEST SWAP3 POP DUP3 DUP3 MUL PUSH2 0x782 DUP2 PUSH2 0x408 JUMP JUMPDEST SWAP2 POP DUP3 DUP3 DIV DUP5 EQ DUP4 ISZERO OR PUSH2 0x799 JUMPI PUSH2 0x798 PUSH2 0x732 JUMP JUMPDEST JUMPDEST POP SWAP3 SWAP2 POP POP JUMP JUMPDEST PUSH0 PUSH2 0x7AA DUP3 PUSH2 0x408 JUMP JUMPDEST SWAP2 POP PUSH2 0x7B5 DUP4 PUSH2 0x408 JUMP JUMPDEST SWAP3 POP DUP3 DUP3 ADD SWAP1 POP DUP1 DUP3 GT ISZERO PUSH2 0x7CD JUMPI PUSH2 0x7CC PUSH2 0x732 JUMP JUMPDEST JUMPDEST SWAP3 SWAP2 POP POP JUMP JUMPDEST PUSH32 0x4E487B7100000000000000000000000000000000000000000000000000000000 PUSH0 MSTORE PUSH1 0x21 PUSH1 0x4 MSTORE PUSH1 0x24 PUSH0 REVERT JUMPDEST PUSH1 0x80 MLOAD PUSH1 0xA0 MLOAD PUSH1 0xC0 MLOAD PUSH1 0xE0 MLOAD PUSH2 0x100 MLOAD PUSH2 0x120 MLOAD PUSH2 0x164C PUSH2 0x8F6 PUSH0 CODECOPY PUSH0 DUP2 DUP2 PUSH2 0x650 ADD MSTORE PUSH2 0x97E ADD MSTORE PUSH0 DUP2 DUP2 PUSH2 0x390 ADD MSTORE DUP2 DUP2 PUSH2 0x3B6 ADD MSTORE DUP2 DUP2 PUSH2 0xD39 ADD MSTORE DUP2 DUP2 PUSH2 0x1104 ADD MSTORE PUSH2 0x11C9 ADD MSTORE PUSH0 DUP2 DUP2 PUSH2 0xC0A ADD MSTORE DUP2 DUP2 PUSH2 0xFFC ADD MSTORE DUP2 DUP2 PUSH2 0x1023 ADD MSTORE PUSH2 0x11A8 ADD MSTORE PUSH0 DUP2 DUP2 PUSH2 0x86C ADD MSTORE DUP2 DUP2 PUSH2 0xAA2 ADD MSTORE DUP2 DUP2 PUSH2 0x1187 ADD MSTORE PUSH2 0x1210 ADD MSTORE PUSH0 DUP2 DUP2 PUSH2 0x340 ADD MSTORE DUP2 DUP2 PUSH2 0x58D ADD MSTORE DUP2 DUP2 PUSH2 0x751 ADD MSTORE DUP2 DUP2 PUSH2 0xA27 ADD MSTORE PUSH2 0x1166 ADD MSTORE PUSH0 DUP2 DUP2 PUSH2 0x3E6 ADD MSTORE DUP2 DUP2 PUSH2 0x51E ADD MSTORE DUP2 DUP2 PUSH2 0x6FA ADD MSTORE DUP2 DUP2 PUSH2 0x848 ADD MSTORE DUP2 DUP2 PUSH2 0xA01 ADD MSTORE DUP2 DUP2 PUSH2 0xC2E ADD MSTORE DUP2 DUP2 PUSH2 0xDC0 ADD MSTORE DUP2 DUP2 PUSH2 0xE2F ADD MSTORE DUP2 DUP2 PUSH2 0xEF2 ADD MSTORE DUP2 DUP2 PUSH2 0x10AB ADD MSTORE PUSH2 0x1145 ADD MSTORE PUSH2 0x164C PUSH0 RETURN INVALID PUSH1 0x80 PUSH1 0x40 MSTORE PUSH1 0x4 CALLDATASIZE LT PUSH2 0xF2 JUMPI PUSH0 CALLDATALOAD PUSH1 0xE0 SHR DUP1 PUSH4 0x6DAA2D44 GT PUSH2 0x89 JUMPI DUP1 PUSH4 0xB5545A3C GT PUSH2 0x58 JUMPI DUP1 PUSH4 0xB5545A3C EQ PUSH2 0x2C4 JUMPI DUP1 PUSH4 0xB60D4288 EQ PUSH2 0x2DA JUMPI DUP1 PUSH4 0xF5660660 EQ PUSH2 0x2E4 JUMPI DUP1 PUSH4 0xFE25E00A EQ PUSH2 0x314 JUMPI PUSH2 0xF2 JUMP JUMPDEST DUP1 PUSH4 0x6DAA2D44 EQ PUSH2 0x232 JUMPI DUP1 PUSH4 0x7150D8AE EQ PUSH2 0x248 JUMPI DUP1 PUSH4 0x89E1E82A EQ PUSH2 0x272 JUMPI DUP1 PUSH4 0xA035B1FE EQ PUSH2 0x29A JUMPI PUSH2 0xF2 JUMP JUMPDEST DUP1 PUSH4 0x29DCB0CF GT PUSH2 0xC5 JUMPI DUP1 PUSH4 0x29DCB0CF EQ PUSH2 0x19E JUMPI DUP1 PUSH4 0x2A2D64FF EQ PUSH2 0x1C8 JUMPI DUP1 PUSH4 0x5E10177B EQ PUSH2 0x1F2 JUMPI DUP1 PUSH4 0x63C0437E EQ PUSH2 0x208 JUMPI PUSH2 0xF2 JUMP JUMPDEST DUP1 PUSH4 0x8551A53 EQ PUSH2 0xF6 JUMPI DUP1 PUSH4 0xC3F6ACF EQ PUSH2 0x120 JUMPI DUP1 PUSH4 0x12065FE0 EQ PUSH2 0x14A JUMPI DUP1 PUSH4 0x1865C57D EQ PUSH2 0x174 JUMPI JUMPDEST PUSH0 PUSH0 REVERT JUMPDEST CALLVALUE DUP1 ISZERO PUSH2 0x101 JUMPI PUSH0 PUSH0 REVERT JUMPDEST POP PUSH2 0x10A PUSH2 0x33E JUMP JUMPDEST PUSH1 0x40 MLOAD PUSH2 0x117 SWAP2 SWAP1 PUSH2 0x1271 JUMP JUMPDEST PUSH1 0x40 MLOAD DUP1 SWAP2 SUB SWAP1 RETURN JUMPDEST CALLVALUE DUP1 ISZERO PUSH2 0x12B JUMPI PUSH0 PUSH0 REVERT JUMPDEST POP PUSH2 0x134 PUSH2 0x362 JUMP JUMPDEST PUSH1 0x40 MLOAD PUSH2 0x141 SWAP2 SWAP1 PUSH2 0x12FD JUMP JUMPDEST PUSH1 0x40 MLOAD DUP1 SWAP2 SUB SWAP1 RETURN JUMPDEST CALLVALUE DUP1 ISZERO PUSH2 0x155 JUMPI PUSH0 PUSH0 REVERT JUMPDEST POP PUSH2 0x15E PUSH2 0x373 JUMP JUMPDEST PUSH1 0x40 MLOAD PUSH2 0x16B SWAP2 SWAP1 PUSH2 0x132E JUMP JUMPDEST PUSH1 0x40 MLOAD DUP1 SWAP2 SUB SWAP1 RETURN JUMPDEST CALLVALUE DUP1 ISZERO PUSH2 0x17F JUMPI PUSH0 PUSH0 REVERT JUMPDEST POP PUSH2 0x188 PUSH2 0x37A JUMP JUMPDEST PUSH1 0x40 MLOAD PUSH2 0x195 SWAP2 SWAP1 PUSH2 0x12FD JUMP JUMPDEST PUSH1 0x40 MLOAD DUP1 SWAP2 SUB SWAP1 RETURN JUMPDEST CALLVALUE DUP1 ISZERO PUSH2 0x1A9 JUMPI PUSH0 PUSH0 REVERT JUMPDEST POP PUSH2 0x1B2 PUSH2 0x38E JUMP JUMPDEST PUSH1 0x40 MLOAD PUSH2 0x1BF SWAP2 SWAP1 PUSH2 0x132E JUMP JUMPDEST PUSH1 0x40 MLOAD DUP1 SWAP2 SUB SWAP1 RETURN JUMPDEST CALLVALUE DUP1 ISZERO PUSH2 0x1D3 JUMPI PUSH0 PUSH0 REVERT JUMPDEST POP PUSH2 0x1DC PUSH2 0x3B2 JUMP JUMPDEST PUSH1 0x40 MLOAD PUSH2 0x1E9 SWAP2 SWAP1 PUSH2 0x135F JUMP JUMPDEST PUSH1 0x40 MLOAD DUP1 SWAP2 SUB SWAP1 RETURN JUMPDEST CALLVALUE DUP1 ISZERO PUSH2 0x1FD JUMPI PUSH0 PUSH0 REVERT JUMPDEST POP PUSH2 0x206 PUSH2 0x3E4 JUMP JUMPDEST STOP JUMPDEST CALLVALUE DUP1 ISZERO PUSH2 0x213 JUMPI PUSH0 PUSH0 REVERT JUMPDEST POP PUSH2 0x21C PUSH2 0x64E JUMP JUMPDEST PUSH1 0x40 MLOAD PUSH2 0x229 SWAP2 SWAP1 PUSH2 0x132E JUMP JUMPDEST PUSH1 0x40 MLOAD DUP1 SWAP2 SUB SWAP1 RETURN JUMPDEST CALLVALUE DUP1 ISZERO PUSH2 0x23D JUMPI PUSH0 PUSH0 REVERT JUMPDEST POP PUSH2 0x246 PUSH2 0x672 JUMP JUMPDEST STOP JUMPDEST CALLVALUE DUP1 ISZERO PUSH2 0x253 JUMPI PUSH0 PUSH0 REVERT JUMPDEST POP PUSH2 0x25C PUSH2 0x846 JUMP JUMPDEST PUSH1 0x40 MLOAD PUSH2 0x269 SWAP2 SWAP1 PUSH2 0x1271 JUMP JUMPDEST PUSH1 0x40 MLOAD DUP1 SWAP2 SUB SWAP1 RETURN JUMPDEST CALLVALUE DUP1 ISZERO PUSH2 0x27D JUMPI PUSH0 PUSH0 REVERT JUMPDEST POP PUSH2 0x298 PUSH1 0x4 DUP1 CALLDATASIZE SUB DUP2 ADD SWAP1 PUSH2 0x293 SWAP2 SWAP1 PUSH2 0x13B1 JUMP JUMPDEST PUSH2 0x86A JUMP JUMPDEST STOP JUMPDEST CALLVALUE DUP1 ISZERO PUSH2 0x2A5 JUMPI PUSH0 PUSH0 REVERT JUMPDEST POP PUSH2 0x2AE PUSH2 0xC08 JUMP JUMPDEST PUSH1 0x40 MLOAD PUSH2 0x2BB SWAP2 SWAP1 PUSH2 0x132E JUMP JUMPDEST PUSH1 0x40 MLOAD DUP1 SWAP2 SUB SWAP1 RETURN JUMPDEST CALLVALUE DUP1 ISZERO PUSH2 0x2CF JUMPI PUSH0 PUSH0 REVERT JUMPDEST POP PUSH2 0x2D8 PUSH2 0xC2C JUMP JUMPDEST STOP JUMPDEST PUSH2 0x2E2 PUSH2 0xEF0 JUMP JUMPDEST STOP JUMPDEST CALLVALUE DUP1 ISZERO PUSH2 0x2EF JUMPI PUSH0 PUSH0 REVERT JUMPDEST POP PUSH2 0x2F8 PUSH2 0x113C JUMP JUMPDEST PUSH1 0x40 MLOAD PUSH2 0x30B SWAP8 SWAP7 SWAP6 SWAP5 SWAP4 SWAP3 SWAP2 SWAP1 PUSH2 0x13DC JUMP JUMPDEST PUSH1 0x40 MLOAD DUP1 SWAP2 SUB SWAP1 RETURN JUMPDEST CALLVALUE DUP1 ISZERO PUSH2 0x31F JUMPI PUSH0 PUSH0 REVERT JUMPDEST POP PUSH2 0x328 PUSH2 0x120E JUMP JUMPDEST PUSH1 0x40 MLOAD PUSH2 0x335 SWAP2 SWAP1 PUSH2 0x1271 JUMP JUMPDEST PUSH1 0x40 MLOAD DUP1 SWAP2 SUB SWAP1 RETURN JUMPDEST PUSH32 0x0 DUP2 JUMP JUMPDEST PUSH0 PUSH0 SWAP1 SLOAD SWAP1 PUSH2 0x100 EXP SWAP1 DIV PUSH1 0xFF AND DUP2 JUMP JUMPDEST PUSH0 SELFBALANCE SWAP1 POP SWAP1 JUMP JUMPDEST PUSH0 PUSH0 PUSH0 SWAP1 SLOAD SWAP1 PUSH2 0x100 EXP SWAP1 DIV PUSH1 0xFF AND SWAP1 POP SWAP1 JUMP JUMPDEST PUSH32 0x0 DUP2 JUMP JUMPDEST PUSH0 TIMESTAMP PUSH32 0x0 PUSH2 0x3DF SWAP2 SWAP1 PUSH2 0x1476 JUMP JUMPDEST SWAP1 POP SWAP1 JUMP JUMPDEST PUSH32 0x0 PUSH20 0xFFFFFFFFFFFFFFFFFFFFFFFFFFFFFFFFFFFFFFFF AND CALLER PUSH20 0xFFFFFFFFFFFFFFFFFFFFFFFFFFFFFFFFFFFFFFFF AND EQ PUSH2 0x469 JUMPI PUSH1 0x40 MLOAD PUSH32 0xC11393B100000000000000000000000000000000000000000000000000000000 DUP2 MSTORE PUSH1 0x4 ADD PUSH1 0x40 MLOAD DUP1 SWAP2 SUB SWAP1 REVERT JUMPDEST PUSH1 0x1 DUP1 PUSH1 0x4 DUP2 GT ISZERO PUSH2 0x47E JUMPI PUSH2 0x47D PUSH2 0x128A JUMP JUMPDEST JUMPDEST PUSH0 PUSH0 SWAP1 SLOAD SWAP1 PUSH2 0x100 EXP SWAP1 DIV PUSH1 0xFF AND PUSH1 0x4 DUP2 GT ISZERO PUSH2 0x49E JUMPI PUSH2 0x49D PUSH2 0x128A JUMP JUMPDEST JUMPDEST EQ PUSH2 0x4EF JUMPI DUP1 PUSH0 PUSH0 SWAP1 SLOAD SWAP1 PUSH2 0x100 EXP SWAP1 DIV PUSH1 0xFF AND PUSH1 0x40 MLOAD PUSH32 0x33AE943B00000000000000000000000000000000000000000000000000000000 DUP2 MSTORE PUSH1 0x4 ADD PUSH2 0x4E6 SWAP3 SWAP2 SWAP1 PUSH2 0x14B6 JUMP JUMPDEST PUSH1 0x40 MLOAD DUP1 SWAP2 SUB SWAP1 REVERT JUMPDEST PUSH1 0x2 PUSH0 PUSH0 PUSH2 0x100 EXP DUP2 SLOAD DUP2 PUSH1 0xFF MUL NOT AND SWAP1 DUP4 PUSH1 0x4 DUP2 GT ISZERO PUSH2 0x513 JUMPI PUSH2 0x512 PUSH2 0x128A JUMP JUMPDEST JUMPDEST MUL OR SWAP1 SSTORE POP PUSH0 SELFBALANCE SWAP1 POP PUSH32 0x0 PUSH20 0xFFFFFFFFFFFFFFFFFFFFFFFFFFFFFFFFFFFFFFFF AND PUSH32 0x28720C586A6E736146008F9BF260B09F29B8DCC37314FED637613EA3AEC614F8 DUP3 PUSH1 0x40 MLOAD PUSH2 0x582 SWAP2 SWAP1 PUSH2 0x132E JUMP JUMPDEST PUSH1 0x40 MLOAD DUP1 SWAP2 SUB SWAP1 LOG2 PUSH0 PUSH32 0x0 PUSH20 0xFFFFFFFFFFFFFFFFFFFFFFFFFFFFFFFFFFFFFFFF AND DUP3 PUSH1 0x40 MLOAD PUSH2 0x5CF SWAP1 PUSH2 0x150A JUMP JUMPDEST PUSH0 PUSH1 0x40 MLOAD DUP1 DUP4 SUB DUP2 DUP6 DUP8 GAS CALL SWAP3 POP POP POP RETURNDATASIZE DUP1 PUSH0 DUP2 EQ PUSH2 0x609 JUMPI PUSH1 0x40 MLOAD SWAP2 POP PUSH1 0x1F NOT PUSH1 0x3F RETURNDATASIZE ADD AND DUP3 ADD PUSH1 0x40 MSTORE RETURNDATASIZE DUP3 MSTORE RETURNDATASIZE PUSH0 PUSH1 0x20 DUP5 ADD RETURNDATACOPY PUSH2 0x60E JUMP JUMPDEST PUSH1 0x60 SWAP2 POP JUMPDEST POP POP SWAP1 POP DUP1 PUSH2 0x649 JUMPI PUSH1 0x40 MLOAD PUSH32 0x3EED8B9C00000000000000000000000000000000000000000000000000000000 DUP2 MSTORE PUSH1 0x4 ADD PUSH1 0x40 MLOAD DUP1 SWAP2 SUB SWAP1 REVERT JUMPDEST POP POP POP JUMP JUMPDEST PUSH32 0x0 DUP2 JUMP JUMPDEST PUSH1 0x1 DUP1 PUSH1 0x4 DUP2 GT ISZERO PUSH2 0x687 JUMPI PUSH2 0x686 PUSH2 0x128A JUMP JUMPDEST JUMPDEST PUSH0 PUSH0 SWAP1 SLOAD SWAP1 PUSH2 0x100 EXP SWAP1 DIV PUSH1 0xFF AND PUSH1 0x4 DUP2 GT ISZERO PUSH2 0x6A7 JUMPI PUSH2 0x6A6 PUSH2 0x128A JUMP JUMPDEST JUMPDEST EQ PUSH2 0x6F8 JUMPI DUP1 PUSH0 PUSH0 SWAP1 SLOAD SWAP1 PUSH2 0x100 EXP SWAP1 DIV PUSH1 0xFF AND PUSH1 0x40 MLOAD PUSH32 0x33AE943B00000000000000000000000000000000000000000000000000000000 DUP2 MSTORE PUSH1 0x4 ADD PUSH2 0x6EF SWAP3 SWAP2 SWAP1 PUSH2 0x14B6 JUMP JUMPDEST PUSH1 0x40 MLOAD DUP1 SWAP2 SUB SWAP1 REVERT JUMPDEST PUSH32 0x0 PUSH20 0xFFFFFFFFFFFFFFFFFFFFFFFFFFFFFFFFFFFFFFFF AND CALLER PUSH20 0xFFFFFFFFFFFFFFFFFFFFFFFFFFFFFFFFFFFFFFFF AND EQ ISZERO DUP1 ISZERO PUSH2 0x7A0 JUMPI POP PUSH32 0x0 PUSH20 0xFFFFFFFFFFFFFFFFFFFFFFFFFFFFFFFFFFFFFFFF AND CALLER PUSH20 0xFFFFFFFFFFFFFFFFFFFFFFFFFFFFFFFFFFFFFFFF AND EQ ISZERO JUMPDEST ISZERO PUSH2 0x7D7 JUMPI PUSH1 0x40 MLOAD PUSH32 0xC11393B100000000000000000000000000000000000000000000000000000000 DUP2 MSTORE PUSH1 0x4 ADD PUSH1 0x40 MLOAD DUP1 SWAP2 SUB SWAP1 REVERT JUMPDEST PUSH1 0x4 PUSH0 PUSH0 PUSH2 0x100 EXP DUP2 SLOAD DUP2 PUSH1 0xFF MUL NOT AND SWAP1 DUP4 PUSH1 0x4 DUP2 GT ISZERO PUSH2 0x7FB JUMPI PUSH2 0x7FA PUSH2 0x128A JUMP JUMPDEST JUMPDEST MUL OR SWAP1 SSTORE POP CALLER PUSH20 0xFFFFFFFFFFFFFFFFFFFFFFFFFFFFFFFFFFFFFFFF AND PUSH32 0xB3CD97B16A08A5C77357C276D248827AD32DFD56060F7C55D6255537BA3D962 PUSH1 0x40 MLOAD PUSH1 0x40 MLOAD DUP1 SWAP2 SUB SWAP1 LOG2 POP JUMP JUMPDEST PUSH32 0x0 DUP2 JUMP JUMPDEST PUSH32 0x0 PUSH20 0xFFFFFFFFFFFFFFFFFFFFFFFFFFFFFFFFFFFFFFFF AND CALLER PUSH20 0xFFFFFFFFFFFFFFFFFFFFFFFFFFFFFFFFFFFFFFFF AND EQ PUSH2 0x8EF JUMPI PUSH1 0x40 MLOAD PUSH32 0x297A055500000000000000000000000000000000000000000000000000000000 DUP2 MSTORE PUSH1 0x4 ADD PUSH1 0x40 MLOAD DUP1 SWAP2 SUB SWAP1 REVERT JUMPDEST PUSH1 0x4 DUP1 PUSH1 0x4 DUP2 GT ISZERO PUSH2 0x904 JUMPI PUSH2 0x903 PUSH2 0x128A JUMP JUMPDEST JUMPDEST PUSH0 PUSH0 SWAP1 SLOAD SWAP1 PUSH2 0x100 EXP SWAP1 DIV PUSH1 0xFF AND PUSH1 0x4 DUP2 GT ISZERO PUSH2 0x924 JUMPI PUSH2 0x923 PUSH2 0x128A JUMP JUMPDEST JUMPDEST EQ PUSH2 0x975 JUMPI DUP1 PUSH0 PUSH0 SWAP1 SLOAD SWAP1 PUSH2 0x100 EXP SWAP1 DIV PUSH1 0xFF AND PUSH1 0x40 MLOAD PUSH32 0x33AE943B00000000000000000000000000000000000000000000000000000000 DUP2 MSTORE PUSH1 0x4 ADD PUSH2 0x96C SWAP3 SWAP2 SWAP1 PUSH2 0x14B6 JUMP JUMPDEST PUSH1 0x40 MLOAD DUP1 SWAP2 SUB SWAP1 REVERT JUMPDEST PUSH0 SELFBALANCE SWAP1 POP PUSH0 PUSH1 0x64 PUSH32 0x0 DUP4 PUSH2 0x9A8 SWAP2 SWAP1 PUSH2 0x151E JUMP JUMPDEST PUSH2 0x9B2 SWAP2 SWAP1 PUSH2 0x158C JUMP JUMPDEST SWAP1 POP PUSH0 DUP2 DUP4 PUSH2 0x9C1 SWAP2 SWAP1 PUSH2 0x15BC JUMP JUMPDEST SWAP1 POP DUP5 PUSH2 0x9CF JUMPI PUSH1 0x3 PUSH2 0x9D2 JUMP JUMPDEST PUSH1 0x2 JUMPDEST PUSH0 PUSH0 PUSH2 0x100 EXP DUP2 SLOAD DUP2 PUSH1 0xFF MUL NOT AND SWAP1 DUP4 PUSH1 0x4 DUP2 GT ISZERO PUSH2 0x9F4 JUMPI PUSH2 0x9F3 PUSH2 0x128A JUMP JUMPDEST JUMPDEST MUL OR SWAP1 SSTORE POP PUSH0 DUP6 PUSH2 0xA25 JUMPI PUSH32 0x0 PUSH2 0xA47 JUMP JUMPDEST PUSH32 0x0 JUMPDEST SWAP1 POP DUP1 PUSH20 0xFFFFFFFFFFFFFFFFFFFFFFFFFFFFFFFFFFFFFFFF AND PUSH32 0xF396531FAD1D4DC2CD92386CDEA800C92A507F8FE1BDB80313EB32A57481B1DC DUP4 PUSH1 0x40 MLOAD PUSH2 0xA8F SWAP2 SWAP1 PUSH2 0x132E JUMP JUMPDEST PUSH1 0x40 MLOAD DUP1 SWAP2 SUB SWAP1 LOG2 PUSH0 DUP4 GT ISZERO PUSH2 0xB60 JUMPI PUSH0 PUSH32 0x0 PUSH20 0xFFFFFFFFFFFFFFFFFFFFFFFFFFFFFFFFFFFFFFFF AND DUP5 PUSH1 0x40 MLOAD PUSH2 0xAE4 SWAP1 PUSH2 0x150A JUMP JUMPDEST PUSH0 PUSH1 0x40 MLOAD DUP1 DUP4 SUB DUP2 DUP6 DUP8 GAS CALL SWAP3 POP POP POP RETURNDATASIZE DUP1 PUSH0 DUP2 EQ PUSH2 0xB1E JUMPI PUSH1 0x40 MLOAD SWAP2 POP PUSH1 0x1F NOT PUSH1 0x3F RETURNDATASIZE ADD AND DUP3 ADD PUSH1 0x40 MSTORE RETURNDATASIZE DUP3 MSTORE RETURNDATASIZE PUSH0 PUSH1 0x20 DUP5 ADD RETURNDATACOPY PUSH2 0xB23 JUMP JUMPDEST PUSH1 0x60 SWAP2 POP JUMPDEST POP POP SWAP1 POP DUP1 PUSH2 0xB5E JUMPI PUSH1 0x40 MLOAD PUSH32 0x3EED8B9C00000000000000000000000000000000000000000000000000000000 DUP2 MSTORE PUSH1 0x4 ADD PUSH1 0x40 MLOAD DUP1 SWAP2 SUB SWAP1 REVERT JUMPDEST POP JUMPDEST PUSH0 DUP2 PUSH20 0xFFFFFFFFFFFFFFFFFFFFFFFFFFFFFFFFFFFFFFFF AND DUP4 PUSH1 0x40 MLOAD PUSH2 0xB85 SWAP1 PUSH2 0x150A JUMP JUMPDEST PUSH0 PUSH1 0x40 MLOAD DUP1 DUP4 SUB DUP2 DUP6 DUP8 GAS CALL SWAP3 POP POP POP RETURNDATASIZE DUP1 PUSH0 DUP2 EQ PUSH2 0xBBF JUMPI PUSH1 0x40 MLOAD SWAP2 POP PUSH1 0x1F NOT PUSH1 0x3F RETURNDATASIZE ADD AND DUP3 ADD PUSH1 0x40 MSTORE RETURNDATASIZE DUP3 MSTORE RETURNDATASIZE PUSH0 PUSH1 0x20 DUP5 ADD RETURNDATACOPY PUSH2 0xBC4 JUMP JUMPDEST PUSH1 0x60 SWAP2 POP JUMPDEST POP POP SWAP1 POP DUP1 PUSH2 0xBFF JUMPI PUSH1 0x40 MLOAD PUSH32 0x3EED8B9C00000000000000000000000000000000000000000000000000000000 DUP2 MSTORE PUSH1 0x4 ADD PUSH1 0x40 MLOAD DUP1 SWAP2 SUB SWAP1 REVERT JUMPDEST POP POP POP POP POP POP POP JUMP JUMPDEST PUSH32 0x0 DUP2 JUMP JUMPDEST PUSH32 0x0 PUSH20 0xFFFFFFFFFFFFFFFFFFFFFFFFFFFFFFFFFFFFFFFF AND CALLER PUSH20 0xFFFFFFFFFFFFFFFFFFFFFFFFFFFFFFFFFFFFFFFF AND EQ PUSH2 0xCB1 JUMPI PUSH1 0x40 MLOAD PUSH32 0xC11393B100000000000000000000000000000000000000000000000000000000 DUP2 MSTORE PUSH1 0x4 ADD PUSH1 0x40 MLOAD DUP1 SWAP2 SUB SWAP1 REVERT JUMPDEST PUSH1 0x1 DUP1 PUSH1 0x4 DUP2 GT ISZERO PUSH2 0xCC6 JUMPI PUSH2 0xCC5 PUSH2 0x128A JUMP JUMPDEST JUMPDEST PUSH0 PUSH0 SWAP1 SLOAD SWAP1 PUSH2 0x100 EXP SWAP1 DIV PUSH1 0xFF AND PUSH1 0x4 DUP2 GT ISZERO PUSH2 0xCE6 JUMPI PUSH2 0xCE5 PUSH2 0x128A JUMP JUMPDEST JUMPDEST EQ PUSH2 0xD37 JUMPI DUP1 PUSH0 PUSH0 SWAP1 SLOAD SWAP1 PUSH2 0x100 EXP SWAP1 DIV PUSH1 0xFF AND PUSH1 0x40 MLOAD PUSH32 0x33AE943B00000000000000000000000000000000000000000000000000000000 DUP2 MSTORE PUSH1 0x4 ADD PUSH2 0xD2E SWAP3 SWAP2 SWAP1 PUSH2 0x14B6 JUMP JUMPDEST PUSH1 0x40 MLOAD DUP1 SWAP2 SUB SWAP1 REVERT JUMPDEST PUSH32 0x0 TIMESTAMP LT ISZERO PUSH2 0xD91 JUMPI PUSH1 0x40 MLOAD PUSH32 0x7C9DFBEE00000000000000000000000000000000000000000000000000000000 DUP2 MSTORE PUSH1 0x4 ADD PUSH1 0x40 MLOAD DUP1 SWAP2 SUB SWAP1 REVERT JUMPDEST PUSH1 0x3 PUSH0 PUSH0 PUSH2 0x100 EXP DUP2 SLOAD DUP2 PUSH1 0xFF MUL NOT AND SWAP1 DUP4 PUSH1 0x4 DUP2 GT ISZERO PUSH2 0xDB5 JUMPI PUSH2 0xDB4 PUSH2 0x128A JUMP JUMPDEST JUMPDEST MUL OR SWAP1 SSTORE POP PUSH0 SELFBALANCE SWAP1 POP PUSH32 0x0 PUSH20 0xFFFFFFFFFFFFFFFFFFFFFFFFFFFFFFFFFFFFFFFF AND PUSH32 0xA171B6942063C6F2800CE40A780EDCE37BAA2B618571B11EEDD1E69E626E7D76 DUP3 PUSH1 0x40 MLOAD PUSH2 0xE24 SWAP2 SWAP1 PUSH2 0x132E JUMP JUMPDEST PUSH1 0x40 MLOAD DUP1 SWAP2 SUB SWAP1 LOG2 PUSH0 PUSH32 0x0 PUSH20 0xFFFFFFFFFFFFFFFFFFFFFFFFFFFFFFFFFFFFFFFF AND DUP3 PUSH1 0x40 MLOAD PUSH2 0xE71 SWAP1 PUSH2 0x150A JUMP JUMPDEST PUSH0 PUSH1 0x40 MLOAD DUP1 DUP4 SUB DUP2 DUP6 DUP8 GAS CALL SWAP3 POP POP POP RETURNDATASIZE DUP1 PUSH0 DUP2 EQ PUSH2 0xEAB JUMPI PUSH1 0x40 MLOAD SWAP2 POP PUSH1 0x1F NOT PUSH1 0x3F RETURNDATASIZE ADD AND DUP3 ADD PUSH1 0x40 MSTORE RETURNDATASIZE DUP3 MSTORE RETURNDATASIZE PUSH0 PUSH1 0x20 DUP5 ADD RETURNDATACOPY PUSH2 0xEB0 JUMP JUMPDEST PUSH1 0x60 SWAP2 POP JUMPDEST POP POP SWAP1 POP DUP1 PUSH2 0xEEB JUMPI PUSH1 0x40 MLOAD PUSH32 0x3EED8B9C00000000000000000000000000000000000000000000000000000000 DUP2 MSTORE PUSH1 0x4 ADD PUSH1 0x40 MLOAD DUP1 SWAP2 SUB SWAP1 REVERT JUMPDEST POP POP POP JUMP JUMPDEST PUSH32 0x0 PUSH20 0xFFFFFFFFFFFFFFFFFFFFFFFFFFFFFFFFFFFFFFFF AND CALLER PUSH20 0xFFFFFFFFFFFFFFFFFFFFFFFFFFFFFFFFFFFFFFFF AND EQ PUSH2 0xF75 JUMPI PUSH1 0x40 MLOAD PUSH32 0xC11393B100000000000000000000000000000000000000000000000000000000 DUP2 MSTORE PUSH1 0x4 ADD PUSH1 0x40 MLOAD DUP1 SWAP2 SUB SWAP1 REVERT JUMPDEST PUSH0 DUP1 PUSH1 0x4 DUP2 GT ISZERO PUSH2 0xF89 JUMPI PUSH2 0xF88 PUSH2 0x128A JUMP JUMPDEST JUMPDEST PUSH0 PUSH0 SWAP1 SLOAD SWAP1 PUSH2 0x100 EXP SWAP1 DIV PUSH1 0xFF AND PUSH1 0x4 DUP2 GT ISZERO PUSH2 0xFA9 JUMPI PUSH2 0xFA8 PUSH2 0x128A JUMP JUMPDEST JUMPDEST EQ PUSH2 0xFFA JUMPI DUP1 PUSH0 PUSH0 SWAP1 SLOAD SWAP1 PUSH2 0x100 EXP SWAP1 DIV PUSH1 0xFF AND PUSH1 0x40 MLOAD PUSH32 0x33AE943B00000000000000000000000000000000000000000000000000000000 DUP2 MSTORE PUSH1 0x4 ADD PUSH2 0xFF1 SWAP3 SWAP2 SWAP1 PUSH2 0x14B6 JUMP JUMPDEST PUSH1 0x40 MLOAD DUP1 SWAP2 SUB SWAP1 REVERT JUMPDEST PUSH32 0x0 CALLVALUE EQ PUSH2 0x1080 JUMPI PUSH32 0x0 CALLVALUE PUSH1 0x40 MLOAD PUSH32 0xEA5EA2E400000000000000000000000000000000000000000000000000000000 DUP2 MSTORE PUSH1 0x4 ADD PUSH2 0x1077 SWAP3 SWAP2 SWAP1 PUSH2 0x15EF JUMP JUMPDEST PUSH1 0x40 MLOAD DUP1 SWAP2 SUB SWAP1 REVERT JUMPDEST PUSH1 0x1 PUSH0 PUSH0 PUSH2 0x100 EXP DUP2 SLOAD DUP2 PUSH1 0xFF MUL NOT AND SWAP1 DUP4 PUSH1 0x4 DUP2 GT ISZERO PUSH2 0x10A4 JUMPI PUSH2 0x10A3 PUSH2 0x128A JUMP JUMPDEST JUMPDEST MUL OR SWAP1 SSTORE POP PUSH32 0x0 PUSH20 0xFFFFFFFFFFFFFFFFFFFFFFFFFFFFFFFFFFFFFFFF AND PUSH32 0xCD909EC339185C4598A4096E174308FBDF136D117F230960F873A2F2E81F63AF CALLVALUE PUSH32 0x0 PUSH1 0x40 MLOAD PUSH2 0x1131 SWAP3 SWAP2 SWAP1 PUSH2 0x15EF JUMP JUMPDEST PUSH1 0x40 MLOAD DUP1 SWAP2 SUB SWAP1 LOG2 POP JUMP JUMPDEST PUSH0 PUSH0 PUSH0 PUSH0 PUSH0 PUSH0 PUSH0 PUSH32 0x0 PUSH32 0x0 PUSH32 0x0 PUSH32 0x0 PUSH32 0x0 PUSH0 PUSH0 SWAP1 SLOAD SWAP1 PUSH2 0x100 EXP SWAP1 DIV PUSH1 0xFF AND SELFBALANCE SWAP7 POP SWAP7 POP SWAP7 POP SWAP7 POP SWAP7 POP SWAP7 POP SWAP7 POP SWAP1 SWAP2 SWAP3 SWAP4 SWAP5 SWAP6 SWAP7 JUMP JUMPDEST PUSH32 0x0 DUP2 JUMP JUMPDEST PUSH0 PUSH20 0xFFFFFFFFFFFFFFFFFFFFFFFFFFFFFFFFFFFFFFFF DUP3 AND SWAP1 POP SWAP2 SWAP1 POP JUMP JUMPDEST PUSH0 PUSH2 0x125B DUP3 PUSH2 0x1232 JUMP JUMPDEST SWAP1 POP SWAP2 SWAP1 POP JUMP JUMPDEST PUSH2 0x126B DUP2 PUSH2 0x1251 JUMP JUMPDEST DUP3 MSTORE POP POP JUMP JUMPDEST PUSH0 PUSH1 0x20 DUP3 ADD SWAP1 POP PUSH2 0x1284 PUSH0 DUP4 ADD DUP5 PUSH2 0x1262 JUMP JUMPDEST SWAP3 SWAP2 POP POP JUMP JUMPDEST PUSH32 0x4E487B7100000000000000000000000000000000000000000000000000000000 PUSH0 MSTORE PUSH1 0x21 PUSH1 0x4 MSTORE PUSH1 0x24 PUSH0 REVERT JUMPDEST PUSH1 0x5 DUP2 LT PUSH2 0x12C8 JUMPI PUSH2 0x12C7 PUSH2 0x128A JUMP JUMPDEST JUMPDEST POP JUMP JUMPDEST PUSH0 DUP2 SWAP1 POP PUSH2 0x12D8 DUP3 PUSH2 0x12B7 JUMP JUMPDEST SWAP2 SWAP1 POP JUMP JUMPDEST PUSH0 PUSH2 0x12E7 DUP3 PUSH2 0x12CB JUMP JUMPDEST SWAP1 POP SWAP2 SWAP1 POP JUMP JUMPDEST PUSH2 0x12F7 DUP2 PUSH2 0x12DD JUMP JUMPDEST DUP3 MSTORE POP POP JUMP JUMPDEST PUSH0 PUSH1 0x20 DUP3 ADD SWAP1 POP PUSH2 0x1310 PUSH0 DUP4 ADD DUP5 PUSH2 0x12EE JUMP JUMPDEST SWAP3 SWAP2 POP POP JUMP JUMPDEST PUSH0 DUP2 SWAP1 POP SWAP2 SWAP1 POP JUMP JUMPDEST PUSH2 0x1328 DUP2 PUSH2 0x1316 JUMP JUMPDEST DUP3 MSTORE POP POP JUMP JUMPDEST PUSH0 PUSH1 0x20 DUP3 ADD SWAP1 POP PUSH2 0x1341 PUSH0 DUP4 ADD DUP5 PUSH2 0x131F JUMP JUMPDEST SWAP3 SWAP2 POP POP JUMP JUMPDEST PUSH0 DUP2 SWAP1 POP SWAP2 SWAP1 POP JUMP JUMPDEST PUSH2 0x1359 DUP2 PUSH2 0x1347 JUMP JUMPDEST DUP3 MSTORE POP POP JUMP JUMPDEST PUSH0 PUSH1 0x20 DUP3 ADD SWAP1 POP PUSH2 0x1372 PUSH0 DUP4 ADD DUP5 PUSH2 0x1350 JUMP JUMPDEST SWAP3 SWAP2 POP POP JUMP JUMPDEST PUSH0 PUSH0 REVERT JUMPDEST PUSH0 DUP2 ISZERO ISZERO SWAP1 POP SWAP2 SWAP1 POP JUMP JUMPDEST PUSH2 0x1390 DUP2 PUSH2 0x137C JUMP JUMPDEST DUP2 EQ PUSH2 0x139A JUMPI PUSH0 PUSH0 REVERT JUMPDEST POP JUMP JUMPDEST PUSH0 DUP2 CALLDATALOAD SWAP1 POP PUSH2 0x13AB DUP2 PUSH2 0x1387 JUMP JUMPDEST SWAP3 SWAP2 POP POP JUMP JUMPDEST PUSH0 PUSH1 0x20 DUP3 DUP5 SUB SLT ISZERO PUSH2 0x13C6 JUMPI PUSH2 0x13C5 PUSH2 0x1378 JUMP JUMPDEST JUMPDEST PUSH0 PUSH2 0x13D3 DUP5 DUP3 DUP6 ADD PUSH2 0x139D JUMP JUMPDEST SWAP2 POP POP SWAP3 SWAP2 POP POP JUMP JUMPDEST PUSH0 PUSH1 0xE0 DUP3 ADD SWAP1 POP PUSH2 0x13EF PUSH0 DUP4 ADD DUP11 PUSH2 0x1262 JUMP JUMPDEST PUSH2 0x13FC PUSH1 0x20 DUP4 ADD DUP10 PUSH2 0x1262 JUMP JUMPDEST PUSH2 0x1409 PUSH1 0x40 DUP4 ADD DUP9 PUSH2 0x1262 JUMP JUMPDEST PUSH2 0x1416 PUSH1 0x60 DUP4 ADD DUP8 PUSH2 0x131F JUMP JUMPDEST PUSH2 0x1423 PUSH1 0x80 DUP4 ADD DUP7 PUSH2 0x131F JUMP JUMPDEST PUSH2 0x1430 PUSH1 0xA0 DUP4 ADD DUP6 PUSH2 0x12EE JUMP JUMPDEST PUSH2 0x143D PUSH1 0xC0 DUP4 ADD DUP5 PUSH2 0x131F JUMP JUMPDEST SWAP9 SWAP8 POP POP POP POP POP POP POP POP JUMP JUMPDEST PUSH32 0x4E487B7100000000000000000000000000000000000000000000000000000000 PUSH0 MSTORE PUSH1 0x11 PUSH1 0x4 MSTORE PUSH1 0x24 PUSH0 REVERT JUMPDEST PUSH0 PUSH2 0x1480 DUP3 PUSH2 0x1347 JUMP JUMPDEST SWAP2 POP PUSH2 0x148B DUP4 PUSH2 0x1347 JUMP JUMPDEST SWAP3 POP DUP3 DUP3 SUB SWAP1 POP DUP2 DUP2 SLT PUSH0 DUP5 SLT AND DUP3 DUP3 SGT PUSH0 DUP6 SLT ISZERO AND OR ISZERO PUSH2 0x14B0 JUMPI PUSH2 0x14AF PUSH2 0x1449 JUMP JUMPDEST JUMPDEST SWAP3 SWAP2 POP POP JUMP JUMPDEST PUSH0 PUSH1 0x40 DUP3 ADD SWAP1 POP PUSH2 0x14C9 PUSH0 DUP4 ADD DUP6 PUSH2 0x12EE JUMP JUMPDEST PUSH2 0x14D6 PUSH1 0x20 DUP4 ADD DUP5 PUSH2 0x12EE JUMP JUMPDEST SWAP4 SWAP3 POP POP POP JUMP JUMPDEST PUSH0 DUP2 SWAP1 POP SWAP3 SWAP2 POP POP JUMP JUMPDEST POP JUMP JUMPDEST PUSH0 PUSH2 0x14F5 PUSH0 DUP4 PUSH2 0x14DD JUMP JUMPDEST SWAP2 POP PUSH2 0x1500 DUP3 PUSH2 0x14E7 JUMP JUMPDEST PUSH0 DUP3 ADD SWAP1 POP SWAP2 SWAP1 POP JUMP JUMPDEST PUSH0 PUSH2 0x1514 DUP3 PUSH2 0x14EA JUMP JUMPDEST SWAP2 POP DUP2 SWAP1 POP SWAP2 SWAP1 POP JUMP JUMPDEST PUSH0 PUSH2 0x1528 DUP3 PUSH2 0x1316 JUMP JUMPDEST SWAP2 POP PUSH2 0x1533 DUP4 PUSH2 0x1316 JUMP JUMPDEST SWAP3 POP DUP3 DUP3 MUL PUSH2 0x1541 DUP2 PUSH2 0x1316 JUMP JUMPDEST SWAP2 POP DUP3 DUP3 DIV DUP5 EQ DUP4 ISZERO OR PUSH2 0x1558 JUMPI PUSH2 0x1557 PUSH2 0x1449 JUMP JUMPDEST JUMPDEST POP SWAP3 SWAP2 POP POP JUMP JUMPDEST PUSH32 0x4E487B7100000000000000000000000000000000000000000000000000000000 PUSH0 MSTORE PUSH1 0x12 PUSH1 0x4 MSTORE PUSH1 0x24 PUSH0 REVERT JUMPDEST PUSH0 PUSH2 0x1596 DUP3 PUSH2 0x1316 JUMP JUMPDEST SWAP2 POP PUSH2 0x15A1 DUP4 PUSH2 0x1316 JUMP JUMPDEST SWAP3 POP DUP3 PUSH2 0x15B1 JUMPI PUSH2 0x15B0 PUSH2 0x155F JUMP JUMPDEST JUMPDEST DUP3 DUP3 DIV SWAP1 POP SWAP3 SWAP2 POP POP JUMP JUMPDEST PUSH0 PUSH2 0x15C6 DUP3 PUSH2 0x1316 JUMP JUMPDEST SWAP2 POP PUSH2 0x15D1 DUP4 PUSH2 0x1316 JUMP JUMPDEST SWAP3 POP DUP3 DUP3 SUB SWAP1 POP DUP2 DUP2 GT ISZERO PUSH2 0x15E9 JUMPI PUSH2 0x15E8 PUSH2 0x1449 JUMP JUMPDEST JUMPDEST SWAP3 SWAP2 POP POP JUMP JUMPDEST PUSH0 PUSH1 0x40 DUP3 ADD SWAP1 POP PUSH2 0x1602 PUSH0 DUP4 ADD DUP6 PUSH2 0x131F JUMP JUMPDEST PUSH2 0x160F PUSH1 0x20 DUP4 ADD DUP5 PUSH2 0x131F JUMP JUMPDEST SWAP4 SWAP3 POP POP POP JUMP INVALID LOG2 PUSH5 0x6970667358 0x22 SLT KECCAK256 0xD5 0xD5 0xA7 0x2D DUP3 PUSH3 0xDF90C3 0x4D PUSH2 0x2DA6 0xA5 0xEB 0xAC SWAP3 0xD3 0xF6 0xAF RETF PUSH3 0x3AA999 0xC1 DUP15 PUSH15 0x6E4928D764736F6C63430008220033 "
		},
		"gasEstimates": {
			"creation": {
				"codeDepositCost": "1141600",
				"executionCost": "infinite",
				"totalCost": "infinite"
			},
			"external": {
				"arbiter()": "infinite",
				"arbiterFeePercent()": "infinite",
				"buyer()": "infinite",
				"claimRefund()": "infinite",
				"confirmDelivery()": "infinite",
				"currentState()": "2599",
				"deadline()": "infinite",
				"fund()": "infinite",
				"getBalance()": "402",
				"getDeadlineRemaining()": "infinite",
				"getEscrowDetails()": "infinite",
				"getState()": "2650",
				"price()": "infinite",
				"raiseDispute()": "infinite",
				"resolveDispute(bool)": "infinite",
				"seller()": "infinite"
			}
		},
		"methodIdentifiers": {
			"arbiter()": "fe25e00a",
			"arbiterFeePercent()": "63c0437e",
			"buyer()": "7150d8ae",
			"claimRefund()": "b5545a3c",
			"confirmDelivery()": "5e10177b",
			"currentState()": "0c3f6acf",
			"deadline()": "29dcb0cf",
			"fund()": "b60d4288",
			"getBalance()": "12065fe0",
			"getDeadlineRemaining()": "2a2d64ff",
			"getEscrowDetails()": "f5660660",
			"getState()": "1865c57d",
			"price()": "a035b1fe",
			"raiseDispute()": "6daa2d44",
			"resolveDispute(bool)": "89e1e82a",
			"seller()": "08551a53"
		}
	},
	"abi": [
		{
			"inputs": [
				{
					"internalType": "address",
					"name": "_seller",
					"type": "address"
				},
				{
					"internalType": "address",
					"name": "_arbiter",
					"type": "address"
				},
				{
					"internalType": "uint256",
					"name": "_price",
					"type": "uint256"
				},
				{
					"internalType": "uint256",
					"name": "_durationDays",
					"type": "uint256"
				},
				{
					"internalType": "uint256",
					"name": "_arbiterFeePercent",
					"type": "uint256"
				}
			],
			"stateMutability": "nonpayable",
			"type": "constructor"
		},
		{
			"inputs": [],
			"name": "Escrow__DeadlineNotReached",
			"type": "error"
		},
		{
			"inputs": [],
			"name": "Escrow__DeadlinePassed",
			"type": "error"
		},
		{
			"inputs": [
				{
					"internalType": "uint256",
					"name": "required",
					"type": "uint256"
				},
				{
					"internalType": "uint256",
					"name": "sent",
					"type": "uint256"
				}
			],
			"name": "Escrow__InsufficientDeposit",
			"type": "error"
		},
		{
			"inputs": [],
			"name": "Escrow__NotArbiter",
			"type": "error"
		},
		{
			"inputs": [],
			"name": "Escrow__NotBuyer",
			"type": "error"
		},
		{
			"inputs": [],
			"name": "Escrow__NotSeller",
			"type": "error"
		},
		{
			"inputs": [],
			"name": "Escrow__TransferFailed",
			"type": "error"
		},
		{
			"inputs": [
				{
					"internalType": "enum Escrow.State",
					"name": "expected",
					"type": "uint8"
				},
				{
					"internalType": "enum Escrow.State",
					"name": "current",
					"type": "uint8"
				}
			],
			"name": "Escrow__WrongState",
			"type": "error"
		},
		{
			"anonymous": false,
			"inputs": [
				{
					"indexed": true,
					"internalType": "address",
					"name": "buyer",
					"type": "address"
				},
				{
					"indexed": false,
					"internalType": "uint256",
					"name": "amountReleased",
					"type": "uint256"
				}
			],
			"name": "DeliveryConfirmed",
			"type": "event"
		},
		{
			"anonymous": false,
			"inputs": [
				{
					"indexed": true,
					"internalType": "address",
					"name": "raisedBy",
					"type": "address"
				}
			],
			"name": "DisputeRaised",
			"type": "event"
		},
		{
			"anonymous": false,
			"inputs": [
				{
					"indexed": true,
					"internalType": "address",
					"name": "winner",
					"type": "address"
				},
				{
					"indexed": false,
					"internalType": "uint256",
					"name": "amount",
					"type": "uint256"
				}
			],
			"name": "DisputeResolved",
			"type": "event"
		},
		{
			"anonymous": false,
			"inputs": [
				{
					"indexed": true,
					"internalType": "address",
					"name": "buyer",
					"type": "address"
				},
				{
					"indexed": false,
					"internalType": "uint256",
					"name": "amount",
					"type": "uint256"
				},
				{
					"indexed": false,
					"internalType": "uint256",
					"name": "deadline",
					"type": "uint256"
				}
			],
			"name": "Funded",
			"type": "event"
		},
		{
			"anonymous": false,
			"inputs": [
				{
					"indexed": true,
					"internalType": "address",
					"name": "buyer",
					"type": "address"
				},
				{
					"indexed": false,
					"internalType": "uint256",
					"name": "amount",
					"type": "uint256"
				}
			],
			"name": "RefundIssued",
			"type": "event"
		},
		{
			"inputs": [],
			"name": "arbiter",
			"outputs": [
				{
					"internalType": "address",
					"name": "",
					"type": "address"
				}
			],
			"stateMutability": "view",
			"type": "function"
		},
		{
			"inputs": [],
			"name": "arbiterFeePercent",
			"outputs": [
				{
					"internalType": "uint256",
					"name": "",
					"type": "uint256"
				}
			],
			"stateMutability": "view",
			"type": "function"
		},
		{
			"inputs": [],
			"name": "buyer",
			"outputs": [
				{
					"internalType": "address",
					"name": "",
					"type": "address"
				}
			],
			"stateMutability": "view",
			"type": "function"
		},
		{
			"inputs": [],
			"name": "claimRefund",
			"outputs": [],
			"stateMutability": "nonpayable",
			"type": "function"
		},
		{
			"inputs": [],
			"name": "confirmDelivery",
			"outputs": [],
			"stateMutability": "nonpayable",
			"type": "function"
		},
		{
			"inputs": [],
			"name": "currentState",
			"outputs": [
				{
					"internalType": "enum Escrow.State",
					"name": "",
					"type": "uint8"
				}
			],
			"stateMutability": "view",
			"type": "function"
		},
		{
			"inputs": [],
			"name": "deadline",
			"outputs": [
				{
					"internalType": "uint256",
					"name": "",
					"type": "uint256"
				}
			],
			"stateMutability": "view",
			"type": "function"
		},
		{
			"inputs": [],
			"name": "fund",
			"outputs": [],
			"stateMutability": "payable",
			"type": "function"
		},
		{
			"inputs": [],
			"name": "getBalance",
			"outputs": [
				{
					"internalType": "uint256",
					"name": "",
					"type": "uint256"
				}
			],
			"stateMutability": "view",
			"type": "function"
		},
		{
			"inputs": [],
			"name": "getDeadlineRemaining",
			"outputs": [
				{
					"internalType": "int256",
					"name": "",
					"type": "int256"
				}
			],
			"stateMutability": "view",
			"type": "function"
		},
		{
			"inputs": [],
			"name": "getEscrowDetails",
			"outputs": [
				{
					"internalType": "address",
					"name": "_buyer",
					"type": "address"
				},
				{
					"internalType": "address",
					"name": "_seller",
					"type": "address"
				},
				{
					"internalType": "address",
					"name": "_arbiter",
					"type": "address"
				},
				{
					"internalType": "uint256",
					"name": "_price",
					"type": "uint256"
				},
				{
					"internalType": "uint256",
					"name": "_deadline",
					"type": "uint256"
				},
				{
					"internalType": "enum Escrow.State",
					"name": "_state",
					"type": "uint8"
				},
				{
					"internalType": "uint256",
					"name": "_balance",
					"type": "uint256"
				}
			],
			"stateMutability": "view",
			"type": "function"
		},
		{
			"inputs": [],
			"name": "getState",
			"outputs": [
				{
					"internalType": "enum Escrow.State",
					"name": "",
					"type": "uint8"
				}
			],
			"stateMutability": "view",
			"type": "function"
		},
		{
			"inputs": [],
			"name": "price",
			"outputs": [
				{
					"internalType": "uint256",
					"name": "",
					"type": "uint256"
				}
			],
			"stateMutability": "view",
			"type": "function"
		},
		{
			"inputs": [],
			"name": "raiseDispute",
			"outputs": [],
			"stateMutability": "nonpayable",
			"type": "function"
		},
		{
			"inputs": [
				{
					"internalType": "bool",
					"name": "favorSeller",
					"type": "bool"
				}
			],
			"name": "resolveDispute",
			"outputs": [],
			"stateMutability": "nonpayable",
			"type": "function"
		},
		{
			"inputs": [],
			"name": "seller",
			"outputs": [
				{
					"internalType": "address",
					"name": "",
					"type": "address"
				}
			],
			"stateMutability": "view",
			"type": "function"
		}
	]
}