{
	"Day11/TipJar.sol": {
		"TipJar": {
			"abi": [
				{
					"inputs": [],
					"stateMutability": "nonpayable",
					"type": "constructor"
				},
				{
					"anonymous": false,
					"inputs": [
						{
							"indexed": true,
							"internalType": "address",
							"name": "sender",
							"type": "address"
						},
						{
							"indexed": false,
							"internalType": "uint256",
							"name": "amount",
							"type": "uint256"
						},
						{
							"indexed": false,
							"internalType": "string",
							"name": "message",
							"type": "string"
						}
					],
					"name": "Tipped",
					"type": "event"
				},
				{
					"anonymous": false,
					"inputs": [
						{
							"indexed": false,
							"internalType": "uint256",
							"name": "amount",
							"type": "uint256"
						}
					],
					"name": "Withdrawn",
					"type": "event"
				},
				{
					"inputs": [],
					"name": "getBalance",
					"outputs": [
						{
							"internalType": "uint256",
							"name": "",
							"type": "uint256"
						}
					],
					"stateMutability": "view",
					"type": "function"
				},
				{
					"inputs": [],
					"name": "getTips",
					"outputs": [
						{
							"components": [
								{
									"internalType": "address",
									"name": "sender",
									"type": "address"
								},
								{
									"internalType": "uint256",
									"name": "amount",
									"type": "uint256"
								},
								{
									"internalType": "string",
									"name": "message",
									"type": "string"
								}
							],
							"internalType": "struct TipJar.Tip[]",
							"name": "",
							"type": "tuple[]"
						}
					],
					"stateMutability": "view",
					"type": "function"
				},
				{
					"inputs": [],
					"name": "owner",
					"outputs": [
						{
							"internalType": "address",
							"name": "",
							"type": "address"
						}
					],
					"stateMutability": "view",
					"type": "function"
				},
				{
					"inputs": [
						{
							"internalType": "string",
							"name": "_message",
							"type": "string"
						}
					],
					"name": "sendTip",
					"outputs": [],
					"stateMutability": "payable",
					"type": "function"
				},
				{
					"inputs": [
						{
							"internalType": "uint256",
							"name": "",
							"type": "uint256"
						}
					],
					"name": "tips",
					"outputs": [
						{
							"internalType": "address",
							"name": "sender",
							"type": "address"
						},
						{
							"internalType": "uint256",
							"name": "amount",
							"type": "uint256"
						},
						{
							"internalType": "string",
							"name": "message",
							"type": "string"
						}
					],
					"stateMutability": "view",
					"type": "function"
				},
				{
					"inputs": [],
					"name": "withdraw",
					"outputs": [],
					"stateMutability": "nonpayable",
					"type": "function"
				}
			],
			"devdoc": {
				"kind": "dev",
				"methods": {},
				"version": 1
			},
			"evm": {
				"assembly": "    /* \"Day11/TipJar.sol\":61:1240  contract TipJar {... */\n  mstore(0x40, 0x80)\n    /* \"Day11/TipJar.sol\":349:400  constructor() {... */\n  callvalue\n  dup1\n  iszero\n  tag_1\n  jumpi\n  revert(0x00, 0x00)\ntag_1:\n  pop\n    /* \"Day11/TipJar.sol\":382:392  msg.sender */\n  caller\n    /* \"Day11/TipJar.sol\":374:379  owner */\n  0x00\n  0x00\n    /* \"Day11/TipJar.sol\":374:392  owner = msg.sender */\n  0x0100\n  exp\n  dup2\n  sload\n  dup2\n  0xffffffffffffffffffffffffffffffffffffffff\n  mul\n  not\n  and\n  swap1\n  dup4\n  0xffffffffffffffffffffffffffffffffffffffff\n  and\n  mul\n  or\n  swap1\n  sstore\n  pop\n    /* \"Day11/TipJar.sol\":61:1240  contract TipJar {... */\n  dataSize(sub_0)\n  dup1\n  dataOffset(sub_0)\n  0x00\n  codecopy\n  0x00\n  return\nstop\n\nsub_0: assembly {\n        /* \"Day11/TipJar.sol\":61:1240  contract TipJar {... */\n      mstore(0x40, 0x80)\n      jumpi(tag_1, lt(calldatasize, 0x04))\n      shr(0xe0, calldataload(0x00))\n      dup1\n      0x12065fe0\n      eq\n      tag_2\n      jumpi\n      dup1\n      0x3ccfd60b\n      eq\n      tag_3\n      jumpi\n      dup1\n      0x7f5154b4\n      eq\n      tag_4\n      jumpi\n      dup1\n      0x88e4a073\n      eq\n      tag_5\n      jumpi\n      dup1\n      0x8da5cb5b\n      eq\n      tag_6\n      jumpi\n      dup1\n      0xa5c68c59\n      eq\n      tag_7\n      jumpi\n    tag_1:\n      revert(0x00, 0x00)\n        /* \"Day11/TipJar.sol\":1141:1237  function getBalance() public view returns (uint) {... */\n    tag_2:\n      callvalue\n      dup1\n      iszero\n      tag_8\n      jumpi\n      revert(0x00, 0x00)\n    tag_8:\n      pop\n      tag_9\n      tag_10\n      jump\t// in\n    tag_9:\n      mload(0x40)\n      tag_11\n      swap2\n      swap1\n      tag_12\n      jump\t// in\n    tag_11:\n      mload(0x40)\n      dup1\n      swap2\n      sub\n      swap1\n      return\n        /* \"Day11/TipJar.sol\":825:1041  function withdraw() public onlyOwner {... */\n    tag_3:\n      callvalue\n      dup1\n      iszero\n      tag_13\n      jumpi\n      revert(0x00, 0x00)\n    tag_13:\n      pop\n      tag_14\n      tag_15\n      jump\t// in\n    tag_14:\n      stop\n        /* \"Day11/TipJar.sol\":509:817  function sendTip(string memory _message) public payable {... */\n    tag_4:\n      tag_16\n      0x04\n      dup1\n      calldatasize\n      sub\n      dup2\n      add\n      swap1\n      tag_17\n      swap2\n      swap1\n      tag_18\n      jump\t// in\n    tag_17:\n      tag_19\n      jump\t// in\n    tag_16:\n      stop\n        /* \"Day11/TipJar.sol\":1049:1133  function getTips() public view returns (Tip[] memory) {... */\n    tag_5:\n      callvalue\n      dup1\n      iszero\n      tag_20\n      jumpi\n      revert(0x00, 0x00)\n    tag_20:\n      pop\n      tag_21\n      tag_22\n      jump\t// in\n    tag_21:\n      mload(0x40)\n      tag_23\n      swap2\n      swap1\n      tag_24\n      jump\t// in\n    tag_23:\n      mload(0x40)\n      dup1\n      swap2\n      sub\n      swap1\n      return\n        /* \"Day11/TipJar.sol\":86:106  address public owner */\n    tag_6:\n      callvalue\n      dup1\n      iszero\n      tag_25\n      jumpi\n      revert(0x00, 0x00)\n    tag_25:\n      pop\n      tag_26\n      tag_27\n      jump\t// in\n    tag_26:\n      mload(0x40)\n      tag_28\n      swap2\n      swap1\n      tag_29\n      jump\t// in\n    tag_28:\n      mload(0x40)\n      dup1\n      swap2\n      sub\n      swap1\n      return\n        /* \"Day11/TipJar.sol\":214:231  Tip[] public tips */\n    tag_7:\n      callvalue\n      dup1\n      iszero\n      tag_30\n      jumpi\n      revert(0x00, 0x00)\n    tag_30:\n      pop\n      tag_31\n      0x04\n      dup1\n      calldatasize\n      sub\n      dup2\n      add\n      swap1\n      tag_32\n      swap2\n      swap1\n      tag_33\n      jump\t// in\n    tag_32:\n      tag_34\n      jump\t// in\n    tag_31:\n      mload(0x40)\n      tag_35\n      swap4\n      swap3\n      swap2\n      swap1\n      tag_36\n      jump\t// in\n    tag_35:\n      mload(0x40)\n      dup1\n      swap2\n      sub\n      swap1\n      return\n        /* \"Day11/TipJar.sol\":1141:1237  function getBalance() public view returns (uint) {... */\n    tag_10:\n        /* \"Day11/TipJar.sol\":1184:1188  uint */\n      0x00\n        /* \"Day11/TipJar.sol\":1208:1229  address(this).balance */\n      selfbalance\n        /* \"Day11/TipJar.sol\":1201:1229  return address(this).balance */\n      swap1\n      pop\n        /* \"Day11/TipJar.sol\":1141:1237  function getBalance() public view returns (uint) {... */\n      swap1\n      jump\t// out\n        /* \"Day11/TipJar.sol\":825:1041  function withdraw() public onlyOwner {... */\n    tag_15:\n        /* \"Day11/TipJar.sol\":462:467  owner */\n      0x00\n      0x00\n      swap1\n      sload\n      swap1\n      0x0100\n      exp\n      swap1\n      div\n      0xffffffffffffffffffffffffffffffffffffffff\n      and\n        /* \"Day11/TipJar.sol\":448:467  msg.sender == owner */\n      0xffffffffffffffffffffffffffffffffffffffff\n      and\n        /* \"Day11/TipJar.sol\":448:458  msg.sender */\n      caller\n        /* \"Day11/TipJar.sol\":448:467  msg.sender == owner */\n      0xffffffffffffffffffffffffffffffffffffffff\n      and\n      eq\n        /* \"Day11/TipJar.sol\":440:481  require(msg.sender == owner, \"Not owner\") */\n      tag_39\n      jumpi\n      mload(0x40)\n      0x08c379a000000000000000000000000000000000000000000000000000000000\n      dup2\n      mstore\n      0x04\n      add\n      tag_40\n      swap1\n      tag_41\n      jump\t// in\n    tag_40:\n      mload(0x40)\n      dup1\n      swap2\n      sub\n      swap1\n      revert\n    tag_39:\n        /* \"Day11/TipJar.sol\":873:885  uint balance */\n      0x00\n        /* \"Day11/TipJar.sol\":888:909  address(this).balance */\n      selfbalance\n        /* \"Day11/TipJar.sol\":873:909  uint balance = address(this).balance */\n      swap1\n      pop\n        /* \"Day11/TipJar.sol\":938:939  0 */\n      0x00\n        /* \"Day11/TipJar.sol\":928:935  balance */\n      dup2\n        /* \"Day11/TipJar.sol\":928:939  balance > 0 */\n      gt\n        /* \"Day11/TipJar.sol\":920:952  require(balance > 0, \"No funds\") */\n      tag_43\n      jumpi\n      mload(0x40)\n      0x08c379a000000000000000000000000000000000000000000000000000000000\n      dup2\n      mstore\n      0x04\n      add\n      tag_44\n      swap1\n      tag_45\n      jump\t// in\n    tag_44:\n      mload(0x40)\n      dup1\n      swap2\n      sub\n      swap1\n      revert\n    tag_43:\n        /* \"Day11/TipJar.sol\":973:978  owner */\n      0x00\n      0x00\n      swap1\n      sload\n      swap1\n      0x0100\n      exp\n      swap1\n      div\n      0xffffffffffffffffffffffffffffffffffffffff\n      and\n        /* \"Day11/TipJar.sol\":965:988  payable(owner).transfer */\n      0xffffffffffffffffffffffffffffffffffffffff\n      and\n        /* \"Day11/TipJar.sol\":965:997  payable(owner).transfer(balance) */\n      0x08fc\n        /* \"Day11/TipJar.sol\":989:996  balance */\n      dup3\n        /* \"Day11/TipJar.sol\":965:997  payable(owner).transfer(balance) */\n      swap1\n      dup2\n      iszero\n      mul\n      swap1\n      mload(0x40)\n      0x00\n      mload(0x40)\n      dup1\n      dup4\n      sub\n      dup2\n      dup6\n      dup9\n      dup9\n      call\n      swap4\n      pop\n      pop\n      pop\n      pop\n      iszero\n      dup1\n      iszero\n      tag_47\n      jumpi\n      returndatacopy(0x00, 0x00, returndatasize)\n      revert(0x00, returndatasize)\n    tag_47:\n      pop\n        /* \"Day11/TipJar.sol\":1015:1033  Withdrawn(balance) */\n      0x430648de173157e069201c943adb2d4e340e7cf5b27b1b09c9cb852f03d63b56\n        /* \"Day11/TipJar.sol\":1025:1032  balance */\n      dup2\n        /* \"Day11/TipJar.sol\":1015:1033  Withdrawn(balance) */\n      mload(0x40)\n      tag_48\n      swap2\n      swap1\n      tag_12\n      jump\t// in\n    tag_48:\n      mload(0x40)\n      dup1\n      swap2\n      sub\n      swap1\n      log1\n        /* \"Day11/TipJar.sol\":862:1041  {... */\n      pop\n        /* \"Day11/TipJar.sol\":825:1041  function withdraw() public onlyOwner {... */\n      jump\t// out\n        /* \"Day11/TipJar.sol\":509:817  function sendTip(string memory _message) public payable {... */\n    tag_19:\n        /* \"Day11/TipJar.sol\":596:597  0 */\n      0x00\n        /* \"Day11/TipJar.sol\":584:593  msg.value */\n      callvalue\n        /* \"Day11/TipJar.sol\":584:597  msg.value > 0 */\n      gt\n        /* \"Day11/TipJar.sol\":576:615  require(msg.value > 0, \"Send some ETH\") */\n      tag_50\n      jumpi\n      mload(0x40)\n      0x08c379a000000000000000000000000000000000000000000000000000000000\n      dup2\n      mstore\n      0x04\n      add\n      tag_51\n      swap1\n      tag_52\n      jump\t// in\n    tag_51:\n      mload(0x40)\n      dup1\n      swap2\n      sub\n      swap1\n      revert\n    tag_50:\n        /* \"Day11/TipJar.sol\":628:632  tips */\n      0x01\n        /* \"Day11/TipJar.sol\":638:751  Tip({... */\n      mload(0x40)\n      dup1\n      0x60\n      add\n      0x40\n      mstore\n      dup1\n        /* \"Day11/TipJar.sol\":665:675  msg.sender */\n      caller\n        /* \"Day11/TipJar.sol\":638:751  Tip({... */\n      0xffffffffffffffffffffffffffffffffffffffff\n      and\n      dup2\n      mstore\n      0x20\n      add\n        /* \"Day11/TipJar.sol\":698:707  msg.value */\n      callvalue\n        /* \"Day11/TipJar.sol\":638:751  Tip({... */\n      dup2\n      mstore\n      0x20\n      add\n        /* \"Day11/TipJar.sol\":731:739  _message */\n      dup4\n        /* \"Day11/TipJar.sol\":638:751  Tip({... */\n      dup2\n      mstore\n      pop\n        /* \"Day11/TipJar.sol\":628:752  tips.push(Tip({... */\n      swap1\n      dup1\n      0x01\n      dup2\n      sload\n      add\n      dup1\n      dup3\n      sstore\n      dup1\n      swap2\n      pop\n      pop\n      0x01\n      swap1\n      sub\n      swap1\n      0x00\n      mstore\n      keccak256(0x00, 0x20)\n      swap1\n      0x03\n      mul\n      add\n      0x00\n      swap1\n      swap2\n      swap1\n      swap2\n      swap1\n      swap2\n      pop\n      0x00\n      dup3\n      add\n      mload\n      dup2\n      0x00\n      add\n      exp(0x0100, 0x00)\n      dup2\n      sload\n      dup2\n      0xffffffffffffffffffffffffffffffffffffffff\n      mul\n      not\n      and\n      swap1\n      dup4\n      0xffffffffffffffffffffffffffffffffffffffff\n      and\n      mul\n      or\n      swap1\n      sstore\n      pop\n      0x20\n      dup3\n      add\n      mload\n      dup2\n      0x01\n      add\n      sstore\n      0x40\n      dup3\n      add\n      mload\n      dup2\n      0x02\n      add\n      swap1\n      dup2\n      tag_54\n      swap2\n      swap1\n      tag_55\n      jump\t// in\n    tag_54:\n      pop\n      pop\n      pop\n        /* \"Day11/TipJar.sol\":777:787  msg.sender */\n      caller\n        /* \"Day11/TipJar.sol\":770:809  Tipped(msg.sender, msg.value, _message) */\n      0xffffffffffffffffffffffffffffffffffffffff\n      and\n      0x4f629a5f1c8e7fc616770a8d34896b447f3457037c40a23347478746309d73c2\n        /* \"Day11/TipJar.sol\":789:798  msg.value */\n      callvalue\n        /* \"Day11/TipJar.sol\":800:808  _message */\n      dup4\n        /* \"Day11/TipJar.sol\":770:809  Tipped(msg.sender, msg.value, _message) */\n      mload(0x40)\n      tag_56\n      swap3\n      swap2\n      swap1\n      tag_57\n      jump\t// in\n    tag_56:\n      mload(0x40)\n      dup1\n      swap2\n      sub\n      swap1\n      log2\n        /* \"Day11/TipJar.sol\":509:817  function sendTip(string memory _message) public payable {... */\n      pop\n      jump\t// out\n        /* \"Day11/TipJar.sol\":1049:1133  function getTips() public view returns (Tip[] memory) {... */\n    tag_22:\n        /* \"Day11/TipJar.sol\":1089:1101  Tip[] memory */\n      0x60\n        /* \"Day11/TipJar.sol\":1121:1125  tips */\n      0x01\n        /* \"Day11/TipJar.sol\":1114:1125  return tips */\n      dup1\n      sload\n      dup1\n      0x20\n      mul\n      0x20\n      add\n      mload(0x40)\n      swap1\n      dup2\n      add\n      0x40\n      mstore\n      dup1\n      swap3\n      swap2\n      swap1\n      dup2\n      dup2\n      mstore\n      0x20\n      add\n      0x00\n      swap1\n    tag_59:\n      dup3\n      dup3\n      lt\n      iszero\n      tag_60\n      jumpi\n      dup4\n      dup3\n      swap1\n      0x00\n      mstore\n      keccak256(0x00, 0x20)\n      swap1\n      0x03\n      mul\n      add\n      mload(0x40)\n      dup1\n      0x60\n      add\n      0x40\n      mstore\n      swap1\n      dup2\n      0x00\n      dup3\n      add\n      0x00\n      swap1\n      sload\n      swap1\n      0x0100\n      exp\n      swap1\n      div\n      0xffffffffffffffffffffffffffffffffffffffff\n      and\n      0xffffffffffffffffffffffffffffffffffffffff\n      and\n      0xffffffffffffffffffffffffffffffffffffffff\n      and\n      dup2\n      mstore\n      0x20\n      add\n      0x01\n      dup3\n      add\n      sload\n      dup2\n      mstore\n      0x20\n      add\n      0x02\n      dup3\n      add\n      dup1\n      sload\n      tag_62\n      swap1\n      tag_63\n      jump\t// in\n    tag_62:\n      dup1\n      0x1f\n      add\n      0x20\n      dup1\n      swap2\n      div\n      mul\n      0x20\n      add\n      mload(0x40)\n      swap1\n      dup2\n      add\n      0x40\n      mstore\n      dup1\n      swap3\n      swap2\n      swap1\n      dup2\n      dup2\n      mstore\n      0x20\n      add\n      dup3\n      dup1\n      sload\n      tag_64\n      swap1\n      tag_63\n      jump\t// in\n    tag_64:\n      dup1\n      iszero\n      tag_65\n      jumpi\n      dup1\n      0x1f\n      lt\n      tag_66\n      jumpi\n      0x0100\n      dup1\n      dup4\n      sload\n      div\n      mul\n      dup4\n      mstore\n      swap2\n      0x20\n      add\n      swap2\n      jump(tag_65)\n    tag_66:\n      dup3\n      add\n      swap2\n      swap1\n      0x00\n      mstore\n      keccak256(0x00, 0x20)\n      swap1\n    tag_67:\n      dup2\n      sload\n      dup2\n      mstore\n      swap1\n      0x01\n      add\n      swap1\n      0x20\n      add\n      dup1\n      dup4\n      gt\n      tag_67\n      jumpi\n      dup3\n      swap1\n      sub\n      0x1f\n      and\n      dup3\n      add\n      swap2\n    tag_65:\n      pop\n      pop\n      pop\n      pop\n      pop\n      dup2\n      mstore\n      pop\n      pop\n      dup2\n      mstore\n      0x20\n      add\n      swap1\n      0x01\n      add\n      swap1\n      jump(tag_59)\n    tag_60:\n      pop\n      pop\n      pop\n      pop\n      swap1\n      pop\n        /* \"Day11/TipJar.sol\":1049:1133  function getTips() public view returns (Tip[] memory) {... */\n      swap1\n      jump\t// out\n        /* \"Day11/TipJar.sol\":86:106  address public owner */\n    tag_27:\n      0x00\n      0x00\n      swap1\n      sload\n      swap1\n      0x0100\n      exp\n      swap1\n      div\n      0xffffffffffffffffffffffffffffffffffffffff\n      and\n      dup2\n      jump\t// out\n        /* \"Day11/TipJar.sol\":214:231  Tip[] public tips */\n    tag_34:\n      0x01\n      dup2\n      dup2\n      sload\n      dup2\n      lt\n      tag_68\n      jumpi\n      0x00\n      dup1\n      revert\n    tag_68:\n      swap1\n      0x00\n      mstore\n      keccak256(0x00, 0x20)\n      swap1\n      0x03\n      mul\n      add\n      0x00\n      swap2\n      pop\n      swap1\n      pop\n      dup1\n      0x00\n      add\n      0x00\n      swap1\n      sload\n      swap1\n      0x0100\n      exp\n      swap1\n      div\n      0xffffffffffffffffffffffffffffffffffffffff\n      and\n      swap1\n      dup1\n      0x01\n      add\n      sload\n      swap1\n      dup1\n      0x02\n      add\n      dup1\n      sload\n      tag_70\n      swap1\n      tag_63\n      jump\t// in\n    tag_70:\n      dup1\n      0x1f\n      add\n      0x20\n      dup1\n      swap2\n      div\n      mul\n      0x20\n      add\n      mload(0x40)\n      swap1\n      dup2\n      add\n      0x40\n      mstore\n      dup1\n      swap3\n      swap2\n      swap1\n      dup2\n      dup2\n      mstore\n      0x20\n      add\n      dup3\n      dup1\n      sload\n      tag_71\n      swap1\n      tag_63\n      jump\t// in\n    tag_71:\n      dup1\n      iszero\n      tag_72\n      jumpi\n      dup1\n      0x1f\n      lt\n      tag_73\n      jumpi\n      0x0100\n      dup1\n      dup4\n      sload\n      div\n      mul\n      dup4\n      mstore\n      swap2\n      0x20\n      add\n      swap2\n      jump(tag_72)\n    tag_73:\n      dup3\n      add\n      swap2\n      swap1\n      0x00\n      mstore\n      keccak256(0x00, 0x20)\n      swap1\n    tag_74:\n      dup2\n      sload\n      dup2\n      mstore\n      swap1\n      0x01\n      add\n      swap1\n      0x20\n      add\n      dup1\n      dup4\n      gt\n      tag_74\n      jumpi\n      dup3\n      swap1\n      sub\n      0x1f\n      and\n      dup3\n      add\n      swap2\n    tag_72:\n      pop\n      pop\n      pop\n      pop\n      pop\n      swap1\n      pop\n      dup4\n      jump\t// out\n        /* \"#utility.yul\":7:84   */\n    tag_75:\n        /* \"#utility.yul\":44:51   */\n      0x00\n        /* \"#utility.yul\":73:78   */\n      dup2\n        /* \"#utility.yul\":62:78   */\n      swap1\n      pop\n        /* \"#utility.yul\":7:84   */\n      swap2\n      swap1\n      pop\n      jump\t// out\n        /* \"#utility.yul\":90:208   */\n    tag_76:\n        /* \"#utility.yul\":177:201   */\n      tag_135\n        /* \"#utility.yul\":195:200   */\n      dup2\n        /* \"#utility.yul\":177:201   */\n      tag_75\n      jump\t// in\n    tag_135:\n        /* \"#utility.yul\":172:175   */\n      dup3\n        /* \"#utility.yul\":165:202   */\n      mstore\n        /* \"#utility.yul\":90:208   */\n      pop\n      pop\n      jump\t// out\n        /* \"#utility.yul\":214:436   */\n    tag_12:\n        /* \"#utility.yul\":307:311   */\n      0x00\n        /* \"#utility.yul\":345:347   */\n      0x20\n        /* \"#utility.yul\":334:343   */\n      dup3\n        /* \"#utility.yul\":330:348   */\n      add\n        /* \"#utility.yul\":322:348   */\n      swap1\n      pop\n        /* \"#utility.yul\":358:429   */\n      tag_137\n        /* \"#utility.yul\":426:427   */\n      0x00\n        /* \"#utility.yul\":415:424   */\n      dup4\n        /* \"#utility.yul\":411:428   */\n      add\n        /* \"#utility.yul\":402:408   */\n      dup5\n        /* \"#utility.yul\":358:429   */\n      tag_76\n      jump\t// in\n    tag_137:\n        /* \"#utility.yul\":214:436   */\n      swap3\n      swap2\n      pop\n      pop\n      jump\t// out\n        /* \"#utility.yul\":442:517   */\n    tag_77:\n        /* \"#utility.yul\":475:481   */\n      0x00\n        /* \"#utility.yul\":508:510   */\n      0x40\n        /* \"#utility.yul\":502:511   */\n      mload\n        /* \"#utility.yul\":492:511   */\n      swap1\n      pop\n        /* \"#utility.yul\":442:517   */\n      swap1\n      jump\t// out\n        /* \"#utility.yul\":523:640   */\n    tag_78:\n        /* \"#utility.yul\":632:633   */\n      0x00\n        /* \"#utility.yul\":629:630   */\n      0x00\n        /* \"#utility.yul\":622:634   */\n      revert\n        /* \"#utility.yul\":646:763   */\n    tag_79:\n        /* \"#utility.yul\":755:756   */\n      0x00\n        /* \"#utility.yul\":752:753   */\n      0x00\n        /* \"#utility.yul\":745:757   */\n      revert\n        /* \"#utility.yul\":769:886   */\n    tag_80:\n        /* \"#utility.yul\":878:879   */\n      0x00\n        /* \"#utility.yul\":875:876   */\n      0x00\n        /* \"#utility.yul\":868:880   */\n      revert\n        /* \"#utility.yul\":892:1009   */\n    tag_81:\n        /* \"#utility.yul\":1001:1002   */\n      0x00\n        /* \"#utility.yul\":998:999   */\n      0x00\n        /* \"#utility.yul\":991:1003   */\n      revert\n        /* \"#utility.yul\":1015:1117   */\n    tag_82:\n        /* \"#utility.yul\":1056:1062   */\n      0x00\n        /* \"#utility.yul\":1107:1109   */\n      0x1f\n        /* \"#utility.yul\":1103:1110   */\n      not\n        /* \"#utility.yul\":1098:1100   */\n      0x1f\n        /* \"#utility.yul\":1091:1096   */\n      dup4\n        /* \"#utility.yul\":1087:1101   */\n      add\n        /* \"#utility.yul\":1083:1111   */\n      and\n        /* \"#utility.yul\":1073:1111   */\n      swap1\n      pop\n        /* \"#utility.yul\":1015:1117   */\n      swap2\n      swap1\n      pop\n      jump\t// out\n        /* \"#utility.yul\":1123:1303   */\n    tag_83:\n        /* \"#utility.yul\":1171:1248   */\n      0x4e487b7100000000000000000000000000000000000000000000000000000000\n        /* \"#utility.yul\":1168:1169   */\n      0x00\n        /* \"#utility.yul\":1161:1249   */\n      mstore\n        /* \"#utility.yul\":1268:1272   */\n      0x41\n        /* \"#utility.yul\":1265:1266   */\n      0x04\n        /* \"#utility.yul\":1258:1273   */\n      mstore\n        /* \"#utility.yul\":1292:1296   */\n      0x24\n        /* \"#utility.yul\":1289:1290   */\n      0x00\n        /* \"#utility.yul\":1282:1297   */\n      revert\n        /* \"#utility.yul\":1309:1590   */\n    tag_84:\n        /* \"#utility.yul\":1392:1419   */\n      tag_146\n        /* \"#utility.yul\":1414:1418   */\n      dup3\n        /* \"#utility.yul\":1392:1419   */\n      tag_82\n      jump\t// in\n    tag_146:\n        /* \"#utility.yul\":1384:1390   */\n      dup2\n        /* \"#utility.yul\":1380:1420   */\n      add\n        /* \"#utility.yul\":1522:1528   */\n      dup2\n        /* \"#utility.yul\":1510:1520   */\n      dup2\n        /* \"#utility.yul\":1507:1529   */\n      lt\n        /* \"#utility.yul\":1486:1504   */\n      0xffffffffffffffff\n        /* \"#utility.yul\":1474:1484   */\n      dup3\n        /* \"#utility.yul\":1471:1505   */\n      gt\n        /* \"#utility.yul\":1468:1530   */\n      or\n        /* \"#utility.yul\":1465:1553   */\n      iszero\n      tag_147\n      jumpi\n        /* \"#utility.yul\":1533:1551   */\n      tag_148\n      tag_83\n      jump\t// in\n    tag_148:\n        /* \"#utility.yul\":1465:1553   */\n    tag_147:\n        /* \"#utility.yul\":1573:1583   */\n      dup1\n        /* \"#utility.yul\":1569:1571   */\n      0x40\n        /* \"#utility.yul\":1562:1584   */\n      mstore\n        /* \"#utility.yul\":1352:1590   */\n      pop\n        /* \"#utility.yul\":1309:1590   */\n      pop\n      pop\n      jump\t// out\n        /* \"#utility.yul\":1596:1725   */\n    tag_85:\n        /* \"#utility.yul\":1630:1636   */\n      0x00\n        /* \"#utility.yul\":1657:1677   */\n      tag_150\n      tag_77\n      jump\t// in\n    tag_150:\n        /* \"#utility.yul\":1647:1677   */\n      swap1\n      pop\n        /* \"#utility.yul\":1686:1719   */\n      tag_151\n        /* \"#utility.yul\":1714:1718   */\n      dup3\n        /* \"#utility.yul\":1706:1712   */\n      dup3\n        /* \"#utility.yul\":1686:1719   */\n      tag_84\n      jump\t// in\n    tag_151:\n        /* \"#utility.yul\":1596:1725   */\n      swap2\n      swap1\n      pop\n      jump\t// out\n        /* \"#utility.yul\":1731:2039   */\n    tag_86:\n        /* \"#utility.yul\":1793:1797   */\n      0x00\n        /* \"#utility.yul\":1883:1901   */\n      0xffffffffffffffff\n        /* \"#utility.yul\":1875:1881   */\n      dup3\n        /* \"#utility.yul\":1872:1902   */\n      gt\n        /* \"#utility.yul\":1869:1925   */\n      iszero\n      tag_153\n      jumpi\n        /* \"#utility.yul\":1905:1923   */\n      tag_154\n      tag_83\n      jump\t// in\n    tag_154:\n        /* \"#utility.yul\":1869:1925   */\n    tag_153:\n        /* \"#utility.yul\":1943:1972   */\n      tag_155\n        /* \"#utility.yul\":1965:1971   */\n      dup3\n        /* \"#utility.yul\":1943:1972   */\n      tag_82\n      jump\t// in\n    tag_155:\n        /* \"#utility.yul\":1935:1972   */\n      swap1\n      pop\n        /* \"#utility.yul\":2027:2031   */\n      0x20\n        /* \"#utility.yul\":2021:2025   */\n      dup2\n        /* \"#utility.yul\":2017:2032   */\n      add\n        /* \"#utility.yul\":2009:2032   */\n      swap1\n      pop\n        /* \"#utility.yul\":1731:2039   */\n      swap2\n      swap1\n      pop\n      jump\t// out\n        /* \"#utility.yul\":2045:2193   */\n    tag_87:\n        /* \"#utility.yul\":2143:2149   */\n      dup3\n        /* \"#utility.yul\":2138:2141   */\n      dup2\n        /* \"#utility.yul\":2133:2136   */\n      dup4\n        /* \"#utility.yul\":2120:2150   */\n      calldatacopy\n        /* \"#utility.yul\":2184:2185   */\n      0x00\n        /* \"#utility.yul\":2175:2181   */\n      dup4\n        /* \"#utility.yul\":2170:2173   */\n      dup4\n        /* \"#utility.yul\":2166:2182   */\n      add\n        /* \"#utility.yul\":2159:2186   */\n      mstore\n        /* \"#utility.yul\":2045:2193   */\n      pop\n      pop\n      pop\n      jump\t// out\n        /* \"#utility.yul\":2199:2624   */\n    tag_88:\n        /* \"#utility.yul\":2277:2282   */\n      0x00\n        /* \"#utility.yul\":2302:2368   */\n      tag_158\n        /* \"#utility.yul\":2318:2367   */\n      tag_159\n        /* \"#utility.yul\":2360:2366   */\n      dup5\n        /* \"#utility.yul\":2318:2367   */\n      tag_86\n      jump\t// in\n    tag_159:\n        /* \"#utility.yul\":2302:2368   */\n      tag_85\n      jump\t// in\n    tag_158:\n        /* \"#utility.yul\":2293:2368   */\n      swap1\n      pop\n        /* \"#utility.yul\":2391:2397   */\n      dup3\n        /* \"#utility.yul\":2384:2389   */\n      dup2\n        /* \"#utility.yul\":2377:2398   */\n      mstore\n        /* \"#utility.yul\":2429:2433   */\n      0x20\n        /* \"#utility.yul\":2422:2427   */\n      dup2\n        /* \"#utility.yul\":2418:2434   */\n      add\n        /* \"#utility.yul\":2467:2470   */\n      dup5\n        /* \"#utility.yul\":2458:2464   */\n      dup5\n        /* \"#utility.yul\":2453:2456   */\n      dup5\n        /* \"#utility.yul\":2449:2465   */\n      add\n        /* \"#utility.yul\":2446:2471   */\n      gt\n        /* \"#utility.yul\":2443:2555   */\n      iszero\n      tag_160\n      jumpi\n        /* \"#utility.yul\":2474:2553   */\n      tag_161\n      tag_81\n      jump\t// in\n    tag_161:\n        /* \"#utility.yul\":2443:2555   */\n    tag_160:\n        /* \"#utility.yul\":2564:2618   */\n      tag_162\n        /* \"#utility.yul\":2611:2617   */\n      dup5\n        /* \"#utility.yul\":2606:2609   */\n      dup3\n        /* \"#utility.yul\":2601:2604   */\n      dup6\n        /* \"#utility.yul\":2564:2618   */\n      tag_87\n      jump\t// in\n    tag_162:\n        /* \"#utility.yul\":2283:2624   */\n      pop\n        /* \"#utility.yul\":2199:2624   */\n      swap4\n      swap3\n      pop\n      pop\n      pop\n      jump\t// out\n        /* \"#utility.yul\":2644:2984   */\n    tag_89:\n        /* \"#utility.yul\":2700:2705   */\n      0x00\n        /* \"#utility.yul\":2749:2752   */\n      dup3\n        /* \"#utility.yul\":2742:2746   */\n      0x1f\n        /* \"#utility.yul\":2734:2740   */\n      dup4\n        /* \"#utility.yul\":2730:2747   */\n      add\n        /* \"#utility.yul\":2726:2753   */\n      slt\n        /* \"#utility.yul\":2716:2838   */\n      tag_164\n      jumpi\n        /* \"#utility.yul\":2757:2836   */\n      tag_165\n      tag_80\n      jump\t// in\n    tag_165:\n        /* \"#utility.yul\":2716:2838   */\n    tag_164:\n        /* \"#utility.yul\":2874:2880   */\n      dup2\n        /* \"#utility.yul\":2861:2881   */\n      calldataload\n        /* \"#utility.yul\":2899:2978   */\n      tag_166\n        /* \"#utility.yul\":2974:2977   */\n      dup5\n        /* \"#utility.yul\":2966:2972   */\n      dup3\n        /* \"#utility.yul\":2959:2963   */\n      0x20\n        /* \"#utility.yul\":2951:2957   */\n      dup7\n        /* \"#utility.yul\":2947:2964   */\n      add\n        /* \"#utility.yul\":2899:2978   */\n      tag_88\n      jump\t// in\n    tag_166:\n        /* \"#utility.yul\":2890:2978   */\n      swap2\n      pop\n        /* \"#utility.yul\":2706:2984   */\n      pop\n        /* \"#utility.yul\":2644:2984   */\n      swap3\n      swap2\n      pop\n      pop\n      jump\t// out\n        /* \"#utility.yul\":2990:3499   */\n    tag_18:\n        /* \"#utility.yul\":3059:3065   */\n      0x00\n        /* \"#utility.yul\":3108:3110   */\n      0x20\n        /* \"#utility.yul\":3096:3105   */\n      dup3\n        /* \"#utility.yul\":3087:3094   */\n      dup5\n        /* \"#utility.yul\":3083:3106   */\n      sub\n        /* \"#utility.yul\":3079:3111   */\n      slt\n        /* \"#utility.yul\":3076:3195   */\n      iszero\n      tag_168\n      jumpi\n        /* \"#utility.yul\":3114:3193   */\n      tag_169\n      tag_78\n      jump\t// in\n    tag_169:\n        /* \"#utility.yul\":3076:3195   */\n    tag_168:\n        /* \"#utility.yul\":3262:3263   */\n      0x00\n        /* \"#utility.yul\":3251:3260   */\n      dup3\n        /* \"#utility.yul\":3247:3264   */\n      add\n        /* \"#utility.yul\":3234:3265   */\n      calldataload\n        /* \"#utility.yul\":3292:3310   */\n      0xffffffffffffffff\n        /* \"#utility.yul\":3284:3290   */\n      dup2\n        /* \"#utility.yul\":3281:3311   */\n      gt\n        /* \"#utility.yul\":3278:3395   */\n      iszero\n      tag_170\n      jumpi\n        /* \"#utility.yul\":3314:3393   */\n      tag_171\n      tag_79\n      jump\t// in\n    tag_171:\n        /* \"#utility.yul\":3278:3395   */\n    tag_170:\n        /* \"#utility.yul\":3419:3482   */\n      tag_172\n        /* \"#utility.yul\":3474:3481   */\n      dup5\n        /* \"#utility.yul\":3465:3471   */\n      dup3\n        /* \"#utility.yul\":3454:3463   */\n      dup6\n        /* \"#utility.yul\":3450:3472   */\n      add\n        /* \"#utility.yul\":3419:3482   */\n      tag_89\n      jump\t// in\n    tag_172:\n        /* \"#utility.yul\":3409:3482   */\n      swap2\n      pop\n        /* \"#utility.yul\":3205:3492   */\n      pop\n        /* \"#utility.yul\":2990:3499   */\n      swap3\n      swap2\n      pop\n      pop\n      jump\t// out\n        /* \"#utility.yul\":3505:3638   */\n    tag_90:\n        /* \"#utility.yul\":3591:3597   */\n      0x00\n        /* \"#utility.yul\":3625:3630   */\n      dup2\n        /* \"#utility.yul\":3619:3631   */\n      mload\n        /* \"#utility.yul\":3609:3631   */\n      swap1\n      pop\n        /* \"#utility.yul\":3505:3638   */\n      swap2\n      swap1\n      pop\n      jump\t// out\n        /* \"#utility.yul\":3644:3847   */\n    tag_91:\n        /* \"#utility.yul\":3762:3773   */\n      0x00\n        /* \"#utility.yul\":3796:3802   */\n      dup3\n        /* \"#utility.yul\":3791:3794   */\n      dup3\n        /* \"#utility.yul\":3784:3803   */\n      mstore\n        /* \"#utility.yul\":3836:3840   */\n      0x20\n        /* \"#utility.yul\":3831:3834   */\n      dup3\n        /* \"#utility.yul\":3827:3841   */\n      add\n        /* \"#utility.yul\":3812:3841   */\n      swap1\n      pop\n        /* \"#utility.yul\":3644:3847   */\n      swap3\n      swap2\n      pop\n      pop\n      jump\t// out\n        /* \"#utility.yul\":3853:4004   */\n    tag_92:\n        /* \"#utility.yul\":3939:3943   */\n      0x00\n        /* \"#utility.yul\":3962:3965   */\n      dup2\n        /* \"#utility.yul\":3954:3965   */\n      swap1\n      pop\n        /* \"#utility.yul\":3992:3996   */\n      0x20\n        /* \"#utility.yul\":3987:3990   */\n      dup3\n        /* \"#utility.yul\":3983:3997   */\n      add\n        /* \"#utility.yul\":3975:3997   */\n      swap1\n      pop\n        /* \"#utility.yul\":3853:4004   */\n      swap2\n      swap1\n      pop\n      jump\t// out\n        /* \"#utility.yul\":4010:4136   */\n    tag_93:\n        /* \"#utility.yul\":4047:4054   */\n      0x00\n        /* \"#utility.yul\":4087:4129   */\n      0xffffffffffffffffffffffffffffffffffffffff\n        /* \"#utility.yul\":4080:4085   */\n      dup3\n        /* \"#utility.yul\":4076:4130   */\n      and\n        /* \"#utility.yul\":4065:4130   */\n      swap1\n      pop\n        /* \"#utility.yul\":4010:4136   */\n      swap2\n      swap1\n      pop\n      jump\t// out\n        /* \"#utility.yul\":4142:4238   */\n    tag_94:\n        /* \"#utility.yul\":4179:4186   */\n      0x00\n        /* \"#utility.yul\":4208:4232   */\n      tag_178\n        /* \"#utility.yul\":4226:4231   */\n      dup3\n        /* \"#utility.yul\":4208:4232   */\n      tag_93\n      jump\t// in\n    tag_178:\n        /* \"#utility.yul\":4197:4232   */\n      swap1\n      pop\n        /* \"#utility.yul\":4142:4238   */\n      swap2\n      swap1\n      pop\n      jump\t// out\n        /* \"#utility.yul\":4244:4352   */\n    tag_95:\n        /* \"#utility.yul\":4321:4345   */\n      tag_180\n        /* \"#utility.yul\":4339:4344   */\n      dup2\n        /* \"#utility.yul\":4321:4345   */\n      tag_94\n      jump\t// in\n    tag_180:\n        /* \"#utility.yul\":4316:4319   */\n      dup3\n        /* \"#utility.yul\":4309:4346   */\n      mstore\n        /* \"#utility.yul\":4244:4352   */\n      pop\n      pop\n      jump\t// out\n        /* \"#utility.yul\":4358:4466   */\n    tag_96:\n        /* \"#utility.yul\":4435:4459   */\n      tag_182\n        /* \"#utility.yul\":4453:4458   */\n      dup2\n        /* \"#utility.yul\":4435:4459   */\n      tag_75\n      jump\t// in\n    tag_182:\n        /* \"#utility.yul\":4430:4433   */\n      dup3\n        /* \"#utility.yul\":4423:4460   */\n      mstore\n        /* \"#utility.yul\":4358:4466   */\n      pop\n      pop\n      jump\t// out\n        /* \"#utility.yul\":4472:4571   */\n    tag_97:\n        /* \"#utility.yul\":4524:4530   */\n      0x00\n        /* \"#utility.yul\":4558:4563   */\n      dup2\n        /* \"#utility.yul\":4552:4564   */\n      mload\n        /* \"#utility.yul\":4542:4564   */\n      swap1\n      pop\n        /* \"#utility.yul\":4472:4571   */\n      swap2\n      swap1\n      pop\n      jump\t// out\n        /* \"#utility.yul\":4577:4736   */\n    tag_98:\n        /* \"#utility.yul\":4651:4662   */\n      0x00\n        /* \"#utility.yul\":4685:4691   */\n      dup3\n        /* \"#utility.yul\":4680:4683   */\n      dup3\n        /* \"#utility.yul\":4673:4692   */\n      mstore\n        /* \"#utility.yul\":4725:4729   */\n      0x20\n        /* \"#utility.yul\":4720:4723   */\n      dup3\n        /* \"#utility.yul\":4716:4730   */\n      add\n        /* \"#utility.yul\":4701:4730   */\n      swap1\n      pop\n        /* \"#utility.yul\":4577:4736   */\n      swap3\n      swap2\n      pop\n      pop\n      jump\t// out\n        /* \"#utility.yul\":4742:4881   */\n    tag_99:\n        /* \"#utility.yul\":4831:4837   */\n      dup3\n        /* \"#utility.yul\":4826:4829   */\n      dup2\n        /* \"#utility.yul\":4821:4824   */\n      dup4\n        /* \"#utility.yul\":4815:4838   */\n      mcopy\n        /* \"#utility.yul\":4872:4873   */\n      0x00\n        /* \"#utility.yul\":4863:4869   */\n      dup4\n        /* \"#utility.yul\":4858:4861   */\n      dup4\n        /* \"#utility.yul\":4854:4870   */\n      add\n        /* \"#utility.yul\":4847:4874   */\n      mstore\n        /* \"#utility.yul\":4742:4881   */\n      pop\n      pop\n      pop\n      jump\t// out\n        /* \"#utility.yul\":4887:5244   */\n    tag_100:\n        /* \"#utility.yul\":4965:4968   */\n      0x00\n        /* \"#utility.yul\":4993:5032   */\n      tag_187\n        /* \"#utility.yul\":5026:5031   */\n      dup3\n        /* \"#utility.yul\":4993:5032   */\n      tag_97\n      jump\t// in\n    tag_187:\n        /* \"#utility.yul\":5048:5109   */\n      tag_188\n        /* \"#utility.yul\":5102:5108   */\n      dup2\n        /* \"#utility.yul\":5097:5100   */\n      dup6\n        /* \"#utility.yul\":5048:5109   */\n      tag_98\n      jump\t// in\n    tag_188:\n        /* \"#utility.yul\":5041:5109   */\n      swap4\n      pop\n        /* \"#utility.yul\":5118:5183   */\n      tag_189\n        /* \"#utility.yul\":5176:5182   */\n      dup2\n        /* \"#utility.yul\":5171:5174   */\n      dup6\n        /* \"#utility.yul\":5164:5168   */\n      0x20\n        /* \"#utility.yul\":5157:5162   */\n      dup7\n        /* \"#utility.yul\":5153:5169   */\n      add\n        /* \"#utility.yul\":5118:5183   */\n      tag_99\n      jump\t// in\n    tag_189:\n        /* \"#utility.yul\":5208:5237   */\n      tag_190\n        /* \"#utility.yul\":5230:5236   */\n      dup2\n        /* \"#utility.yul\":5208:5237   */\n      tag_82\n      jump\t// in\n    tag_190:\n        /* \"#utility.yul\":5203:5206   */\n      dup5\n        /* \"#utility.yul\":5199:5238   */\n      add\n        /* \"#utility.yul\":5192:5238   */\n      swap2\n      pop\n        /* \"#utility.yul\":4969:5244   */\n      pop\n        /* \"#utility.yul\":4887:5244   */\n      swap3\n      swap2\n      pop\n      pop\n      jump\t// out\n        /* \"#utility.yul\":5296:6061   */\n    tag_101:\n        /* \"#utility.yul\":5393:5396   */\n      0x00\n        /* \"#utility.yul\":5429:5433   */\n      0x60\n        /* \"#utility.yul\":5424:5427   */\n      dup4\n        /* \"#utility.yul\":5420:5434   */\n      add\n        /* \"#utility.yul\":5518:5522   */\n      0x00\n        /* \"#utility.yul\":5511:5516   */\n      dup4\n        /* \"#utility.yul\":5507:5523   */\n      add\n        /* \"#utility.yul\":5501:5524   */\n      mload\n        /* \"#utility.yul\":5537:5600   */\n      tag_192\n        /* \"#utility.yul\":5594:5598   */\n      0x00\n        /* \"#utility.yul\":5589:5592   */\n      dup7\n        /* \"#utility.yul\":5585:5599   */\n      add\n        /* \"#utility.yul\":5571:5583   */\n      dup3\n        /* \"#utility.yul\":5537:5600   */\n      tag_95\n      jump\t// in\n    tag_192:\n        /* \"#utility.yul\":5444:5610   */\n      pop\n        /* \"#utility.yul\":5694:5698   */\n      0x20\n        /* \"#utility.yul\":5687:5692   */\n      dup4\n        /* \"#utility.yul\":5683:5699   */\n      add\n        /* \"#utility.yul\":5677:5700   */\n      mload\n        /* \"#utility.yul\":5713:5776   */\n      tag_193\n        /* \"#utility.yul\":5770:5774   */\n      0x20\n        /* \"#utility.yul\":5765:5768   */\n      dup7\n        /* \"#utility.yul\":5761:5775   */\n      add\n        /* \"#utility.yul\":5747:5759   */\n      dup3\n        /* \"#utility.yul\":5713:5776   */\n      tag_96\n      jump\t// in\n    tag_193:\n        /* \"#utility.yul\":5620:5786   */\n      pop\n        /* \"#utility.yul\":5871:5875   */\n      0x40\n        /* \"#utility.yul\":5864:5869   */\n      dup4\n        /* \"#utility.yul\":5860:5876   */\n      add\n        /* \"#utility.yul\":5854:5877   */\n      mload\n        /* \"#utility.yul\":5924:5927   */\n      dup5\n        /* \"#utility.yul\":5918:5922   */\n      dup3\n        /* \"#utility.yul\":5914:5928   */\n      sub\n        /* \"#utility.yul\":5907:5911   */\n      0x40\n        /* \"#utility.yul\":5902:5905   */\n      dup7\n        /* \"#utility.yul\":5898:5912   */\n      add\n        /* \"#utility.yul\":5891:5929   */\n      mstore\n        /* \"#utility.yul\":5950:6023   */\n      tag_194\n        /* \"#utility.yul\":6018:6022   */\n      dup3\n        /* \"#utility.yul\":6004:6016   */\n      dup3\n        /* \"#utility.yul\":5950:6023   */\n      tag_100\n      jump\t// in\n    tag_194:\n        /* \"#utility.yul\":5942:6023   */\n      swap2\n      pop\n        /* \"#utility.yul\":5796:6034   */\n      pop\n        /* \"#utility.yul\":6051:6055   */\n      dup1\n        /* \"#utility.yul\":6044:6055   */\n      swap2\n      pop\n        /* \"#utility.yul\":5398:6061   */\n      pop\n        /* \"#utility.yul\":5296:6061   */\n      swap3\n      swap2\n      pop\n      pop\n      jump\t// out\n        /* \"#utility.yul\":6067:6299   */\n    tag_102:\n        /* \"#utility.yul\":6174:6184   */\n      0x00\n        /* \"#utility.yul\":6209:6293   */\n      tag_196\n        /* \"#utility.yul\":6289:6292   */\n      dup4\n        /* \"#utility.yul\":6281:6287   */\n      dup4\n        /* \"#utility.yul\":6209:6293   */\n      tag_101\n      jump\t// in\n    tag_196:\n        /* \"#utility.yul\":6195:6293   */\n      swap1\n      pop\n        /* \"#utility.yul\":6067:6299   */\n      swap3\n      swap2\n      pop\n      pop\n      jump\t// out\n        /* \"#utility.yul\":6305:6437   */\n    tag_103:\n        /* \"#utility.yul\":6394:6398   */\n      0x00\n        /* \"#utility.yul\":6426:6430   */\n      0x20\n        /* \"#utility.yul\":6421:6424   */\n      dup3\n        /* \"#utility.yul\":6417:6431   */\n      add\n        /* \"#utility.yul\":6409:6431   */\n      swap1\n      pop\n        /* \"#utility.yul\":6305:6437   */\n      swap2\n      swap1\n      pop\n      jump\t// out\n        /* \"#utility.yul\":6493:7556   */\n    tag_104:\n        /* \"#utility.yul\":6650:6653   */\n      0x00\n        /* \"#utility.yul\":6679:6752   */\n      tag_199\n        /* \"#utility.yul\":6746:6751   */\n      dup3\n        /* \"#utility.yul\":6679:6752   */\n      tag_90\n      jump\t// in\n    tag_199:\n        /* \"#utility.yul\":6768:6873   */\n      tag_200\n        /* \"#utility.yul\":6866:6872   */\n      dup2\n        /* \"#utility.yul\":6861:6864   */\n      dup6\n        /* \"#utility.yul\":6768:6873   */\n      tag_91\n      jump\t// in\n    tag_200:\n        /* \"#utility.yul\":6761:6873   */\n      swap4\n      pop\n        /* \"#utility.yul\":6899:6902   */\n      dup4\n        /* \"#utility.yul\":6944:6948   */\n      0x20\n        /* \"#utility.yul\":6936:6942   */\n      dup3\n        /* \"#utility.yul\":6932:6949   */\n      mul\n        /* \"#utility.yul\":6927:6930   */\n      dup6\n        /* \"#utility.yul\":6923:6950   */\n      add\n        /* \"#utility.yul\":6974:7049   */\n      tag_201\n        /* \"#utility.yul\":7043:7048   */\n      dup6\n        /* \"#utility.yul\":6974:7049   */\n      tag_92\n      jump\t// in\n    tag_201:\n        /* \"#utility.yul\":7072:7079   */\n      dup1\n        /* \"#utility.yul\":7103:7104   */\n      0x00\n        /* \"#utility.yul\":7088:7511   */\n    tag_202:\n        /* \"#utility.yul\":7113:7119   */\n      dup6\n        /* \"#utility.yul\":7110:7111   */\n      dup2\n        /* \"#utility.yul\":7107:7120   */\n      lt\n        /* \"#utility.yul\":7088:7511   */\n      iszero\n      tag_204\n      jumpi\n        /* \"#utility.yul\":7184:7193   */\n      dup5\n        /* \"#utility.yul\":7178:7182   */\n      dup5\n        /* \"#utility.yul\":7174:7194   */\n      sub\n        /* \"#utility.yul\":7169:7172   */\n      dup10\n        /* \"#utility.yul\":7162:7195   */\n      mstore\n        /* \"#utility.yul\":7235:7241   */\n      dup2\n        /* \"#utility.yul\":7229:7242   */\n      mload\n        /* \"#utility.yul\":7263:7365   */\n      tag_205\n        /* \"#utility.yul\":7360:7364   */\n      dup6\n        /* \"#utility.yul\":7345:7358   */\n      dup3\n        /* \"#utility.yul\":7263:7365   */\n      tag_102\n      jump\t// in\n    tag_205:\n        /* \"#utility.yul\":7255:7365   */\n      swap5\n      pop\n        /* \"#utility.yul\":7388:7467   */\n      tag_206\n        /* \"#utility.yul\":7460:7466   */\n      dup4\n        /* \"#utility.yul\":7388:7467   */\n      tag_103\n      jump\t// in\n    tag_206:\n        /* \"#utility.yul\":7378:7467   */\n      swap3\n      pop\n        /* \"#utility.yul\":7496:7500   */\n      0x20\n        /* \"#utility.yul\":7491:7494   */\n      dup11\n        /* \"#utility.yul\":7487:7501   */\n      add\n        /* \"#utility.yul\":7480:7501   */\n      swap10\n      pop\n        /* \"#utility.yul\":7148:7511   */\n      pop\n        /* \"#utility.yul\":7135:7136   */\n      0x01\n        /* \"#utility.yul\":7132:7133   */\n      dup2\n        /* \"#utility.yul\":7128:7137   */\n      add\n        /* \"#utility.yul\":7123:7137   */\n      swap1\n      pop\n        /* \"#utility.yul\":7088:7511   */\n      jump(tag_202)\n    tag_204:\n        /* \"#utility.yul\":7092:7106   */\n      pop\n        /* \"#utility.yul\":7527:7531   */\n      dup3\n        /* \"#utility.yul\":7520:7531   */\n      swap8\n      pop\n        /* \"#utility.yul\":7547:7550   */\n      dup8\n        /* \"#utility.yul\":7540:7550   */\n      swap6\n      pop\n        /* \"#utility.yul\":6655:7556   */\n      pop\n      pop\n      pop\n      pop\n      pop\n        /* \"#utility.yul\":6493:7556   */\n      swap3\n      swap2\n      pop\n      pop\n      jump\t// out\n        /* \"#utility.yul\":7562:8011   */\n    tag_24:\n        /* \"#utility.yul\":7743:7747   */\n      0x00\n        /* \"#utility.yul\":7781:7783   */\n      0x20\n        /* \"#utility.yul\":7770:7779   */\n      dup3\n        /* \"#utility.yul\":7766:7784   */\n      add\n        /* \"#utility.yul\":7758:7784   */\n      swap1\n      pop\n        /* \"#utility.yul\":7830:7839   */\n      dup2\n        /* \"#utility.yul\":7824:7828   */\n      dup2\n        /* \"#utility.yul\":7820:7840   */\n      sub\n        /* \"#utility.yul\":7816:7817   */\n      0x00\n        /* \"#utility.yul\":7805:7814   */\n      dup4\n        /* \"#utility.yul\":7801:7818   */\n      add\n        /* \"#utility.yul\":7794:7841   */\n      mstore\n        /* \"#utility.yul\":7858:8004   */\n      tag_208\n        /* \"#utility.yul\":7999:8003   */\n      dup2\n        /* \"#utility.yul\":7990:7996   */\n      dup5\n        /* \"#utility.yul\":7858:8004   */\n      tag_104\n      jump\t// in\n    tag_208:\n        /* \"#utility.yul\":7850:8004   */\n      swap1\n      pop\n        /* \"#utility.yul\":7562:8011   */\n      swap3\n      swap2\n      pop\n      pop\n      jump\t// out\n        /* \"#utility.yul\":8017:8135   */\n    tag_105:\n        /* \"#utility.yul\":8104:8128   */\n      tag_210\n        /* \"#utility.yul\":8122:8127   */\n      dup2\n        /* \"#utility.yul\":8104:8128   */\n      tag_94\n      jump\t// in\n    tag_210:\n        /* \"#utility.yul\":8099:8102   */\n      dup3\n        /* \"#utility.yul\":8092:8129   */\n      mstore\n        /* \"#utility.yul\":8017:8135   */\n      pop\n      pop\n      jump\t// out\n        /* \"#utility.yul\":8141:8363   */\n    tag_29:\n        /* \"#utility.yul\":8234:8238   */\n      0x00\n        /* \"#utility.yul\":8272:8274   */\n      0x20\n        /* \"#utility.yul\":8261:8270   */\n      dup3\n        /* \"#utility.yul\":8257:8275   */\n      add\n        /* \"#utility.yul\":8249:8275   */\n      swap1\n      pop\n        /* \"#utility.yul\":8285:8356   */\n      tag_212\n        /* \"#utility.yul\":8353:8354   */\n      0x00\n        /* \"#utility.yul\":8342:8351   */\n      dup4\n        /* \"#utility.yul\":8338:8355   */\n      add\n        /* \"#utility.yul\":8329:8335   */\n      dup5\n        /* \"#utility.yul\":8285:8356   */\n      tag_105\n      jump\t// in\n    tag_212:\n        /* \"#utility.yul\":8141:8363   */\n      swap3\n      swap2\n      pop\n      pop\n      jump\t// out\n        /* \"#utility.yul\":8369:8491   */\n    tag_106:\n        /* \"#utility.yul\":8442:8466   */\n      tag_214\n        /* \"#utility.yul\":8460:8465   */\n      dup2\n        /* \"#utility.yul\":8442:8466   */\n      tag_75\n      jump\t// in\n    tag_214:\n        /* \"#utility.yul\":8435:8440   */\n      dup2\n        /* \"#utility.yul\":8432:8467   */\n      eq\n        /* \"#utility.yul\":8422:8485   */\n      tag_215\n      jumpi\n        /* \"#utility.yul\":8481:8482   */\n      0x00\n        /* \"#utility.yul\":8478:8479   */\n      0x00\n        /* \"#utility.yul\":8471:8483   */\n      revert\n        /* \"#utility.yul\":8422:8485   */\n    tag_215:\n        /* \"#utility.yul\":8369:8491   */\n      pop\n      jump\t// out\n        /* \"#utility.yul\":8497:8636   */\n    tag_107:\n        /* \"#utility.yul\":8543:8548   */\n      0x00\n        /* \"#utility.yul\":8581:8587   */\n      dup2\n        /* \"#utility.yul\":8568:8588   */\n      calldataload\n        /* \"#utility.yul\":8559:8588   */\n      swap1\n      pop\n        /* \"#utility.yul\":8597:8630   */\n      tag_217\n        /* \"#utility.yul\":8624:8629   */\n      dup2\n        /* \"#utility.yul\":8597:8630   */\n      tag_106\n      jump\t// in\n    tag_217:\n        /* \"#utility.yul\":8497:8636   */\n      swap3\n      swap2\n      pop\n      pop\n      jump\t// out\n        /* \"#utility.yul\":8642:8971   */\n    tag_33:\n        /* \"#utility.yul\":8701:8707   */\n      0x00\n        /* \"#utility.yul\":8750:8752   */\n      0x20\n        /* \"#utility.yul\":8738:8747   */\n      dup3\n        /* \"#utility.yul\":8729:8736   */\n      dup5\n        /* \"#utility.yul\":8725:8748   */\n      sub\n        /* \"#utility.yul\":8721:8753   */\n      slt\n        /* \"#utility.yul\":8718:8837   */\n      iszero\n      tag_219\n      jumpi\n        /* \"#utility.yul\":8756:8835   */\n      tag_220\n      tag_78\n      jump\t// in\n    tag_220:\n        /* \"#utility.yul\":8718:8837   */\n    tag_219:\n        /* \"#utility.yul\":8876:8877   */\n      0x00\n        /* \"#utility.yul\":8901:8954   */\n      tag_221\n        /* \"#utility.yul\":8946:8953   */\n      dup5\n        /* \"#utility.yul\":8937:8943   */\n      dup3\n        /* \"#utility.yul\":8926:8935   */\n      dup6\n        /* \"#utility.yul\":8922:8944   */\n      add\n        /* \"#utility.yul\":8901:8954   */\n      tag_107\n      jump\t// in\n    tag_221:\n        /* \"#utility.yul\":8891:8954   */\n      swap2\n      pop\n        /* \"#utility.yul\":8847:8964   */\n      pop\n        /* \"#utility.yul\":8642:8971   */\n      swap3\n      swap2\n      pop\n      pop\n      jump\t// out\n        /* \"#utility.yul\":8977:9146   */\n    tag_108:\n        /* \"#utility.yul\":9061:9072   */\n      0x00\n        /* \"#utility.yul\":9095:9101   */\n      dup3\n        /* \"#utility.yul\":9090:9093   */\n      dup3\n        /* \"#utility.yul\":9083:9102   */\n      mstore\n        /* \"#utility.yul\":9135:9139   */\n      0x20\n        /* \"#utility.yul\":9130:9133   */\n      dup3\n        /* \"#utility.yul\":9126:9140   */\n      add\n        /* \"#utility.yul\":9111:9140   */\n      swap1\n      pop\n        /* \"#utility.yul\":8977:9146   */\n      swap3\n      swap2\n      pop\n      pop\n      jump\t// out\n        /* \"#utility.yul\":9152:9529   */\n    tag_109:\n        /* \"#utility.yul\":9240:9243   */\n      0x00\n        /* \"#utility.yul\":9268:9307   */\n      tag_224\n        /* \"#utility.yul\":9301:9306   */\n      dup3\n        /* \"#utility.yul\":9268:9307   */\n      tag_97\n      jump\t// in\n    tag_224:\n        /* \"#utility.yul\":9323:9394   */\n      tag_225\n        /* \"#utility.yul\":9387:9393   */\n      dup2\n        /* \"#utility.yul\":9382:9385   */\n      dup6\n        /* \"#utility.yul\":9323:9394   */\n      tag_108\n      jump\t// in\n    tag_225:\n        /* \"#utility.yul\":9316:9394   */\n      swap4\n      pop\n        /* \"#utility.yul\":9403:9468   */\n      tag_226\n        /* \"#utility.yul\":9461:9467   */\n      dup2\n        /* \"#utility.yul\":9456:9459   */\n      dup6\n        /* \"#utility.yul\":9449:9453   */\n      0x20\n        /* \"#utility.yul\":9442:9447   */\n      dup7\n        /* \"#utility.yul\":9438:9454   */\n      add\n        /* \"#utility.yul\":9403:9468   */\n      tag_99\n      jump\t// in\n    tag_226:\n        /* \"#utility.yul\":9493:9522   */\n      tag_227\n        /* \"#utility.yul\":9515:9521   */\n      dup2\n        /* \"#utility.yul\":9493:9522   */\n      tag_82\n      jump\t// in\n    tag_227:\n        /* \"#utility.yul\":9488:9491   */\n      dup5\n        /* \"#utility.yul\":9484:9523   */\n      add\n        /* \"#utility.yul\":9477:9523   */\n      swap2\n      pop\n        /* \"#utility.yul\":9244:9529   */\n      pop\n        /* \"#utility.yul\":9152:9529   */\n      swap3\n      swap2\n      pop\n      pop\n      jump\t// out\n        /* \"#utility.yul\":9535:10068   */\n    tag_36:\n        /* \"#utility.yul\":9704:9708   */\n      0x00\n        /* \"#utility.yul\":9742:9744   */\n      0x60\n        /* \"#utility.yul\":9731:9740   */\n      dup3\n        /* \"#utility.yul\":9727:9745   */\n      add\n        /* \"#utility.yul\":9719:9745   */\n      swap1\n      pop\n        /* \"#utility.yul\":9755:9826   */\n      tag_229\n        /* \"#utility.yul\":9823:9824   */\n      0x00\n        /* \"#utility.yul\":9812:9821   */\n      dup4\n        /* \"#utility.yul\":9808:9825   */\n      add\n        /* \"#utility.yul\":9799:9805   */\n      dup7\n        /* \"#utility.yul\":9755:9826   */\n      tag_105\n      jump\t// in\n    tag_229:\n        /* \"#utility.yul\":9836:9908   */\n      tag_230\n        /* \"#utility.yul\":9904:9906   */\n      0x20\n        /* \"#utility.yul\":9893:9902   */\n      dup4\n        /* \"#utility.yul\":9889:9907   */\n      add\n        /* \"#utility.yul\":9880:9886   */\n      dup6\n        /* \"#utility.yul\":9836:9908   */\n      tag_76\n      jump\t// in\n    tag_230:\n        /* \"#utility.yul\":9955:9964   */\n      dup2\n        /* \"#utility.yul\":9949:9953   */\n      dup2\n        /* \"#utility.yul\":9945:9965   */\n      sub\n        /* \"#utility.yul\":9940:9942   */\n      0x40\n        /* \"#utility.yul\":9929:9938   */\n      dup4\n        /* \"#utility.yul\":9925:9943   */\n      add\n        /* \"#utility.yul\":9918:9966   */\n      mstore\n        /* \"#utility.yul\":9983:10061   */\n      tag_231\n        /* \"#utility.yul\":10056:10060   */\n      dup2\n        /* \"#utility.yul\":10047:10053   */\n      dup5\n        /* \"#utility.yul\":9983:10061   */\n      tag_109\n      jump\t// in\n    tag_231:\n        /* \"#utility.yul\":9975:10061   */\n      swap1\n      pop\n        /* \"#utility.yul\":9535:10068   */\n      swap5\n      swap4\n      pop\n      pop\n      pop\n      pop\n      jump\t// out\n        /* \"#utility.yul\":10074:10233   */\n    tag_110:\n        /* \"#utility.yul\":10214:10225   */\n      0x4e6f74206f776e65720000000000000000000000000000000000000000000000\n        /* \"#utility.yul\":10210:10211   */\n      0x00\n        /* \"#utility.yul\":10202:10208   */\n      dup3\n        /* \"#utility.yul\":10198:10212   */\n      add\n        /* \"#utility.yul\":10191:10226   */\n      mstore\n        /* \"#utility.yul\":10074:10233   */\n      pop\n      jump\t// out\n        /* \"#utility.yul\":10239:10604   */\n    tag_111:\n        /* \"#utility.yul\":10381:10384   */\n      0x00\n        /* \"#utility.yul\":10402:10468   */\n      tag_234\n        /* \"#utility.yul\":10466:10467   */\n      0x09\n        /* \"#utility.yul\":10461:10464   */\n      dup4\n        /* \"#utility.yul\":10402:10468   */\n      tag_108\n      jump\t// in\n    tag_234:\n        /* \"#utility.yul\":10395:10468   */\n      swap2\n      pop\n        /* \"#utility.yul\":10477:10570   */\n      tag_235\n        /* \"#utility.yul\":10566:10569   */\n      dup3\n        /* \"#utility.yul\":10477:10570   */\n      tag_110\n      jump\t// in\n    tag_235:\n        /* \"#utility.yul\":10595:10597   */\n      0x20\n        /* \"#utility.yul\":10590:10593   */\n      dup3\n        /* \"#utility.yul\":10586:10598   */\n      add\n        /* \"#utility.yul\":10579:10598   */\n      swap1\n      pop\n        /* \"#utility.yul\":10239:10604   */\n      swap2\n      swap1\n      pop\n      jump\t// out\n        /* \"#utility.yul\":10610:11029   */\n    tag_41:\n        /* \"#utility.yul\":10776:10780   */\n      0x00\n        /* \"#utility.yul\":10814:10816   */\n      0x20\n        /* \"#utility.yul\":10803:10812   */\n      dup3\n        /* \"#utility.yul\":10799:10817   */\n      add\n        /* \"#utility.yul\":10791:10817   */\n      swap1\n      pop\n        /* \"#utility.yul\":10863:10872   */\n      dup2\n        /* \"#utility.yul\":10857:10861   */\n      dup2\n        /* \"#utility.yul\":10853:10873   */\n      sub\n        /* \"#utility.yul\":10849:10850   */\n      0x00\n        /* \"#utility.yul\":10838:10847   */\n      dup4\n        /* \"#utility.yul\":10834:10851   */\n      add\n        /* \"#utility.yul\":10827:10874   */\n      mstore\n        /* \"#utility.yul\":10891:11022   */\n      tag_237\n        /* \"#utility.yul\":11017:11021   */\n      dup2\n        /* \"#utility.yul\":10891:11022   */\n      tag_111\n      jump\t// in\n    tag_237:\n        /* \"#utility.yul\":10883:11022   */\n      swap1\n      pop\n        /* \"#utility.yul\":10610:11029   */\n      swap2\n      swap1\n      pop\n      jump\t// out\n        /* \"#utility.yul\":11035:11193   */\n    tag_112:\n        /* \"#utility.yul\":11175:11185   */\n      0x4e6f2066756e6473000000000000000000000000000000000000000000000000\n        /* \"#utility.yul\":11171:11172   */\n      0x00\n        /* \"#utility.yul\":11163:11169   */\n      dup3\n        /* \"#utility.yul\":11159:11173   */\n      add\n        /* \"#utility.yul\":11152:11186   */\n      mstore\n        /* \"#utility.yul\":11035:11193   */\n      pop\n      jump\t// out\n        /* \"#utility.yul\":11199:11564   */\n    tag_113:\n        /* \"#utility.yul\":11341:11344   */\n      0x00\n        /* \"#utility.yul\":11362:11428   */\n      tag_240\n        /* \"#utility.yul\":11426:11427   */\n      0x08\n        /* \"#utility.yul\":11421:11424   */\n      dup4\n        /* \"#utility.yul\":11362:11428   */\n      tag_108\n      jump\t// in\n    tag_240:\n        /* \"#utility.yul\":11355:11428   */\n      swap2\n      pop\n        /* \"#utility.yul\":11437:11530   */\n      tag_241\n        /* \"#utility.yul\":11526:11529   */\n      dup3\n        /* \"#utility.yul\":11437:11530   */\n      tag_112\n      jump\t// in\n    tag_241:\n        /* \"#utility.yul\":11555:11557   */\n      0x20\n        /* \"#utility.yul\":11550:11553   */\n      dup3\n        /* \"#utility.yul\":11546:11558   */\n      add\n        /* \"#utility.yul\":11539:11558   */\n      swap1\n      pop\n        /* \"#utility.yul\":11199:11564   */\n      swap2\n      swap1\n      pop\n      jump\t// out\n        /* \"#utility.yul\":11570:11989   */\n    tag_45:\n        /* \"#utility.yul\":11736:11740   */\n      0x00\n        /* \"#utility.yul\":11774:11776   */\n      0x20\n        /* \"#utility.yul\":11763:11772   */\n      dup3\n        /* \"#utility.yul\":11759:11777   */\n      add\n        /* \"#utility.yul\":11751:11777   */\n      swap1\n      pop\n        /* \"#utility.yul\":11823:11832   */\n      dup2\n        /* \"#utility.yul\":11817:11821   */\n      dup2\n        /* \"#utility.yul\":11813:11833   */\n      sub\n        /* \"#utility.yul\":11809:11810   */\n      0x00\n        /* \"#utility.yul\":11798:11807   */\n      dup4\n        /* \"#utility.yul\":11794:11811   */\n      add\n        /* \"#utility.yul\":11787:11834   */\n      mstore\n        /* \"#utility.yul\":11851:11982   */\n      tag_243\n        /* \"#utility.yul\":11977:11981   */\n      dup2\n        /* \"#utility.yul\":11851:11982   */\n      tag_113\n      jump\t// in\n    tag_243:\n        /* \"#utility.yul\":11843:11982   */\n      swap1\n      pop\n        /* \"#utility.yul\":11570:11989   */\n      swap2\n      swap1\n      pop\n      jump\t// out\n        /* \"#utility.yul\":11995:12158   */\n    tag_114:\n        /* \"#utility.yul\":12135:12150   */\n      0x53656e6420736f6d652045544800000000000000000000000000000000000000\n        /* \"#utility.yul\":12131:12132   */\n      0x00\n        /* \"#utility.yul\":12123:12129   */\n      dup3\n        /* \"#utility.yul\":12119:12133   */\n      add\n        /* \"#utility.yul\":12112:12151   */\n      mstore\n        /* \"#utility.yul\":11995:12158   */\n      pop\n      jump\t// out\n        /* \"#utility.yul\":12164:12530   */\n    tag_115:\n        /* \"#utility.yul\":12306:12309   */\n      0x00\n        /* \"#utility.yul\":12327:12394   */\n      tag_246\n        /* \"#utility.yul\":12391:12393   */\n      0x0d\n        /* \"#utility.yul\":12386:12389   */\n      dup4\n        /* \"#utility.yul\":12327:12394   */\n      tag_108\n      jump\t// in\n    tag_246:\n        /* \"#utility.yul\":12320:12394   */\n      swap2\n      pop\n        /* \"#utility.yul\":12403:12496   */\n      tag_247\n        /* \"#utility.yul\":12492:12495   */\n      dup3\n        /* \"#utility.yul\":12403:12496   */\n      tag_114\n      jump\t// in\n    tag_247:\n        /* \"#utility.yul\":12521:12523   */\n      0x20\n        /* \"#utility.yul\":12516:12519   */\n      dup3\n        /* \"#utility.yul\":12512:12524   */\n      add\n        /* \"#utility.yul\":12505:12524   */\n      swap1\n      pop\n        /* \"#utility.yul\":12164:12530   */\n      swap2\n      swap1\n      pop\n      jump\t// out\n        /* \"#utility.yul\":12536:12955   */\n    tag_52:\n        /* \"#utility.yul\":12702:12706   */\n      0x00\n        /* \"#utility.yul\":12740:12742   */\n      0x20\n        /* \"#utility.yul\":12729:12738   */\n      dup3\n        /* \"#utility.yul\":12725:12743   */\n      add\n        /* \"#utility.yul\":12717:12743   */\n      swap1\n      pop\n        /* \"#utility.yul\":12789:12798   */\n      dup2\n        /* \"#utility.yul\":12783:12787   */\n      dup2\n        /* \"#utility.yul\":12779:12799   */\n      sub\n        /* \"#utility.yul\":12775:12776   */\n      0x00\n        /* \"#utility.yul\":12764:12773   */\n      dup4\n        /* \"#utility.yul\":12760:12777   */\n      add\n        /* \"#utility.yul\":12753:12800   */\n      mstore\n        /* \"#utility.yul\":12817:12948   */\n      tag_249\n        /* \"#utility.yul\":12943:12947   */\n      dup2\n        /* \"#utility.yul\":12817:12948   */\n      tag_115\n      jump\t// in\n    tag_249:\n        /* \"#utility.yul\":12809:12948   */\n      swap1\n      pop\n        /* \"#utility.yul\":12536:12955   */\n      swap2\n      swap1\n      pop\n      jump\t// out\n        /* \"#utility.yul\":12961:13141   */\n    tag_116:\n        /* \"#utility.yul\":13009:13086   */\n      0x4e487b7100000000000000000000000000000000000000000000000000000000\n        /* \"#utility.yul\":13006:13007   */\n      0x00\n        /* \"#utility.yul\":12999:13087   */\n      mstore\n        /* \"#utility.yul\":13106:13110   */\n      0x22\n        /* \"#utility.yul\":13103:13104   */\n      0x04\n        /* \"#utility.yul\":13096:13111   */\n      mstore\n        /* \"#utility.yul\":13130:13134   */\n      0x24\n        /* \"#utility.yul\":13127:13128   */\n      0x00\n        /* \"#utility.yul\":13120:13135   */\n      revert\n        /* \"#utility.yul\":13147:13467   */\n    tag_63:\n        /* \"#utility.yul\":13191:13197   */\n      0x00\n        /* \"#utility.yul\":13228:13229   */\n      0x02\n        /* \"#utility.yul\":13222:13226   */\n      dup3\n        /* \"#utility.yul\":13218:13230   */\n      div\n        /* \"#utility.yul\":13208:13230   */\n      swap1\n      pop\n        /* \"#utility.yul\":13275:13276   */\n      0x01\n        /* \"#utility.yul\":13269:13273   */\n      dup3\n        /* \"#utility.yul\":13265:13277   */\n      and\n        /* \"#utility.yul\":13296:13314   */\n      dup1\n        /* \"#utility.yul\":13286:13367   */\n      tag_252\n      jumpi\n        /* \"#utility.yul\":13352:13356   */\n      0x7f\n        /* \"#utility.yul\":13344:13350   */\n      dup3\n        /* \"#utility.yul\":13340:13357   */\n      and\n        /* \"#utility.yul\":13330:13357   */\n      swap2\n      pop\n        /* \"#utility.yul\":13286:13367   */\n    tag_252:\n        /* \"#utility.yul\":13414:13416   */\n      0x20\n        /* \"#utility.yul\":13406:13412   */\n      dup3\n        /* \"#utility.yul\":13403:13417   */\n      lt\n        /* \"#utility.yul\":13383:13401   */\n      dup2\n        /* \"#utility.yul\":13380:13418   */\n      sub\n        /* \"#utility.yul\":13377:13461   */\n      tag_253\n      jumpi\n        /* \"#utility.yul\":13433:13451   */\n      tag_254\n      tag_116\n      jump\t// in\n    tag_254:\n        /* \"#utility.yul\":13377:13461   */\n    tag_253:\n        /* \"#utility.yul\":13198:13467   */\n      pop\n        /* \"#utility.yul\":13147:13467   */\n      swap2\n      swap1\n      pop\n      jump\t// out\n        /* \"#utility.yul\":13473:13614   */\n    tag_117:\n        /* \"#utility.yul\":13522:13526   */\n      0x00\n        /* \"#utility.yul\":13545:13548   */\n      dup2\n        /* \"#utility.yul\":13537:13548   */\n      swap1\n      pop\n        /* \"#utility.yul\":13568:13571   */\n      dup2\n        /* \"#utility.yul\":13565:13566   */\n      0x00\n        /* \"#utility.yul\":13558:13572   */\n      mstore\n        /* \"#utility.yul\":13602:13606   */\n      0x20\n        /* \"#utility.yul\":13599:13600   */\n      0x00\n        /* \"#utility.yul\":13589:13607   */\n      keccak256\n        /* \"#utility.yul\":13581:13607   */\n      swap1\n      pop\n        /* \"#utility.yul\":13473:13614   */\n      swap2\n      swap1\n      pop\n      jump\t// out\n        /* \"#utility.yul\":13620:13713   */\n    tag_118:\n        /* \"#utility.yul\":13657:13663   */\n      0x00\n        /* \"#utility.yul\":13704:13706   */\n      0x20\n        /* \"#utility.yul\":13699:13701   */\n      0x1f\n        /* \"#utility.yul\":13692:13697   */\n      dup4\n        /* \"#utility.yul\":13688:13702   */\n      add\n        /* \"#utility.yul\":13684:13707   */\n      div\n        /* \"#utility.yul\":13674:13707   */\n      swap1\n      pop\n        /* \"#utility.yul\":13620:13713   */\n      swap2\n      swap1\n      pop\n      jump\t// out\n        /* \"#utility.yul\":13719:13826   */\n    tag_119:\n        /* \"#utility.yul\":13763:13771   */\n      0x00\n        /* \"#utility.yul\":13813:13818   */\n      dup3\n        /* \"#utility.yul\":13807:13811   */\n      dup3\n        /* \"#utility.yul\":13803:13819   */\n      shl\n        /* \"#utility.yul\":13782:13819   */\n      swap1\n      pop\n        /* \"#utility.yul\":13719:13826   */\n      swap3\n      swap2\n      pop\n      pop\n      jump\t// out\n        /* \"#utility.yul\":13832:14225   */\n    tag_120:\n        /* \"#utility.yul\":13901:13907   */\n      0x00\n        /* \"#utility.yul\":13951:13952   */\n      0x08\n        /* \"#utility.yul\":13939:13949   */\n      dup4\n        /* \"#utility.yul\":13935:13953   */\n      mul\n        /* \"#utility.yul\":13974:14071   */\n      tag_259\n        /* \"#utility.yul\":14004:14070   */\n      0xffffffffffffffffffffffffffffffffffffffffffffffffffffffffffffffff\n        /* \"#utility.yul\":13993:14002   */\n      dup3\n        /* \"#utility.yul\":13974:14071   */\n      tag_119\n      jump\t// in\n    tag_259:\n        /* \"#utility.yul\":14092:14131   */\n      tag_260\n        /* \"#utility.yul\":14122:14130   */\n      dup7\n        /* \"#utility.yul\":14111:14120   */\n      dup4\n        /* \"#utility.yul\":14092:14131   */\n      tag_119\n      jump\t// in\n    tag_260:\n        /* \"#utility.yul\":14080:14131   */\n      swap6\n      pop\n        /* \"#utility.yul\":14164:14168   */\n      dup1\n        /* \"#utility.yul\":14160:14169   */\n      not\n        /* \"#utility.yul\":14153:14158   */\n      dup5\n        /* \"#utility.yul\":14149:14170   */\n      and\n        /* \"#utility.yul\":14140:14170   */\n      swap4\n      pop\n        /* \"#utility.yul\":14213:14217   */\n      dup1\n        /* \"#utility.yul\":14203:14211   */\n      dup7\n        /* \"#utility.yul\":14199:14218   */\n      and\n        /* \"#utility.yul\":14192:14197   */\n      dup5\n        /* \"#utility.yul\":14189:14219   */\n      or\n        /* \"#utility.yul\":14179:14219   */\n      swap3\n      pop\n        /* \"#utility.yul\":13908:14225   */\n      pop\n      pop\n        /* \"#utility.yul\":13832:14225   */\n      swap4\n      swap3\n      pop\n      pop\n      pop\n      jump\t// out\n        /* \"#utility.yul\":14231:14291   */\n    tag_121:\n        /* \"#utility.yul\":14259:14262   */\n      0x00\n        /* \"#utility.yul\":14280:14285   */\n      dup2\n        /* \"#utility.yul\":14273:14285   */\n      swap1\n      pop\n        /* \"#utility.yul\":14231:14291   */\n      swap2\n      swap1\n      pop\n      jump\t// out\n        /* \"#utility.yul\":14297:14439   */\n    tag_122:\n        /* \"#utility.yul\":14347:14356   */\n      0x00\n        /* \"#utility.yul\":14380:14433   */\n      tag_263\n        /* \"#utility.yul\":14398:14432   */\n      tag_264\n        /* \"#utility.yul\":14407:14431   */\n      tag_265\n        /* \"#utility.yul\":14425:14430   */\n      dup5\n        /* \"#utility.yul\":14407:14431   */\n      tag_75\n      jump\t// in\n    tag_265:\n        /* \"#utility.yul\":14398:14432   */\n      tag_121\n      jump\t// in\n    tag_264:\n        /* \"#utility.yul\":14380:14433   */\n      tag_75\n      jump\t// in\n    tag_263:\n        /* \"#utility.yul\":14367:14433   */\n      swap1\n      pop\n        /* \"#utility.yul\":14297:14439   */\n      swap2\n      swap1\n      pop\n      jump\t// out\n        /* \"#utility.yul\":14445:14520   */\n    tag_123:\n        /* \"#utility.yul\":14488:14491   */\n      0x00\n        /* \"#utility.yul\":14509:14514   */\n      dup2\n        /* \"#utility.yul\":14502:14514   */\n      swap1\n      pop\n        /* \"#utility.yul\":14445:14520   */\n      swap2\n      swap1\n      pop\n      jump\t// out\n        /* \"#utility.yul\":14526:14795   */\n    tag_124:\n        /* \"#utility.yul\":14636:14675   */\n      tag_268\n        /* \"#utility.yul\":14667:14674   */\n      dup4\n        /* \"#utility.yul\":14636:14675   */\n      tag_122\n      jump\t// in\n    tag_268:\n        /* \"#utility.yul\":14697:14788   */\n      tag_269\n        /* \"#utility.yul\":14746:14787   */\n      tag_270\n        /* \"#utility.yul\":14770:14786   */\n      dup3\n        /* \"#utility.yul\":14746:14787   */\n      tag_123\n      jump\t// in\n    tag_270:\n        /* \"#utility.yul\":14738:14744   */\n      dup5\n        /* \"#utility.yul\":14731:14735   */\n      dup5\n        /* \"#utility.yul\":14725:14736   */\n      sload\n        /* \"#utility.yul\":14697:14788   */\n      tag_120\n      jump\t// in\n    tag_269:\n        /* \"#utility.yul\":14691:14695   */\n      dup3\n        /* \"#utility.yul\":14684:14789   */\n      sstore\n        /* \"#utility.yul\":14602:14795   */\n      pop\n        /* \"#utility.yul\":14526:14795   */\n      pop\n      pop\n      pop\n      jump\t// out\n        /* \"#utility.yul\":14801:14874   */\n    tag_125:\n        /* \"#utility.yul\":14846:14849   */\n      0x00\n        /* \"#utility.yul\":14867:14868   */\n      0x00\n        /* \"#utility.yul\":14860:14868   */\n      swap1\n      pop\n        /* \"#utility.yul\":14801:14874   */\n      swap1\n      jump\t// out\n        /* \"#utility.yul\":14880:15069   */\n    tag_126:\n        /* \"#utility.yul\":14957:14989   */\n      tag_273\n      tag_125\n      jump\t// in\n    tag_273:\n        /* \"#utility.yul\":14998:15063   */\n      tag_274\n        /* \"#utility.yul\":15056:15062   */\n      dup2\n        /* \"#utility.yul\":15048:15054   */\n      dup5\n        /* \"#utility.yul\":15042:15046   */\n      dup5\n        /* \"#utility.yul\":14998:15063   */\n      tag_124\n      jump\t// in\n    tag_274:\n        /* \"#utility.yul\":14933:15069   */\n      pop\n        /* \"#utility.yul\":14880:15069   */\n      pop\n      pop\n      jump\t// out\n        /* \"#utility.yul\":15075:15289   */\n    tag_127:\n        /* \"#utility.yul\":15160:15161   */\n      0x00\n        /* \"#utility.yul\":15145:15283   */\n    tag_276:\n        /* \"#utility.yul\":15170:15179   */\n      dup3\n        /* \"#utility.yul\":15167:15168   */\n      dup2\n        /* \"#utility.yul\":15164:15180   */\n      lt\n        /* \"#utility.yul\":15145:15283   */\n      iszero\n      tag_278\n      jumpi\n        /* \"#utility.yul\":15222:15273   */\n      tag_279\n        /* \"#utility.yul\":15271:15272   */\n      0x00\n        /* \"#utility.yul\":15267:15268   */\n      dup3\n        /* \"#utility.yul\":15256:15265   */\n      dup5\n        /* \"#utility.yul\":15252:15269   */\n      add\n        /* \"#utility.yul\":15222:15273   */\n      tag_126\n      jump\t// in\n    tag_279:\n        /* \"#utility.yul\":15195:15196   */\n      0x01\n        /* \"#utility.yul\":15192:15193   */\n      dup2\n        /* \"#utility.yul\":15188:15197   */\n      add\n        /* \"#utility.yul\":15183:15197   */\n      swap1\n      pop\n        /* \"#utility.yul\":15145:15283   */\n      jump(tag_276)\n    tag_278:\n        /* \"#utility.yul\":15149:15163   */\n      pop\n        /* \"#utility.yul\":15075:15289   */\n      pop\n      pop\n      jump\t// out\n        /* \"#utility.yul\":15295:16041   */\n    tag_128:\n        /* \"#utility.yul\":15396:15398   */\n      0x1f\n        /* \"#utility.yul\":15391:15394   */\n      dup3\n        /* \"#utility.yul\":15388:15399   */\n      gt\n        /* \"#utility.yul\":15385:16034   */\n      iszero\n      tag_281\n      jumpi\n        /* \"#utility.yul\":15425:15435   */\n      dup3\n        /* \"#utility.yul\":15420:15423   */\n      dup3\n        /* \"#utility.yul\":15417:15436   */\n      gt\n        /* \"#utility.yul\":15414:16024   */\n      iszero\n      tag_282\n      jumpi\n        /* \"#utility.yul\":15471:15509   */\n      tag_283\n        /* \"#utility.yul\":15503:15508   */\n      dup2\n        /* \"#utility.yul\":15471:15509   */\n      tag_117\n      jump\t// in\n    tag_283:\n        /* \"#utility.yul\":15546:15568   */\n      tag_284\n        /* \"#utility.yul\":15564:15567   */\n      dup4\n        /* \"#utility.yul\":15546:15568   */\n      tag_118\n      jump\t// in\n    tag_284:\n        /* \"#utility.yul\":15605:15634   */\n      tag_285\n        /* \"#utility.yul\":15623:15633   */\n      dup6\n        /* \"#utility.yul\":15605:15634   */\n      tag_118\n      jump\t// in\n    tag_285:\n        /* \"#utility.yul\":15795:15797   */\n      0x20\n        /* \"#utility.yul\":15783:15793   */\n      dup7\n        /* \"#utility.yul\":15780:15798   */\n      lt\n        /* \"#utility.yul\":15777:15856   */\n      iszero\n      tag_286\n      jumpi\n        /* \"#utility.yul\":15837:15838   */\n      0x00\n        /* \"#utility.yul\":15821:15838   */\n      swap1\n      pop\n        /* \"#utility.yul\":15777:15856   */\n    tag_286:\n        /* \"#utility.yul\":15906:15918   */\n      dup1\n        /* \"#utility.yul\":15896:15904   */\n      dup4\n        /* \"#utility.yul\":15892:15919   */\n      add\n        /* \"#utility.yul\":15936:16010   */\n      tag_287\n        /* \"#utility.yul\":15996:16008   */\n      dup3\n        /* \"#utility.yul\":15982:15994   */\n      dup5\n        /* \"#utility.yul\":15978:16009   */\n      sub\n        /* \"#utility.yul\":15965:15976   */\n      dup3\n        /* \"#utility.yul\":15936:16010   */\n      tag_127\n      jump\t// in\n    tag_287:\n        /* \"#utility.yul\":15437:16024   */\n      pop\n      pop\n      pop\n      pop\n        /* \"#utility.yul\":15414:16024   */\n    tag_282:\n        /* \"#utility.yul\":15385:16034   */\n    tag_281:\n        /* \"#utility.yul\":15295:16041   */\n      pop\n      pop\n      pop\n      jump\t// out\n        /* \"#utility.yul\":16047:16164   */\n    tag_129:\n        /* \"#utility.yul\":16101:16109   */\n      0x00\n        /* \"#utility.yul\":16151:16156   */\n      dup3\n        /* \"#utility.yul\":16145:16149   */\n      dup3\n        /* \"#utility.yul\":16141:16157   */\n      shr\n        /* \"#utility.yul\":16120:16157   */\n      swap1\n      pop\n        /* \"#utility.yul\":16047:16164   */\n      swap3\n      swap2\n      pop\n      pop\n      jump\t// out\n        /* \"#utility.yul\":16170:16339   */\n    tag_130:\n        /* \"#utility.yul\":16214:16220   */\n      0x00\n        /* \"#utility.yul\":16247:16298   */\n      tag_290\n        /* \"#utility.yul\":16295:16296   */\n      0x00\n        /* \"#utility.yul\":16291:16297   */\n      not\n        /* \"#utility.yul\":16283:16288   */\n      dup5\n        /* \"#utility.yul\":16280:16281   */\n      0x08\n        /* \"#utility.yul\":16276:16289   */\n      mul\n        /* \"#utility.yul\":16247:16298   */\n      tag_129\n      jump\t// in\n    tag_290:\n        /* \"#utility.yul\":16243:16299   */\n      not\n        /* \"#utility.yul\":16328:16332   */\n      dup1\n        /* \"#utility.yul\":16322:16326   */\n      dup4\n        /* \"#utility.yul\":16318:16333   */\n      and\n        /* \"#utility.yul\":16308:16333   */\n      swap2\n      pop\n        /* \"#utility.yul\":16221:16339   */\n      pop\n        /* \"#utility.yul\":16170:16339   */\n      swap3\n      swap2\n      pop\n      pop\n      jump\t// out\n        /* \"#utility.yul\":16344:16639   */\n    tag_131:\n        /* \"#utility.yul\":16420:16424   */\n      0x00\n        /* \"#utility.yul\":16566:16595   */\n      tag_292\n        /* \"#utility.yul\":16591:16594   */\n      dup4\n        /* \"#utility.yul\":16585:16589   */\n      dup4\n        /* \"#utility.yul\":16566:16595   */\n      tag_130\n      jump\t// in\n    tag_292:\n        /* \"#utility.yul\":16558:16595   */\n      swap2\n      pop\n        /* \"#utility.yul\":16628:16631   */\n      dup3\n        /* \"#utility.yul\":16625:16626   */\n      0x02\n        /* \"#utility.yul\":16621:16632   */\n      mul\n        /* \"#utility.yul\":16615:16619   */\n      dup3\n        /* \"#utility.yul\":16612:16633   */\n      or\n        /* \"#utility.yul\":16604:16633   */\n      swap1\n      pop\n        /* \"#utility.yul\":16344:16639   */\n      swap3\n      swap2\n      pop\n      pop\n      jump\t// out\n        /* \"#utility.yul\":16644:18039   */\n    tag_55:\n        /* \"#utility.yul\":16761:16798   */\n      tag_294\n        /* \"#utility.yul\":16794:16797   */\n      dup3\n        /* \"#utility.yul\":16761:16798   */\n      tag_97\n      jump\t// in\n    tag_294:\n        /* \"#utility.yul\":16863:16881   */\n      0xffffffffffffffff\n        /* \"#utility.yul\":16855:16861   */\n      dup2\n        /* \"#utility.yul\":16852:16882   */\n      gt\n        /* \"#utility.yul\":16849:16905   */\n      iszero\n      tag_295\n      jumpi\n        /* \"#utility.yul\":16885:16903   */\n      tag_296\n      tag_83\n      jump\t// in\n    tag_296:\n        /* \"#utility.yul\":16849:16905   */\n    tag_295:\n        /* \"#utility.yul\":16929:16967   */\n      tag_297\n        /* \"#utility.yul\":16961:16965   */\n      dup3\n        /* \"#utility.yul\":16955:16966   */\n      sload\n        /* \"#utility.yul\":16929:16967   */\n      tag_63\n      jump\t// in\n    tag_297:\n        /* \"#utility.yul\":17014:17081   */\n      tag_298\n        /* \"#utility.yul\":17074:17080   */\n      dup3\n        /* \"#utility.yul\":17066:17072   */\n      dup3\n        /* \"#utility.yul\":17060:17064   */\n      dup6\n        /* \"#utility.yul\":17014:17081   */\n      tag_128\n      jump\t// in\n    tag_298:\n        /* \"#utility.yul\":17108:17109   */\n      0x00\n        /* \"#utility.yul\":17132:17136   */\n      0x20\n        /* \"#utility.yul\":17119:17136   */\n      swap1\n      pop\n        /* \"#utility.yul\":17164:17166   */\n      0x1f\n        /* \"#utility.yul\":17156:17162   */\n      dup4\n        /* \"#utility.yul\":17153:17167   */\n      gt\n        /* \"#utility.yul\":17181:17182   */\n      0x01\n        /* \"#utility.yul\":17176:17794   */\n      dup2\n      eq\n      tag_300\n      jumpi\n        /* \"#utility.yul\":17838:17839   */\n      0x00\n        /* \"#utility.yul\":17855:17861   */\n      dup5\n        /* \"#utility.yul\":17852:17929   */\n      iszero\n      tag_301\n      jumpi\n        /* \"#utility.yul\":17904:17913   */\n      dup3\n        /* \"#utility.yul\":17899:17902   */\n      dup8\n        /* \"#utility.yul\":17895:17914   */\n      add\n        /* \"#utility.yul\":17889:17915   */\n      mload\n        /* \"#utility.yul\":17880:17915   */\n      swap1\n      pop\n        /* \"#utility.yul\":17852:17929   */\n    tag_301:\n        /* \"#utility.yul\":17955:18022   */\n      tag_302\n        /* \"#utility.yul\":18015:18021   */\n      dup6\n        /* \"#utility.yul\":18008:18013   */\n      dup3\n        /* \"#utility.yul\":17955:18022   */\n      tag_131\n      jump\t// in\n    tag_302:\n        /* \"#utility.yul\":17949:17953   */\n      dup7\n        /* \"#utility.yul\":17942:18023   */\n      sstore\n        /* \"#utility.yul\":17811:18033   */\n      pop\n        /* \"#utility.yul\":17146:18033   */\n      jump(tag_299)\n        /* \"#utility.yul\":17176:17794   */\n    tag_300:\n        /* \"#utility.yul\":17228:17232   */\n      0x1f\n        /* \"#utility.yul\":17224:17233   */\n      not\n        /* \"#utility.yul\":17216:17222   */\n      dup5\n        /* \"#utility.yul\":17212:17234   */\n      and\n        /* \"#utility.yul\":17262:17299   */\n      tag_303\n        /* \"#utility.yul\":17294:17298   */\n      dup7\n        /* \"#utility.yul\":17262:17299   */\n      tag_117\n      jump\t// in\n    tag_303:\n        /* \"#utility.yul\":17321:17322   */\n      0x00\n        /* \"#utility.yul\":17335:17543   */\n    tag_304:\n        /* \"#utility.yul\":17349:17356   */\n      dup3\n        /* \"#utility.yul\":17346:17347   */\n      dup2\n        /* \"#utility.yul\":17343:17357   */\n      lt\n        /* \"#utility.yul\":17335:17543   */\n      iszero\n      tag_306\n      jumpi\n        /* \"#utility.yul\":17428:17437   */\n      dup5\n        /* \"#utility.yul\":17423:17426   */\n      dup10\n        /* \"#utility.yul\":17419:17438   */\n      add\n        /* \"#utility.yul\":17413:17439   */\n      mload\n        /* \"#utility.yul\":17405:17411   */\n      dup3\n        /* \"#utility.yul\":17398:17440   */\n      sstore\n        /* \"#utility.yul\":17479:17480   */\n      0x01\n        /* \"#utility.yul\":17471:17477   */\n      dup3\n        /* \"#utility.yul\":17467:17481   */\n      add\n        /* \"#utility.yul\":17457:17481   */\n      swap2\n      pop\n        /* \"#utility.yul\":17526:17528   */\n      0x20\n        /* \"#utility.yul\":17515:17524   */\n      dup6\n        /* \"#utility.yul\":17511:17529   */\n      add\n        /* \"#utility.yul\":17498:17529   */\n      swap5\n      pop\n        /* \"#utility.yul\":17372:17376   */\n      0x20\n        /* \"#utility.yul\":17369:17370   */\n      dup2\n        /* \"#utility.yul\":17365:17377   */\n      add\n        /* \"#utility.yul\":17360:17377   */\n      swap1\n      pop\n        /* \"#utility.yul\":17335:17543   */\n      jump(tag_304)\n    tag_306:\n        /* \"#utility.yul\":17571:17577   */\n      dup7\n        /* \"#utility.yul\":17562:17569   */\n      dup4\n        /* \"#utility.yul\":17559:17578   */\n      lt\n        /* \"#utility.yul\":17556:17735   */\n      iszero\n      tag_307\n      jumpi\n        /* \"#utility.yul\":17629:17638   */\n      dup5\n        /* \"#utility.yul\":17624:17627   */\n      dup10\n        /* \"#utility.yul\":17620:17639   */\n      add\n        /* \"#utility.yul\":17614:17640   */\n      mload\n        /* \"#utility.yul\":17672:17720   */\n      tag_308\n        /* \"#utility.yul\":17714:17718   */\n      0x1f\n        /* \"#utility.yul\":17706:17712   */\n      dup10\n        /* \"#utility.yul\":17702:17719   */\n      and\n        /* \"#utility.yul\":17691:17700   */\n      dup3\n        /* \"#utility.yul\":17672:17720   */\n      tag_130\n      jump\t// in\n    tag_308:\n        /* \"#utility.yul\":17664:17670   */\n      dup4\n        /* \"#utility.yul\":17657:17721   */\n      sstore\n        /* \"#utility.yul\":17579:17735   */\n      pop\n        /* \"#utility.yul\":17556:17735   */\n    tag_307:\n        /* \"#utility.yul\":17781:17782   */\n      0x01\n        /* \"#utility.yul\":17777:17778   */\n      0x02\n        /* \"#utility.yul\":17769:17775   */\n      dup9\n        /* \"#utility.yul\":17765:17779   */\n      mul\n        /* \"#utility.yul\":17761:17783   */\n      add\n        /* \"#utility.yul\":17755:17759   */\n      dup9\n        /* \"#utility.yul\":17748:17784   */\n      sstore\n        /* \"#utility.yul\":17183:17794   */\n      pop\n      pop\n      pop\n        /* \"#utility.yul\":17146:18033   */\n    tag_299:\n      pop\n        /* \"#utility.yul\":16736:18039   */\n      pop\n      pop\n      pop\n        /* \"#utility.yul\":16644:18039   */\n      pop\n      pop\n      jump\t// out\n        /* \"#utility.yul\":18045:18468   */\n    tag_57:\n        /* \"#utility.yul\":18186:18190   */\n      0x00\n        /* \"#utility.yul\":18224:18226   */\n      0x40\n        /* \"#utility.yul\":18213:18222   */\n      dup3\n        /* \"#utility.yul\":18209:18227   */\n      add\n        /* \"#utility.yul\":18201:18227   */\n      swap1\n      pop\n        /* \"#utility.yul\":18237:18308   */\n      tag_310\n        /* \"#utility.yul\":18305:18306   */\n      0x00\n        /* \"#utility.yul\":18294:18303   */\n      dup4\n        /* \"#utility.yul\":18290:18307   */\n      add\n        /* \"#utility.yul\":18281:18287   */\n      dup6\n        /* \"#utility.yul\":18237:18308   */\n      tag_76\n      jump\t// in\n    tag_310:\n        /* \"#utility.yul\":18355:18364   */\n      dup2\n        /* \"#utility.yul\":18349:18353   */\n      dup2\n        /* \"#utility.yul\":18345:18365   */\n      sub\n        /* \"#utility.yul\":18340:18342   */\n      0x20\n        /* \"#utility.yul\":18329:18338   */\n      dup4\n        /* \"#utility.yul\":18325:18343   */\n      add\n        /* \"#utility.yul\":18318:18366   */\n      mstore\n        /* \"#utility.yul\":18383:18461   */\n      tag_311\n        /* \"#utility.yul\":18456:18460   */\n      dup2\n        /* \"#utility.yul\":18447:18453   */\n      dup5\n        /* \"#utility.yul\":18383:18461   */\n      tag_109\n      jump\t// in\n    tag_311:\n        /* \"#utility.yul\":18375:18461   */\n      swap1\n      pop\n        /* \"#utility.yul\":18045:18468   */\n      swap4\n      swap3\n      pop\n      pop\n      pop\n      jump\t// out\n\n    auxdata: 0xa26469706673582212206e1082a92cc048aa5ee3acb37334bb7bdcacb8fc4f9b144de9c62f558afdb8c364736f6c63430008220033\n}\n",
				"bytecode": {
					"linkReferences": {},
					"object": "6080604052348015600e575f5ffd5b50335f5f6101000a81548173ffffffffffffffffffffffffffffffffffffffff021916908373ffffffffffffffffffffffffffffffffffffffff160217905550610f708061005b5f395ff3fe608060405260043610610054575f3560e01c806312065fe0146100585780633ccfd60b146100825780637f5154b41461009857806388e4a073146100b45780638da5cb5b146100de578063a5c68c5914610108575b5f5ffd5b348015610063575f5ffd5b5061006c610146565b6040516100799190610673565b60405180910390f35b34801561008d575f5ffd5b5061009661014d565b005b6100b260048036038101906100ad91906107d9565b6102bf565b005b3480156100bf575f5ffd5b506100c8610413565b6040516100d591906109d6565b60405180910390f35b3480156100e9575f5ffd5b506100f261055d565b6040516100ff9190610a05565b60405180910390f35b348015610113575f5ffd5b5061012e60048036038101906101299190610a48565b610581565b60405161013d93929190610abb565b60405180910390f35b5f47905090565b5f5f9054906101000a900473ffffffffffffffffffffffffffffffffffffffff1673ffffffffffffffffffffffffffffffffffffffff163373ffffffffffffffffffffffffffffffffffffffff16146101db576040517f08c379a00000000000000000000000000000000000000000000000000000000081526004016101d290610b41565b60405180910390fd5b5f4790505f8111610221576040517f08c379a000000000000000000000000000000000000000000000000000000000815260040161021890610ba9565b60405180910390fd5b5f5f9054906101000a900473ffffffffffffffffffffffffffffffffffffffff1673ffffffffffffffffffffffffffffffffffffffff166108fc8290811502906040515f60405180830381858888f19350505050158015610284573d5f5f3e3d5ffd5b507f430648de173157e069201c943adb2d4e340e7cf5b27b1b09c9cb852f03d63b56816040516102b49190610673565b60405180910390a150565b5f3411610301576040517f08c379a00000000000000000000000000000000000000000000000000000000081526004016102f890610c11565b60405180910390fd5b600160405180606001604052803373ffffffffffffffffffffffffffffffffffffffff16815260200134815260200183815250908060018154018082558091505060019003905f5260205f2090600302015f909190919091505f820151815f015f6101000a81548173ffffffffffffffffffffffffffffffffffffffff021916908373ffffffffffffffffffffffffffffffffffffffff1602179055506020820151816001015560408201518160020190816103bd9190610e3d565b5050503373ffffffffffffffffffffffffffffffffffffffff167f4f629a5f1c8e7fc616770a8d34896b447f3457037c40a23347478746309d73c23483604051610408929190610f0c565b60405180910390a250565b60606001805480602002602001604051908101604052809291908181526020015f905b82821015610554578382905f5260205f2090600302016040518060600160405290815f82015f9054906101000a900473ffffffffffffffffffffffffffffffffffffffff1673ffffffffffffffffffffffffffffffffffffffff1673ffffffffffffffffffffffffffffffffffffffff168152602001600182015481526020016002820180546104c590610c5c565b80601f01602080910402602001604051908101604052809291908181526020018280546104f190610c5c565b801561053c5780601f106105135761010080835404028352916020019161053c565b820191905f5260205f20905b81548152906001019060200180831161051f57829003601f168201915b50505050508152505081526020019060010190610436565b50505050905090565b5f5f9054906101000a900473ffffffffffffffffffffffffffffffffffffffff1681565b60018181548110610590575f80fd5b905f5260205f2090600302015f91509050805f015f9054906101000a900473ffffffffffffffffffffffffffffffffffffffff16908060010154908060020180546105da90610c5c565b80601f016020809104026020016040519081016040528092919081815260200182805461060690610c5c565b80156106515780601f1061062857610100808354040283529160200191610651565b820191905f5260205f20905b81548152906001019060200180831161063457829003601f168201915b5050505050905083565b5f819050919050565b61066d8161065b565b82525050565b5f6020820190506106865f830184610664565b92915050565b5f604051905090565b5f5ffd5b5f5ffd5b5f5ffd5b5f5ffd5b5f601f19601f8301169050919050565b7f4e487b71000000000000000000000000000000000000000000000000000000005f52604160045260245ffd5b6106eb826106a5565b810181811067ffffffffffffffff8211171561070a576107096106b5565b5b80604052505050565b5f61071c61068c565b905061072882826106e2565b919050565b5f67ffffffffffffffff821115610747576107466106b5565b5b610750826106a5565b9050602081019050919050565b828183375f83830152505050565b5f61077d6107788461072d565b610713565b905082815260208101848484011115610799576107986106a1565b5b6107a484828561075d565b509392505050565b5f82601f8301126107c0576107bf61069d565b5b81356107d084826020860161076b565b91505092915050565b5f602082840312156107ee576107ed610695565b5b5f82013567ffffffffffffffff81111561080b5761080a610699565b5b610817848285016107ac565b91505092915050565b5f81519050919050565b5f82825260208201905092915050565b5f819050602082019050919050565b5f73ffffffffffffffffffffffffffffffffffffffff82169050919050565b5f61087282610849565b9050919050565b61088281610868565b82525050565b6108918161065b565b82525050565b5f81519050919050565b5f82825260208201905092915050565b8281835e5f83830152505050565b5f6108c982610897565b6108d381856108a1565b93506108e38185602086016108b1565b6108ec816106a5565b840191505092915050565b5f606083015f83015161090c5f860182610879565b50602083015161091f6020860182610888565b506040830151848203604086015261093782826108bf565b9150508091505092915050565b5f61094f83836108f7565b905092915050565b5f602082019050919050565b5f61096d82610820565b610977818561082a565b9350836020820285016109898561083a565b805f5b858110156109c457848403895281516109a58582610944565b94506109b083610957565b925060208a0199505060018101905061098c565b50829750879550505050505092915050565b5f6020820190508181035f8301526109ee8184610963565b905092915050565b6109ff81610868565b82525050565b5f602082019050610a185f8301846109f6565b92915050565b610a278161065b565b8114610a31575f5ffd5b50565b5f81359050610a4281610a1e565b92915050565b5f60208284031215610a5d57610a5c610695565b5b5f610a6a84828501610a34565b91505092915050565b5f82825260208201905092915050565b5f610a8d82610897565b610a978185610a73565b9350610aa78185602086016108b1565b610ab0816106a5565b840191505092915050565b5f606082019050610ace5f8301866109f6565b610adb6020830185610664565b8181036040830152610aed8184610a83565b9050949350505050565b7f4e6f74206f776e657200000000000000000000000000000000000000000000005f82015250565b5f610b2b600983610a73565b9150610b3682610af7565b602082019050919050565b5f6020820190508181035f830152610b5881610b1f565b9050919050565b7f4e6f2066756e64730000000000000000000000000000000000000000000000005f82015250565b5f610b93600883610a73565b9150610b9e82610b5f565b602082019050919050565b5f6020820190508181035f830152610bc081610b87565b9050919050565b7f53656e6420736f6d6520455448000000000000000000000000000000000000005f82015250565b5f610bfb600d83610a73565b9150610c0682610bc7565b602082019050919050565b5f6020820190508181035f830152610c2881610bef565b9050919050565b7f4e487b71000000000000000000000000000000000000000000000000000000005f52602260045260245ffd5b5f6002820490506001821680610c7357607f821691505b602082108103610c8657610c85610c2f565b5b50919050565b5f819050815f5260205f209050919050565b5f6020601f8301049050919050565b5f82821b905092915050565b5f60088302610ce87fffffffffffffffffffffffffffffffffffffffffffffffffffffffffffffffff82610cad565b610cf28683610cad565b95508019841693508086168417925050509392505050565b5f819050919050565b5f610d2d610d28610d238461065b565b610d0a565b61065b565b9050919050565b5f819050919050565b610d4683610d13565b610d5a610d5282610d34565b848454610cb9565b825550505050565b5f5f905090565b610d71610d62565b610d7c818484610d3d565b505050565b5f5b82811015610da257610d975f828401610d69565b600181019050610d83565b505050565b601f821115610df55782821115610df457610dc181610c8c565b610dca83610c9e565b610dd385610c9e565b6020861015610de0575f90505b808301610def82840382610d81565b505050505b5b505050565b5f82821c905092915050565b5f610e155f1984600802610dfa565b1980831691505092915050565b5f610e2d8383610e06565b9150826002028217905092915050565b610e4682610897565b67ffffffffffffffff811115610e5f57610e5e6106b5565b5b610e698254610c5c565b610e74828285610da7565b5f60209050601f831160018114610ea5575f8415610e93578287015190505b610e9d8582610e22565b865550610f04565b601f198416610eb386610c8c565b5f5b82811015610eda57848901518255600182019150602085019450602081019050610eb5565b86831015610ef75784890151610ef3601f891682610e06565b8355505b6001600288020188555050505b505050505050565b5f604082019050610f1f5f830185610664565b8181036020830152610f318184610a83565b9050939250505056fea26469706673582212206e1082a92cc048aa5ee3acb37334bb7bdcacb8fc4f9b144de9c62f558afdb8c364736f6c63430008220033",
					"opcodes": "PUSH1 0x80 PUSH1 0x40 MSTORE CALLVALUE DUP1 ISZERO PUSH1 0xE JUMPI PUSH0 PUSH0 REVERT JUMPDEST POP CALLER PUSH0 PUSH0 PUSH2 0x100 EXP DUP2 SLOAD DUP2 PUSH20 0xFFFFFFFFFFFFFFFFFFFFFFFFFFFFFFFFFFFFFFFF MUL NOT AND SWAP1 DUP4 PUSH20 0xFFFFFFFFFFFFFFFFFFFFFFFFFFFFFFFFFFFFFFFF AND MUL OR SWAP1 SSTORE POP PUSH2 0xF70 DUP1 PUSH2 0x5B PUSH0 CODECOPY PUSH0 RETURN INVALID PUSH1 0x80 PUSH1 0x40 MSTORE PUSH1 0x4 CALLDATASIZE LT PUSH2 0x54 JUMPI PUSH0 CALLDATALOAD PUSH1 0xE0 SHR DUP1 PUSH4 0x12065FE0 EQ PUSH2 0x58 JUMPI DUP1 PUSH4 0x3CCFD60B EQ PUSH2 0x82 JUMPI DUP1 PUSH4 0x7F5154B4 EQ PUSH2 0x98 JUMPI DUP1 PUSH4 0x88E4A073 EQ PUSH2 0xB4 JUMPI DUP1 PUSH4 0x8DA5CB5B EQ PUSH2 0xDE JUMPI DUP1 PUSH4 0xA5C68C59 EQ PUSH2 0x108 JUMPI JUMPDEST PUSH0 PUSH0 REVERT JUMPDEST CALLVALUE DUP1 ISZERO PUSH2 0x63 JUMPI PUSH0 PUSH0 REVERT JUMPDEST POP PUSH2 0x6C PUSH2 0x146 JUMP JUMPDEST PUSH1 0x40 MLOAD PUSH2 0x79 SWAP2 SWAP1 PUSH2 0x673 JUMP JUMPDEST PUSH1 0x40 MLOAD DUP1 SWAP2 SUB SWAP1 RETURN JUMPDEST CALLVALUE DUP1 ISZERO PUSH2 0x8D JUMPI PUSH0 PUSH0 REVERT JUMPDEST POP PUSH2 0x96 PUSH2 0x14D JUMP JUMPDEST STOP JUMPDEST PUSH2 0xB2 PUSH1 0x4 DUP1 CALLDATASIZE SUB DUP2 ADD SWAP1 PUSH2 0xAD SWAP2 SWAP1 PUSH2 0x7D9 JUMP JUMPDEST PUSH2 0x2BF JUMP JUMPDEST STOP JUMPDEST CALLVALUE DUP1 ISZERO PUSH2 0xBF JUMPI PUSH0 PUSH0 REVERT JUMPDEST POP PUSH2 0xC8 PUSH2 0x413 JUMP JUMPDEST PUSH1 0x40 MLOAD PUSH2 0xD5 SWAP2 SWAP1 PUSH2 0x9D6 JUMP JUMPDEST PUSH1 0x40 MLOAD DUP1 SWAP2 SUB SWAP1 RETURN JUMPDEST CALLVALUE DUP1 ISZERO PUSH2 0xE9 JUMPI PUSH0 PUSH0 REVERT JUMPDEST POP PUSH2 0xF2 PUSH2 0x55D JUMP JUMPDEST PUSH1 0x40 MLOAD PUSH2 0xFF SWAP2 SWAP1 PUSH2 0xA05 JUMP JUMPDEST PUSH1 0x40 MLOAD DUP1 SWAP2 SUB SWAP1 RETURN JUMPDEST CALLVALUE DUP1 ISZERO PUSH2 0x113 JUMPI PUSH0 PUSH0 REVERT JUMPDEST POP PUSH2 0x12E PUSH1 0x4 DUP1 CALLDATASIZE SUB DUP2 ADD SWAP1 PUSH2 0x129 SWAP2 SWAP1 PUSH2 0xA48 JUMP JUMPDEST PUSH2 0x581 JUMP JUMPDEST PUSH1 0x40 MLOAD PUSH2 0x13D SWAP4 SWAP3 SWAP2 SWAP1 PUSH2 0xABB JUMP JUMPDEST PUSH1 0x40 MLOAD DUP1 SWAP2 SUB SWAP1 RETURN JUMPDEST PUSH0 SELFBALANCE SWAP1 POP SWAP1 JUMP JUMPDEST PUSH0 PUSH0 SWAP1 SLOAD SWAP1 PUSH2 0x100 EXP SWAP1 DIV PUSH20 0xFFFFFFFFFFFFFFFFFFFFFFFFFFFFFFFFFFFFFFFF AND PUSH20 0xFFFFFFFFFFFFFFFFFFFFFFFFFFFFFFFFFFFFFFFF AND CALLER PUSH20 0xFFFFFFFFFFFFFFFFFFFFFFFFFFFFFFFFFFFFFFFF AND EQ PUSH2 0x1DB JUMPI PUSH1 0x40 MLOAD PUSH32 0x8C379A000000000000000000000000000000000000000000000000000000000 DUP2 MSTORE PUSH1 0x4 ADD PUSH2 0x1D2 SWAP1 PUSH2 0xB41 JUMP JUMPDEST PUSH1 0x40 MLOAD DUP1 SWAP2 SUB SWAP1 REVERT JUMPDEST PUSH0 SELFBALANCE SWAP1 POP PUSH0 DUP2 GT PUSH2 0x221 JUMPI PUSH1 0x40 MLOAD PUSH32 0x8C379A000000000000000000000000000000000000000000000000000000000 DUP2 MSTORE PUSH1 0x4 ADD PUSH2 0x218 SWAP1 PUSH2 0xBA9 JUMP JUMPDEST PUSH1 0x40 MLOAD DUP1 SWAP2 SUB SWAP1 REVERT JUMPDEST PUSH0 PUSH0 SWAP1 SLOAD SWAP1 PUSH2 0x100 EXP SWAP1 DIV PUSH20 0xFFFFFFFFFFFFFFFFFFFFFFFFFFFFFFFFFFFFFFFF AND PUSH20 0xFFFFFFFFFFFFFFFFFFFFFFFFFFFFFFFFFFFFFFFF AND PUSH2 0x8FC DUP3 SWAP1 DUP2 ISZERO MUL SWAP1 PUSH1 0x40 MLOAD PUSH0 PUSH1 0x40 MLOAD DUP1 DUP4 SUB DUP2 DUP6 DUP9 DUP9 CALL SWAP4 POP POP POP POP ISZERO DUP1 ISZERO PUSH2 0x284 JUMPI RETURNDATASIZE PUSH0 PUSH0 RETURNDATACOPY RETURNDATASIZE PUSH0 REVERT JUMPDEST POP PUSH32 0x430648DE173157E069201C943ADB2D4E340E7CF5B27B1B09C9CB852F03D63B56 DUP2 PUSH1 0x40 MLOAD PUSH2 0x2B4 SWAP2 SWAP1 PUSH2 0x673 JUMP JUMPDEST PUSH1 0x40 MLOAD DUP1 SWAP2 SUB SWAP1 LOG1 POP JUMP JUMPDEST PUSH0 CALLVALUE GT PUSH2 0x301 JUMPI PUSH1 0x40 MLOAD PUSH32 0x8C379A000000000000000000000000000000000000000000000000000000000 DUP2 MSTORE PUSH1 0x4 ADD PUSH2 0x2F8 SWAP1 PUSH2 0xC11 JUMP JUMPDEST PUSH1 0x40 MLOAD DUP1 SWAP2 SUB SWAP1 REVERT JUMPDEST PUSH1 0x1 PUSH1 0x40 MLOAD DUP1 PUSH1 0x60 ADD PUSH1 0x40 MSTORE DUP1 CALLER PUSH20 0xFFFFFFFFFFFFFFFFFFFFFFFFFFFFFFFFFFFFFFFF AND DUP2 MSTORE PUSH1 0x20 ADD CALLVALUE DUP2 MSTORE PUSH1 0x20 ADD DUP4 DUP2 MSTORE POP SWAP1 DUP1 PUSH1 0x1 DUP2 SLOAD ADD DUP1 DUP3 SSTORE DUP1 SWAP2 POP POP PUSH1 0x1 SWAP1 SUB SWAP1 PUSH0 MSTORE PUSH1 0x20 PUSH0 KECCAK256 SWAP1 PUSH1 0x3 MUL ADD PUSH0 SWAP1 SWAP2 SWAP1 SWAP2 SWAP1 SWAP2 POP PUSH0 DUP3 ADD MLOAD DUP2 PUSH0 ADD PUSH0 PUSH2 0x100 EXP DUP2 SLOAD DUP2 PUSH20 0xFFFFFFFFFFFFFFFFFFFFFFFFFFFFFFFFFFFFFFFF MUL NOT AND SWAP1 DUP4 PUSH20 0xFFFFFFFFFFFFFFFFFFFFFFFFFFFFFFFFFFFFFFFF AND MUL OR SWAP1 SSTORE POP PUSH1 0x20 DUP3 ADD MLOAD DUP2 PUSH1 0x1 ADD SSTORE PUSH1 0x40 DUP3 ADD MLOAD DUP2 PUSH1 0x2 ADD SWAP1 DUP2 PUSH2 0x3BD SWAP2 SWAP1 PUSH2 0xE3D JUMP JUMPDEST POP POP POP CALLER PUSH20 0xFFFFFFFFFFFFFFFFFFFFFFFFFFFFFFFFFFFFFFFF AND PUSH32 0x4F629A5F1C8E7FC616770A8D34896B447F3457037C40A23347478746309D73C2 CALLVALUE DUP4 PUSH1 0x40 MLOAD PUSH2 0x408 SWAP3 SWAP2 SWAP1 PUSH2 0xF0C JUMP JUMPDEST PUSH1 0x40 MLOAD DUP1 SWAP2 SUB SWAP1 LOG2 POP JUMP JUMPDEST PUSH1 0x60 PUSH1 0x1 DUP1 SLOAD DUP1 PUSH1 0x20 MUL PUSH1 0x20 ADD PUSH1 0x40 MLOAD SWAP1 DUP2 ADD PUSH1 0x40 MSTORE DUP1 SWAP3 SWAP2 SWAP1 DUP2 DUP2 MSTORE PUSH1 0x20 ADD PUSH0 SWAP1 JUMPDEST DUP3 DUP3 LT ISZERO PUSH2 0x554 JUMPI DUP4 DUP3 SWAP1 PUSH0 MSTORE PUSH1 0x20 PUSH0 KECCAK256 SWAP1 PUSH1 0x3 MUL ADD PUSH1 0x40 MLOAD DUP1 PUSH1 0x60 ADD PUSH1 0x40 MSTORE SWAP1 DUP2 PUSH0 DUP3 ADD PUSH0 SWAP1 SLOAD SWAP1 PUSH2 0x100 EXP SWAP1 DIV PUSH20 0xFFFFFFFFFFFFFFFFFFFFFFFFFFFFFFFFFFFFFFFF AND PUSH20 0xFFFFFFFFFFFFFFFFFFFFFFFFFFFFFFFFFFFFFFFF AND PUSH20 0xFFFFFFFFFFFFFFFFFFFFFFFFFFFFFFFFFFFFFFFF AND DUP2 MSTORE PUSH1 0x20 ADD PUSH1 0x1 DUP3 ADD SLOAD DUP2 MSTORE PUSH1 0x20 ADD PUSH1 0x2 DUP3 ADD DUP1 SLOAD PUSH2 0x4C5 SWAP1 PUSH2 0xC5C JUMP JUMPDEST DUP1 PUSH1 0x1F ADD PUSH1 0x20 DUP1 SWAP2 DIV MUL PUSH1 0x20 ADD PUSH1 0x40 MLOAD SWAP1 DUP2 ADD PUSH1 0x40 MSTORE DUP1 SWAP3 SWAP2 SWAP1 DUP2 DUP2 MSTORE PUSH1 0x20 ADD DUP3 DUP1 SLOAD PUSH2 0x4F1 SWAP1 PUSH2 0xC5C JUMP JUMPDEST DUP1 ISZERO PUSH2 0x53C JUMPI DUP1 PUSH1 0x1F LT PUSH2 0x513 JUMPI PUSH2 0x100 DUP1 DUP4 SLOAD DIV MUL DUP4 MSTORE SWAP2 PUSH1 0x20 ADD SWAP2 PUSH2 0x53C JUMP JUMPDEST DUP3 ADD SWAP2 SWAP1 PUSH0 MSTORE PUSH1 0x20 PUSH0 KECCAK256 SWAP1 JUMPDEST DUP2 SLOAD DUP2 MSTORE SWAP1 PUSH1 0x1 ADD SWAP1 PUSH1 0x20 ADD DUP1 DUP4 GT PUSH2 0x51F JUMPI DUP3 SWAP1 SUB PUSH1 0x1F AND DUP3 ADD SWAP2 JUMPDEST POP POP POP POP POP DUP2 MSTORE POP POP DUP2 MSTORE PUSH1 0x20 ADD SWAP1 PUSH1 0x1 ADD SWAP1 PUSH2 0x436 JUMP JUMPDEST POP POP POP POP SWAP1 POP SWAP1 JUMP JUMPDEST PUSH0 PUSH0 SWAP1 SLOAD SWAP1 PUSH2 0x100 EXP SWAP1 DIV PUSH20 0xFFFFFFFFFFFFFFFFFFFFFFFFFFFFFFFFFFFFFFFF AND DUP2 JUMP JUMPDEST PUSH1 0x1 DUP2 DUP2 SLOAD DUP2 LT PUSH2 0x590 JUMPI PUSH0 DUP1 REVERT JUMPDEST SWAP1 PUSH0 MSTORE PUSH1 0x20 PUSH0 KECCAK256 SWAP1 PUSH1 0x3 MUL ADD PUSH0 SWAP2 POP SWAP1 POP DUP1 PUSH0 ADD PUSH0 SWAP1 SLOAD SWAP1 PUSH2 0x100 EXP SWAP1 DIV PUSH20 0xFFFFFFFFFFFFFFFFFFFFFFFFFFFFFFFFFFFFFFFF AND SWAP1 DUP1 PUSH1 0x1 ADD SLOAD SWAP1 DUP1 PUSH1 0x2 ADD DUP1 SLOAD PUSH2 0x5DA SWAP1 PUSH2 0xC5C JUMP JUMPDEST DUP1 PUSH1 0x1F ADD PUSH1 0x20 DUP1 SWAP2 DIV MUL PUSH1 0x20 ADD PUSH1 0x40 MLOAD SWAP1 DUP2 ADD PUSH1 0x40 MSTORE DUP1 SWAP3 SWAP2 SWAP1 DUP2 DUP2 MSTORE PUSH1 0x20 ADD DUP3 DUP1 SLOAD PUSH2 0x606 SWAP1 PUSH2 0xC5C JUMP JUMPDEST DUP1 ISZERO PUSH2 0x651 JUMPI DUP1 PUSH1 0x1F LT PUSH2 0x628 JUMPI PUSH2 0x100 DUP1 DUP4 SLOAD DIV MUL DUP4 MSTORE SWAP2 PUSH1 0x20 ADD SWAP2 PUSH2 0x651 JUMP JUMPDEST DUP3 ADD SWAP2 SWAP1 PUSH0 MSTORE PUSH1 0x20 PUSH0 KECCAK256 SWAP1 JUMPDEST DUP2 SLOAD DUP2 MSTORE SWAP1 PUSH1 0x1 ADD SWAP1 PUSH1 0x20 ADD DUP1 DUP4 GT PUSH2 0x634 JUMPI DUP3 SWAP1 SUB PUSH1 0x1F AND DUP3 ADD SWAP2 JUMPDEST POP POP POP POP POP SWAP1 POP DUP4 JUMP JUMPDEST PUSH0 DUP2 SWAP1 POP SWAP2 SWAP1 POP JUMP JUMPDEST PUSH2 0x66D DUP2 PUSH2 0x65B JUMP JUMPDEST DUP3 MSTORE POP POP JUMP JUMPDEST PUSH0 PUSH1 0x20 DUP3 ADD SWAP1 POP PUSH2 0x686 PUSH0 DUP4 ADD DUP5 PUSH2 0x664 JUMP JUMPDEST SWAP3 SWAP2 POP POP JUMP JUMPDEST PUSH0 PUSH1 0x40 MLOAD SWAP1 POP SWAP1 JUMP JUMPDEST PUSH0 PUSH0 REVERT JUMPDEST PUSH0 PUSH0 REVERT JUMPDEST PUSH0 PUSH0 REVERT JUMPDEST PUSH0 PUSH0 REVERT JUMPDEST PUSH0 PUSH1 0x1F NOT PUSH1 0x1F DUP4 ADD AND SWAP1 POP SWAP2 SWAP1 POP JUMP JUMPDEST PUSH32 0x4E487B7100000000000000000000000000000000000000000000000000000000 PUSH0 MSTORE PUSH1 0x41 PUSH1 0x4 MSTORE PUSH1 0x24 PUSH0 REVERT JUMPDEST PUSH2 0x6EB DUP3 PUSH2 0x6A5 JUMP JUMPDEST DUP2 ADD DUP2 DUP2 LT PUSH8 0xFFFFFFFFFFFFFFFF DUP3 GT OR ISZERO PUSH2 0x70A JUMPI PUSH2 0x709 PUSH2 0x6B5 JUMP JUMPDEST JUMPDEST DUP1 PUSH1 0x40 MSTORE POP POP POP JUMP JUMPDEST PUSH0 PUSH2 0x71C PUSH2 0x68C JUMP JUMPDEST SWAP1 POP PUSH2 0x728 DUP3 DUP3 PUSH2 0x6E2 JUMP JUMPDEST SWAP2 SWAP1 POP JUMP JUMPDEST PUSH0 PUSH8 0xFFFFFFFFFFFFFFFF DUP3 GT ISZERO PUSH2 0x747 JUMPI PUSH2 0x746 PUSH2 0x6B5 JUMP JUMPDEST JUMPDEST PUSH2 0x750 DUP3 PUSH2 0x6A5 JUMP JUMPDEST SWAP1 POP PUSH1 0x20 DUP2 ADD SWAP1 POP SWAP2 SWAP1 POP JUMP JUMPDEST DUP3 DUP2 DUP4 CALLDATACOPY PUSH0 DUP4 DUP4 ADD MSTORE POP POP POP JUMP JUMPDEST PUSH0 PUSH2 0x77D PUSH2 0x778 DUP5 PUSH2 0x72D JUMP JUMPDEST PUSH2 0x713 JUMP JUMPDEST SWAP1 POP DUP3 DUP2 MSTORE PUSH1 0x20 DUP2 ADD DUP5 DUP5 DUP5 ADD GT ISZERO PUSH2 0x799 JUMPI PUSH2 0x798 PUSH2 0x6A1 JUMP JUMPDEST JUMPDEST PUSH2 0x7A4 DUP5 DUP3 DUP6 PUSH2 0x75D JUMP JUMPDEST POP SWAP4 SWAP3 POP POP POP JUMP JUMPDEST PUSH0 DUP3 PUSH1 0x1F DUP4 ADD SLT PUSH2 0x7C0 JUMPI PUSH2 0x7BF PUSH2 0x69D JUMP JUMPDEST JUMPDEST DUP2 CALLDATALOAD PUSH2 0x7D0 DUP5 DUP3 PUSH1 0x20 DUP7 ADD PUSH2 0x76B JUMP JUMPDEST SWAP2 POP POP SWAP3 SWAP2 POP POP JUMP JUMPDEST PUSH0 PUSH1 0x20 DUP3 DUP5 SUB SLT ISZERO PUSH2 0x7EE JUMPI PUSH2 0x7ED PUSH2 0x695 JUMP JUMPDEST JUMPDEST PUSH0 DUP3 ADD CALLDATALOAD PUSH8 0xFFFFFFFFFFFFFFFF DUP2 GT ISZERO PUSH2 0x80B JUMPI PUSH2 0x80A PUSH2 0x699 JUMP JUMPDEST JUMPDEST PUSH2 0x817 DUP5 DUP3 DUP6 ADD PUSH2 0x7AC JUMP JUMPDEST SWAP2 POP POP SWAP3 SWAP2 POP POP JUMP JUMPDEST PUSH0 DUP2 MLOAD SWAP1 POP SWAP2 SWAP1 POP JUMP JUMPDEST PUSH0 DUP3 DUP3 MSTORE PUSH1 0x20 DUP3 ADD SWAP1 POP SWAP3 SWAP2 POP POP JUMP JUMPDEST PUSH0 DUP2 SWAP1 POP PUSH1 0x20 DUP3 ADD SWAP1 POP SWAP2 SWAP1 POP JUMP JUMPDEST PUSH0 PUSH20 0xFFFFFFFFFFFFFFFFFFFFFFFFFFFFFFFFFFFFFFFF DUP3 AND SWAP1 POP SWAP2 SWAP1 POP JUMP JUMPDEST PUSH0 PUSH2 0x872 DUP3 PUSH2 0x849 JUMP JUMPDEST SWAP1 POP SWAP2 SWAP1 POP JUMP JUMPDEST PUSH2 0x882 DUP2 PUSH2 0x868 JUMP JUMPDEST DUP3 MSTORE POP POP JUMP JUMPDEST PUSH2 0x891 DUP2 PUSH2 0x65B JUMP JUMPDEST DUP3 MSTORE POP POP JUMP JUMPDEST PUSH0 DUP2 MLOAD SWAP1 POP SWAP2 SWAP1 POP JUMP JUMPDEST PUSH0 DUP3 DUP3 MSTORE PUSH1 0x20 DUP3 ADD SWAP1 POP SWAP3 SWAP2 POP POP JUMP JUMPDEST DUP3 DUP2 DUP4 MCOPY PUSH0 DUP4 DUP4 ADD MSTORE POP POP POP JUMP JUMPDEST PUSH0 PUSH2 0x8C9 DUP3 PUSH2 0x897 JUMP JUMPDEST PUSH2 0x8D3 DUP2 DUP6 PUSH2 0x8A1 JUMP JUMPDEST SWAP4 POP PUSH2 0x8E3 DUP2 DUP6 PUSH1 0x20 DUP7 ADD PUSH2 0x8B1 JUMP JUMPDEST PUSH2 0x8EC DUP2 PUSH2 0x6A5 JUMP JUMPDEST DUP5 ADD SWAP2 POP POP SWAP3 SWAP2 POP POP JUMP JUMPDEST PUSH0 PUSH1 0x60 DUP4 ADD PUSH0 DUP4 ADD MLOAD PUSH2 0x90C PUSH0 DUP7 ADD DUP3 PUSH2 0x879 JUMP JUMPDEST POP PUSH1 0x20 DUP4 ADD MLOAD PUSH2 0x91F PUSH1 0x20 DUP7 ADD DUP3 PUSH2 0x888 JUMP JUMPDEST POP PUSH1 0x40 DUP4 ADD MLOAD DUP5 DUP3 SUB PUSH1 0x40 DUP7 ADD MSTORE PUSH2 0x937 DUP3 DUP3 PUSH2 0x8BF JUMP JUMPDEST SWAP2 POP POP DUP1 SWAP2 POP POP SWAP3 SWAP2 POP POP JUMP JUMPDEST PUSH0 PUSH2 0x94F DUP4 DUP4 PUSH2 0x8F7 JUMP JUMPDEST SWAP1 POP SWAP3 SWAP2 POP POP JUMP JUMPDEST PUSH0 PUSH1 0x20 DUP3 ADD SWAP1 POP SWAP2 SWAP1 POP JUMP JUMPDEST PUSH0 PUSH2 0x96D DUP3 PUSH2 0x820 JUMP JUMPDEST PUSH2 0x977 DUP2 DUP6 PUSH2 0x82A JUMP JUMPDEST SWAP4 POP DUP4 PUSH1 0x20 DUP3 MUL DUP6 ADD PUSH2 0x989 DUP6 PUSH2 0x83A JUMP JUMPDEST DUP1 PUSH0 JUMPDEST DUP6 DUP2 LT ISZERO PUSH2 0x9C4 JUMPI DUP5 DUP5 SUB DUP10 MSTORE DUP2 MLOAD PUSH2 0x9A5 DUP6 DUP3 PUSH2 0x944 JUMP JUMPDEST SWAP5 POP PUSH2 0x9B0 DUP4 PUSH2 0x957 JUMP JUMPDEST SWAP3 POP PUSH1 0x20 DUP11 ADD SWAP10 POP POP PUSH1 0x1 DUP2 ADD SWAP1 POP PUSH2 0x98C JUMP JUMPDEST POP DUP3 SWAP8 POP DUP8 SWAP6 POP POP POP POP POP POP SWAP3 SWAP2 POP POP JUMP JUMPDEST PUSH0 PUSH1 0x20 DUP3 ADD SWAP1 POP DUP2 DUP2 SUB PUSH0 DUP4 ADD MSTORE PUSH2 0x9EE DUP2 DUP5 PUSH2 0x963 JUMP JUMPDEST SWAP1 POP SWAP3 SWAP2 POP POP JUMP JUMPDEST PUSH2 0x9FF DUP2 PUSH2 0x868 JUMP JUMPDEST DUP3 MSTORE POP POP JUMP JUMPDEST PUSH0 PUSH1 0x20 DUP3 ADD SWAP1 POP PUSH2 0xA18 PUSH0 DUP4 ADD DUP5 PUSH2 0x9F6 JUMP JUMPDEST SWAP3 SWAP2 POP POP JUMP JUMPDEST PUSH2 0xA27 DUP2 PUSH2 0x65B JUMP JUMPDEST DUP2 EQ PUSH2 0xA31 JUMPI PUSH0 PUSH0 REVERT JUMPDEST POP JUMP JUMPDEST PUSH0 DUP2 CALLDATALOAD SWAP1 POP PUSH2 0xA42 DUP2 PUSH2 0xA1E JUMP JUMPDEST SWAP3 SWAP2 POP POP JUMP JUMPDEST PUSH0 PUSH1 0x20 DUP3 DUP5 SUB SLT ISZERO PUSH2 0xA5D JUMPI PUSH2 0xA5C PUSH2 0x695 JUMP JUMPDEST JUMPDEST PUSH0 PUSH2 0xA6A DUP5 DUP3 DUP6 ADD PUSH2 0xA34 JUMP JUMPDEST SWAP2 POP POP SWAP3 SWAP2 POP POP JUMP JUMPDEST PUSH0 DUP3 DUP3 MSTORE PUSH1 0x20 DUP3 ADD SWAP1 POP SWAP3 SWAP2 POP POP JUMP JUMPDEST PUSH0 PUSH2 0xA8D DUP3 PUSH2 0x897 JUMP JUMPDEST PUSH2 0xA97 DUP2 DUP6 PUSH2 0xA73 JUMP JUMPDEST SWAP4 POP PUSH2 0xAA7 DUP2 DUP6 PUSH1 0x20 DUP7 ADD PUSH2 0x8B1 JUMP JUMPDEST PUSH2 0xAB0 DUP2 PUSH2 0x6A5 JUMP JUMPDEST DUP5 ADD SWAP2 POP POP SWAP3 SWAP2 POP POP JUMP JUMPDEST PUSH0 PUSH1 0x60 DUP3 ADD SWAP1 POP PUSH2 0xACE PUSH0 DUP4 ADD DUP7 PUSH2 0x9F6 JUMP JUMPDEST PUSH2 0xADB PUSH1 0x20 DUP4 ADD DUP6 PUSH2 0x664 JUMP JUMPDEST DUP2 DUP2 SUB PUSH1 0x40 DUP4 ADD MSTORE PUSH2 0xAED DUP2 DUP5 PUSH2 0xA83 JUMP JUMPDEST SWAP1 POP SWAP5 SWAP4 POP POP POP POP JUMP JUMPDEST PUSH32 0x4E6F74206F776E65720000000000000000000000000000000000000000000000 PUSH0 DUP3 ADD MSTORE POP JUMP JUMPDEST PUSH0 PUSH2 0xB2B PUSH1 0x9 DUP4 PUSH2 0xA73 JUMP JUMPDEST SWAP2 POP PUSH2 0xB36 DUP3 PUSH2 0xAF7 JUMP JUMPDEST PUSH1 0x20 DUP3 ADD SWAP1 POP SWAP2 SWAP1 POP JUMP JUMPDEST PUSH0 PUSH1 0x20 DUP3 ADD SWAP1 POP DUP2 DUP2 SUB PUSH0 DUP4 ADD MSTORE PUSH2 0xB58 DUP2 PUSH2 0xB1F JUMP JUMPDEST SWAP1 POP SWAP2 SWAP1 POP JUMP JUMPDEST PUSH32 0x4E6F2066756E6473000000000000000000000000000000000000000000000000 PUSH0 DUP3 ADD MSTORE POP JUMP JUMPDEST PUSH0 PUSH2 0xB93 PUSH1 0x8 DUP4 PUSH2 0xA73 JUMP JUMPDEST SWAP2 POP PUSH2 0xB9E DUP3 PUSH2 0xB5F JUMP JUMPDEST PUSH1 0x20 DUP3 ADD SWAP1 POP SWAP2 SWAP1 POP JUMP JUMPDEST PUSH0 PUSH1 0x20 DUP3 ADD SWAP1 POP DUP2 DUP2 SUB PUSH0 DUP4 ADD MSTORE PUSH2 0xBC0 DUP2 PUSH2 0xB87 JUMP JUMPDEST SWAP1 POP SWAP2 SWAP1 POP JUMP JUMPDEST PUSH32 0x53656E6420736F6D652045544800000000000000000000000000000000000000 PUSH0 DUP3 ADD MSTORE POP JUMP JUMPDEST PUSH0 PUSH2 0xBFB PUSH1 0xD DUP4 PUSH2 0xA73 JUMP JUMPDEST SWAP2 POP PUSH2 0xC06 DUP3 PUSH2 0xBC7 JUMP JUMPDEST PUSH1 0x20 DUP3 ADD SWAP1 POP SWAP2 SWAP1 POP JUMP JUMPDEST PUSH0 PUSH1 0x20 DUP3 ADD SWAP1 POP DUP2 DUP2 SUB PUSH0 DUP4 ADD MSTORE PUSH2 0xC28 DUP2 PUSH2 0xBEF JUMP JUMPDEST SWAP1 POP SWAP2 SWAP1 POP JUMP JUMPDEST PUSH32 0x4E487B7100000000000000000000000000000000000000000000000000000000 PUSH0 MSTORE PUSH1 0x22 PUSH1 0x4 MSTORE PUSH1 0x24 PUSH0 REVERT JUMPDEST PUSH0 PUSH1 0x2 DUP3 DIV SWAP1 POP PUSH1 0x1 DUP3 AND DUP1 PUSH2 0xC73 JUMPI PUSH1 0x7F DUP3 AND SWAP2 POP JUMPDEST PUSH1 0x20 DUP3 LT DUP2 SUB PUSH2 0xC86 JUMPI PUSH2 0xC85 PUSH2 0xC2F JUMP JUMPDEST JUMPDEST POP SWAP2 SWAP1 POP JUMP JUMPDEST PUSH0 DUP2 SWAP1 POP DUP2 PUSH0 MSTORE PUSH1 0x20 PUSH0 KECCAK256 SWAP1 POP SWAP2 SWAP1 POP JUMP JUMPDEST PUSH0 PUSH1 0x20 PUSH1 0x1F DUP4 ADD DIV SWAP1 POP SWAP2 SWAP1 POP JUMP JUMPDEST PUSH0 DUP3 DUP3 SHL SWAP1 POP SWAP3 SWAP2 POP POP JUMP JUMPDEST PUSH0 PUSH1 0x8 DUP4 MUL PUSH2 0xCE8 PUSH32 0xFFFFFFFFFFFFFFFFFFFFFFFFFFFFFFFFFFFFFFFFFFFFFFFFFFFFFFFFFFFFFFFF DUP3 PUSH2 0xCAD JUMP JUMPDEST PUSH2 0xCF2 DUP7 DUP4 PUSH2 0xCAD JUMP JUMPDEST SWAP6 POP DUP1 NOT DUP5 AND SWAP4 POP DUP1 DUP7 AND DUP5 OR SWAP3 POP POP POP SWAP4 SWAP3 POP POP POP JUMP JUMPDEST PUSH0 DUP2 SWAP1 POP SWAP2 SWAP1 POP JUMP JUMPDEST PUSH0 PUSH2 0xD2D PUSH2 0xD28 PUSH2 0xD23 DUP5 PUSH2 0x65B JUMP JUMPDEST PUSH2 0xD0A JUMP JUMPDEST PUSH2 0x65B JUMP JUMPDEST SWAP1 POP SWAP2 SWAP1 POP JUMP JUMPDEST PUSH0 DUP2 SWAP1 POP SWAP2 SWAP1 POP JUMP JUMPDEST PUSH2 0xD46 DUP4 PUSH2 0xD13 JUMP JUMPDEST PUSH2 0xD5A PUSH2 0xD52 DUP3 PUSH2 0xD34 JUMP JUMPDEST DUP5 DUP5 SLOAD PUSH2 0xCB9 JUMP JUMPDEST DUP3 SSTORE POP POP POP POP JUMP JUMPDEST PUSH0 PUSH0 SWAP1 POP SWAP1 JUMP JUMPDEST PUSH2 0xD71 PUSH2 0xD62 JUMP JUMPDEST PUSH2 0xD7C DUP2 DUP5 DUP5 PUSH2 0xD3D JUMP JUMPDEST POP POP POP JUMP JUMPDEST PUSH0 JUMPDEST DUP3 DUP2 LT ISZERO PUSH2 0xDA2 JUMPI PUSH2 0xD97 PUSH0 DUP3 DUP5 ADD PUSH2 0xD69 JUMP JUMPDEST PUSH1 0x1 DUP2 ADD SWAP1 POP PUSH2 0xD83 JUMP JUMPDEST POP POP POP JUMP JUMPDEST PUSH1 0x1F DUP3 GT ISZERO PUSH2 0xDF5 JUMPI DUP3 DUP3 GT ISZERO PUSH2 0xDF4 JUMPI PUSH2 0xDC1 DUP2 PUSH2 0xC8C JUMP JUMPDEST PUSH2 0xDCA DUP4 PUSH2 0xC9E JUMP JUMPDEST PUSH2 0xDD3 DUP6 PUSH2 0xC9E JUMP JUMPDEST PUSH1 0x20 DUP7 LT ISZERO PUSH2 0xDE0 JUMPI PUSH0 SWAP1 POP JUMPDEST DUP1 DUP4 ADD PUSH2 0xDEF DUP3 DUP5 SUB DUP3 PUSH2 0xD81 JUMP JUMPDEST POP POP POP POP JUMPDEST JUMPDEST POP POP POP JUMP JUMPDEST PUSH0 DUP3 DUP3 SHR SWAP1 POP SWAP3 SWAP2 POP POP JUMP JUMPDEST PUSH0 PUSH2 0xE15 PUSH0 NOT DUP5 PUSH1 0x8 MUL PUSH2 0xDFA JUMP JUMPDEST NOT DUP1 DUP4 AND SWAP2 POP POP SWAP3 SWAP2 POP POP JUMP JUMPDEST PUSH0 PUSH2 0xE2D DUP4 DUP4 PUSH2 0xE06 JUMP JUMPDEST SWAP2 POP DUP3 PUSH1 0x2 MUL DUP3 OR SWAP1 POP SWAP3 SWAP2 POP POP JUMP JUMPDEST PUSH2 0xE46 DUP3 PUSH2 0x897 JUMP JUMPDEST PUSH8 0xFFFFFFFFFFFFFFFF DUP2 GT ISZERO PUSH2 0xE5F JUMPI PUSH2 0xE5E PUSH2 0x6B5 JUMP JUMPDEST JUMPDEST PUSH2 0xE69 DUP3 SLOAD PUSH2 0xC5C JUMP JUMPDEST PUSH2 0xE74 DUP3 DUP3 DUP6 PUSH2 0xDA7 JUMP JUMPDEST PUSH0 PUSH1 0x20 SWAP1 POP PUSH1 0x1F DUP4 GT PUSH1 0x1 DUP2 EQ PUSH2 0xEA5 JUMPI PUSH0 DUP5 ISZERO PUSH2 0xE93 JUMPI DUP3 DUP8 ADD MLOAD SWAP1 POP JUMPDEST PUSH2 0xE9D DUP6 DUP3 PUSH2 0xE22 JUMP JUMPDEST DUP7 SSTORE POP PUSH2 0xF04 JUMP JUMPDEST PUSH1 0x1F NOT DUP5 AND PUSH2 0xEB3 DUP7 PUSH2 0xC8C JUMP JUMPDEST PUSH0 JUMPDEST DUP3 DUP2 LT ISZERO PUSH2 0xEDA JUMPI DUP5 DUP10 ADD MLOAD DUP3 SSTORE PUSH1 0x1 DUP3 ADD SWAP2 POP PUSH1 0x20 DUP6 ADD SWAP5 POP PUSH1 0x20 DUP2 ADD SWAP1 POP PUSH2 0xEB5 JUMP JUMPDEST DUP7 DUP4 LT ISZERO PUSH2 0xEF7 JUMPI DUP5 DUP10 ADD MLOAD PUSH2 0xEF3 PUSH1 0x1F DUP10 AND DUP3 PUSH2 0xE06 JUMP JUMPDEST DUP4 SSTORE POP JUMPDEST PUSH1 0x1 PUSH1 0x2 DUP9 MUL ADD DUP9 SSTORE POP POP POP JUMPDEST POP POP POP POP POP POP JUMP JUMPDEST PUSH0 PUSH1 0x40 DUP3 ADD SWAP1 POP PUSH2 0xF1F PUSH0 DUP4 ADD DUP6 PUSH2 0x664 JUMP JUMPDEST DUP2 DUP2 SUB PUSH1 0x20 DUP4 ADD MSTORE PUSH2 0xF31 DUP2 DUP5 PUSH2 0xA83 JUMP JUMPDEST SWAP1 POP SWAP4 SWAP3 POP POP POP JUMP INVALID LOG2 PUSH5 0x6970667358 0x22 SLT KECCAK256 PUSH15 0x1082A92CC048AA5EE3ACB37334BB7B 0xDC 0xAC 0xB8 0xFC 0x4F SWAP12 EQ 0x4D 0xE9 0xC6 0x2F SSTORE DUP11 REVERT 0xB8 0xC3 PUSH5 0x736F6C6343 STOP ADDMOD 0x22 STOP CALLER "
				},
				"gasEstimates": {
					"creation": {
						"codeDepositCost": "790400",
						"executionCost": "25087",
						"totalCost": "815487"
					},
					"external": {
						"getBalance()": "312",
						"getTips()": "infinite",
						"owner()": "2573",
						"sendTip(string)": "infinite",
						"tips(uint256)": "infinite",
						"withdraw()": "infinite"
					}
				},
				"methodIdentifiers": {
					"getBalance()": "12065fe0",
					"getTips()": "88e4a073",
					"owner()": "8da5cb5b",
					"sendTip(string)": "7f5154b4",
					"tips(uint256)": "a5c68c59",
					"withdraw()": "3ccfd60b"
				}
			},
			"storageLayout": {
				"storage": [
					{
						"astId": 3,
						"contract": "Day11/TipJar.sol:TipJar",
						"label": "owner",
						"offset": 0,
						"slot": "0",
						"type": "t_address"
					},
					{
						"astId": 14,
						"contract": "Day11/TipJar.sol:TipJar",
						"label": "tips",
						"offset": 0,
						"slot": "1",
						"type": "t_array(t_struct(Tip)10_storage)dyn_storage"
					}
				],
				"types": {
					"t_address": {
						"encoding": "inplace",
						"label": "address",
						"numberOfBytes": "20"
					},
					"t_array(t_struct(Tip)10_storage)dyn_storage": {
						"base": "t_struct(Tip)10_storage",
						"encoding": "dynamic_array",
						"label": "struct TipJar.Tip[]",
						"numberOfBytes": "32"
					},
					"t_string_storage": {
						"encoding": "bytes",
						"label": "string",
						"numberOfBytes": "32"
					},
					"t_struct(Tip)10_storage": {
						"encoding": "inplace",
						"label": "struct TipJar.Tip",
						"members": [
							{
								"astId": 5,
								"contract": "Day11/TipJar.sol:TipJar",
								"label": "sender",
								"offset": 0,
								"slot": "0",
								"type": "t_address"
							},
							{
								"astId": 7,
								"contract": "Day11/TipJar.sol:TipJar",
								"label": "amount",
								"offset": 0,
								"slot": "1",
								"type": "t_uint256"
							},
							{
								"astId": 9,
								"contract": "Day11/TipJar.sol:TipJar",
								"label": "message",
								"offset": 0,
								"slot": "2",
								"type": "t_string_storage"
							}
						],
						"numberOfBytes": "96"
					},
					"t_uint256": {
						"encoding": "inplace",
						"label": "uint256",
						"numberOfBytes": "32"
					}
				}
			},
			"userdoc": {
				"kind": "user",
				"methods": {},
				"version": 1
			}
		}
	}
}