{
  "contractName": "Counter",
  "abi": [
    {
      "anonymous": false,
      "inputs": [
        {
          "indexed": false,
          "internalType": "uint256",
          "name": "newCount",
          "type": "uint256"
        }
      ],
      "name": "CountIncreased",
      "type": "event"
    },
    {
      "inputs": [],
      "name": "count",
      "outputs": [
        {
          "internalType": "uint256",
          "name": "",
          "type": "uint256"
        }
      ],
      "stateMutability": "view",
      "type": "function",
      "constant": true
    },
    {
      "inputs": [],
      "name": "increment",
      "outputs": [],
      "stateMutability": "nonpayable",
      "type": "function"
    }
  ],
  "bytecode": "0x608060405234801561001057600080fd5b5061019c806100206000396000f3fe608060405234801561001057600080fd5b50600436106100365760003560e01c806306661abd1461003b578063d09de08a14610059575b600080fd5b610043610063565b60405161005091906100d4565b60405180910390f35b610061610069565b005b60005481565b60008081548092919061007b9061011e565b91905055507f7ca2ca9527391044455246730762df008a6b47bbdb5d37a890ef78394535c0406000546040516100b191906100d4565b60405180910390a1565b6000819050919050565b6100ce816100bb565b82525050565b60006020820190506100e960008301846100c5565b92915050565b7f4e487b7100000000000000000000000000000000000000000000000000000000600052601160045260246000fd5b6000610129826100bb565b91507fffffffffffffffffffffffffffffffffffffffffffffffffffffffffffffffff820361015b5761015a6100ef565b5b60018201905091905056fea2646970667358221220aca5b4b1de3babde6a34d8bcb495a4e8682146ad879a8a35b24defc3ba4d3f9364736f6c63430008150033",
  "immutableReferences": {},
  "source": "// SPDX-License-Identifier: MIT\r\npragma solidity ^0.8.21;\r\n\r\ncontract Counter {\r\n    uint public count;\r\n\r\n    event CountIncreased(uint newCount);\r\n\r\n    function increment() public {\r\n        count++;\r\n        emit CountIncreased(count);\r\n    }\r\n}\r\n",
  "sourcePath": "C:\\Users\\Maneth\\Desktop\\21DaysOfBlockchain\\Day03-Events + Frontend Connection\\contracts\\Counter.sol",
  "compiler": {
    "name": "solc",
    "version": "0.8.21+commit.d9974bed.Emscripten.clang"
  },
  "schemaVersion": "3.4.16",
  "updatedAt": "2025-11-22T08:04:15.120Z",
  "networkType": "ethereum",
  "devdoc": {
    "kind": "dev",
    "methods": {},
    "version": 1
  },
  "userdoc": {
    "kind": "user",
    "methods": {},
    "version": 1
  }
}